{
  "address": "0xbf90085684976b84fdaa18ac42c0e8e4b277a115",
  "abi": [
    {
      "inputs": [],
      "name": "AlreadyAdded",
      "type": "error"
    },
    {
      "inputs": [],
      "name": "InvalidAccessManager",
      "type": "error"
    },
    {
      "inputs": [],
      "name": "InvalidChainlinkRate",
      "type": "error"
    },
    {
      "inputs": [],
      "name": "InvalidNegativeFees",
      "type": "error"
    },
    {
      "inputs": [],
      "name": "InvalidParams",
      "type": "error"
    },
    {
      "inputs": [],
      "name": "NotCollateral",
      "type": "error"
    },
    {
      "inputs": [],
      "name": "NotGovernor",
      "type": "error"
    },
    {
      "inputs": [],
      "name": "OracleUpdateFailed",
      "type": "error"
    },
    {
      "anonymous": false,
      "inputs": [
        {
          "indexed": true,
          "internalType": "address",
          "name": "collateral",
          "type": "address"
        }
      ],
      "name": "CollateralAdded",
      "type": "event"
    },
    {
      "anonymous": false,
      "inputs": [
        {
          "indexed": true,
          "internalType": "address",
          "name": "collateral",
          "type": "address"
        },
        {
          "indexed": false,
          "internalType": "uint64[]",
          "name": "xFee",
          "type": "uint64[]"
        },
        {
          "indexed": false,
          "internalType": "int64[]",
          "name": "yFee",
          "type": "int64[]"
        },
        {
          "indexed": false,
          "internalType": "bool",
          "name": "mint",
          "type": "bool"
        }
      ],
      "name": "FeesSet",
      "type": "event"
    },
    {
      "anonymous": false,
      "inputs": [
        {
          "indexed": true,
          "internalType": "address",
          "name": "collateral",
          "type": "address"
        },
        {
          "indexed": false,
          "internalType": "bytes",
          "name": "oracleConfig",
          "type": "bytes"
        }
      ],
      "name": "OracleSet",
      "type": "event"
    },
    {
      "anonymous": false,
      "inputs": [
        {
          "indexed": true,
          "internalType": "address",
          "name": "previousOwner",
          "type": "address"
        },
        {
          "indexed": true,
          "internalType": "address",
          "name": "newOwner",
          "type": "address"
        }
      ],
      "name": "OwnershipTransferred",
      "type": "event"
    },
    {
      "anonymous": false,
      "inputs": [
        {
          "indexed": true,
          "internalType": "address",
          "name": "collateral",
          "type": "address"
        },
        {
          "indexed": false,
          "internalType": "uint256",
          "name": "pausedType",
          "type": "uint256"
        },
        {
          "indexed": false,
          "internalType": "bool",
          "name": "isPaused",
          "type": "bool"
        }
      ],
      "name": "PauseToggled",
      "type": "event"
    },
    {
      "anonymous": false,
      "inputs": [
        {
          "indexed": false,
          "internalType": "uint64[]",
          "name": "xFee",
          "type": "uint64[]"
        },
        {
          "indexed": false,
          "internalType": "int64[]",
          "name": "yFee",
          "type": "int64[]"
        }
      ],
      "name": "RedemptionCurveParamsSet",
      "type": "event"
    },
    {
      "anonymous": false,
      "inputs": [
        {
          "indexed": true,
          "internalType": "address",
          "name": "collateral",
          "type": "address"
        },
        {
          "indexed": false,
          "internalType": "uint256",
          "name": "stablecoinCap",
          "type": "uint256"
        }
      ],
      "name": "StablecoinCapSet",
      "type": "event"
    },
    {
      "inputs": [
        {
          "internalType": "contract IAccessManager",
          "name": "_accessManager",
          "type": "address"
        },
        {
          "internalType": "address",
          "name": "_tokenP",
          "type": "address"
        },
        {
          "components": [
            {
              "internalType": "address",
              "name": "token",
              "type": "address"
            },
            {
              "internalType": "bool",
              "name": "targetMax",
              "type": "bool"
            },
            {
              "internalType": "bytes",
              "name": "oracleConfig",
              "type": "bytes"
            },
            {
              "internalType": "uint64[]",
              "name": "xMintFee",
              "type": "uint64[]"
            },
            {
              "internalType": "int64[]",
              "name": "yMintFee",
              "type": "int64[]"
            },
            {
              "internalType": "uint64[]",
              "name": "xBurnFee",
              "type": "uint64[]"
            },
            {
              "internalType": "int64[]",
              "name": "yBurnFee",
              "type": "int64[]"
            }
          ],
          "internalType": "struct CollateralSetup[]",
          "name": "_collaterals",
          "type": "tuple[]"
        },
        {
          "components": [
            {
              "internalType": "uint64[]",
              "name": "xRedeemFee",
              "type": "uint64[]"
            },
            {
              "internalType": "int64[]",
              "name": "yRedeemFee",
              "type": "int64[]"
            }
          ],
          "internalType": "struct RedemptionSetup",
          "name": "_redemptionSetup",
          "type": "tuple"
        }
      ],
      "name": "initialize",
      "outputs": [],
      "stateMutability": "nonpayable",
      "type": "function"
    }
  ],
  "contractName": "DiamondInitializer",
  "sourceName": "contracts/monetizer/configs/DiamondInitializer.sol",
  "bytecode": "0x6080604052348015600e575f5ffd5b50612f9a8061001c5f395ff3fe608060405234801561000f575f5ffd5b5060043610610029575f3560e01c8063f2238ad41461002d575b5f5ffd5b61004061003b36600461239d565b610042565b005b61004b84610209565b7f4b2dd303f68b99d244b702089c802b6e9ea1b5d4ef61fd436d6c41abb1178c7580547f4b2dd303f68b99d244b702089c802b6e9ea1b5d4ef61fd436d6c41abb1178c7680546fffffffffffffffffffffffffffffffff167b033b2e3c9fd0803ce80000000000000000000000000000000000000017905575010000000000000000000000000000000000000000007fffffffffffffffffffff00ff000000000000000000000000000000000000000090911673ffffffffffffffffffffffffffffffffffffffff86161717815582515f5b818110156101dc575f858281518110610138576101386125b0565b6020026020010151905061014e815f0151610312565b61015f815f015182604001516104e1565b610177815f01518260600151836080015160016105d7565b61018e815f01518260a001518360c001515f6105d7565b805161019a905f610756565b80516101a7906001610756565b80516101be906a52b7d2dcc80cd2e40000006109b8565b8060200151156101d35780516101d390610a91565b5060010161011d565b5082515115610201576101f05f6002610756565b610201835f01518460200151610d59565b505050505050565b8073ffffffffffffffffffffffffffffffffffffffff163b5f03610259576040517fa98154e200000000000000000000000000000000000000000000000000000000815260040160405180910390fd5b7fc8fcad8db84d3cc18b4c41d551ea0ee66dd599cde068d998e57d5e09332c131d80547fffffffffffffffffffffffff0000000000000000000000000000000000000000811673ffffffffffffffffffffffffffffffffffffffff8481169182179093556040517fc8fcad8db84d3cc18b4c41d551ea0ee66dd599cde068d998e57d5e09332c131b939092169182907f8be0079c531659141344cd1fd0a4f28419497f9722a3daafe3b4186f6b6457e0905f90a3505050565b73ffffffffffffffffffffffffffffffffffffffff81165f9081527f4b2dd303f68b99d244b702089c802b6e9ea1b5d4ef61fd436d6c41abb1178c7a6020526040902080547f4b2dd303f68b99d244b702089c802b6e9ea1b5d4ef61fd436d6c41abb1178c7591906301000000900460ff16156103bb576040517ff411c32700000000000000000000000000000000000000000000000000000000815260040160405180910390fd5b8273ffffffffffffffffffffffffffffffffffffffff1663313ce5676040518163ffffffff1660e01b8152600401602060405180830381865afa158015610404573d5f5f3e3d5ffd5b505050506040513d601f19601f8201168201806040525081019061042891906125ed565b815460ff919091166301000000027fffffffffffffffffffffffffffffffffffffffffffffffffffffffff00ffffff9091161781556002820180546001810182555f9182526020822001805473ffffffffffffffffffffffffffffffffffffffff86167fffffffffffffffffffffffff0000000000000000000000000000000000000000909116811790915560405190917f7db05e63d635a68c62fd7fd8f3107ae8ab584a383e102d1bd8a40f4c977e465f91a2505050565b73ffffffffffffffffffffffffffffffffffffffff82165f9081527f4b2dd303f68b99d244b702089c802b6e9ea1b5d4ef61fd436d6c41abb1178c7a6020526040812080549091630100000090910460ff16900361056b576040517f373f15fc00000000000000000000000000000000000000000000000000000000815260040160405180910390fd5b61057482610df0565b506005810161058383826126a3565b508273ffffffffffffffffffffffffffffffffffffffff167fba11329c0b0f98b91c254755aa8d698feac3b46fab65b65fe5ab7570de2ff928836040516105ca919061278c565b60405180910390a2505050565b73ffffffffffffffffffffffffffffffffffffffff84165f9081527f4b2dd303f68b99d244b702089c802b6e9ea1b5d4ef61fd436d6c41abb1178c7a6020526040812080547f4b2dd303f68b99d244b702089c802b6e9ea1b5d4ef61fd436d6c41abb1178c7592630100000090910460ff169003610681576040517f373f15fc00000000000000000000000000000000000000000000000000000000815260040160405180910390fd5b610698858585610692576001610f09565b5f610f09565b82156106cf5784516106b39060018301906020880190611f7a565b5083516106c99060028301906020870190612032565b506106fc565b84516106e49060038301906020880190611f7a565b5083516106fa9060048301906020870190612032565b505b8573ffffffffffffffffffffffffffffffffffffffff167f8abfb482e6f6ae87066f0006f10aff1738f4182d4f66b7a084685e4a6c51cfad86868660405161074693929190612815565b60405180910390a2505050505050565b5f8082600281111561076a5761076a61284c565b1480610787575060018260028111156107855761078561284c565b145b156108c85773ffffffffffffffffffffffffffffffffffffffff83165f9081527f4b2dd303f68b99d244b702089c802b6e9ea1b5d4ef61fd436d6c41abb1178c7a6020526040812080549091630100000090910460ff169003610816576040517f373f15fc00000000000000000000000000000000000000000000000000000000815260040160405180910390fd5b5f8360028111156108295761082961284c565b0361087957805461084390610100900460ff1660016128a6565b81547fffffffffffffffffffffffffffffffffffffffffffffffffffffffffffff00ff1661010060ff83160217825591506108c2565b805461088f9062010000900460ff1660016128a6565b81547fffffffffffffffffffffffffffffffffffffffffffffffffffffffffff00ffff166201000060ff83160217825591505b50610957565b7f4b2dd303f68b99d244b702089c802b6e9ea1b5d4ef61fd436d6c41abb1178c7580546109119074010000000000000000000000000000000000000000900460ff1660016128a6565b81547fffffffffffffffffffffff00ffffffffffffffffffffffffffffffffffffffff167401000000000000000000000000000000000000000060ff8316021790915590505b8273ffffffffffffffffffffffffffffffffffffffff167f3da495aea17ab24773f3161f4707961a797e39147ce4f8a8fbac0309a4a2d2e48360028111156109a1576109a161284c565b6040805191825260ff8516156020830152016105ca565b73ffffffffffffffffffffffffffffffffffffffff82165f9081527f4b2dd303f68b99d244b702089c802b6e9ea1b5d4ef61fd436d6c41abb1178c7a6020526040812080549091630100000090910460ff169003610a42576040517f373f15fc00000000000000000000000000000000000000000000000000000000815260040160405180910390fd5b6009810182905560405182815273ffffffffffffffffffffffffffffffffffffffff8416907feb6fe4a9f159360e971932dac27da07532267236a5423eaa27ea9f1cc641354e906020016105ca565b73ffffffffffffffffffffffffffffffffffffffff81165f9081527f4b2dd303f68b99d244b702089c802b6e9ea1b5d4ef61fd436d6c41abb1178c7a60205260408120547f4b2dd303f68b99d244b702089c802b6e9ea1b5d4ef61fd436d6c41abb1178c7591630100000090910460ff169003610b3a576040517f373f15fc00000000000000000000000000000000000000000000000000000000815260040160405180910390fd5b5f5f5f5f5f610c10866005015f8973ffffffffffffffffffffffffffffffffffffffff1673ffffffffffffffffffffffffffffffffffffffff1681526020019081526020015f206005018054610b8f90612606565b80601f0160208091040260200160405190810160405280929190818152602001828054610bbb90612606565b8015610c065780601f10610bdd57610100808354040283529160200191610c06565b820191905f5260205f20905b815481529060010190602001808311610be957829003601f168201915b5050505050611869565b9398509196509450925090506008846009811115610c3057610c3061284c565b14610c67576040517faa2d4fb600000000000000000000000000000000000000000000000000000000815260040160405180910390fd5b5f610c7b86670de0b6b3a764000086611896565b90505f83806020019051810190610c9291906128bf565b905080821115610d1c5786868684604051602001610cb291815260200190565b60408051601f1981840301815290829052610cd494939291889060200161290f565b60408051601f1981840301815291815273ffffffffffffffffffffffffffffffffffffffff8b165f9081526005808c016020529190200190610d1690826126a3565b50610d4e565b6040517faa2d4fb600000000000000000000000000000000000000000000000000000000815260040160405180910390fd5b505050505050505050565b7f4b2dd303f68b99d244b702089c802b6e9ea1b5d4ef61fd436d6c41abb1178c75610d8683836002610f09565b8251610d9b9060038301906020860190611f7a565b508151610db19060048301906020850190612032565b507fdd1690e851f57f138700d42b0a081b3b1b9a97dd2cb2aabc25c92658736290648383604051610de3929190612961565b60405180910390a1505050565b5f5f5f5f5f5f610dff87611869565b9398509196509450925090506001856009811115610e1f57610e1f61284c565b03610eb4575f83806020019051810190610e399190612985565b90508073ffffffffffffffffffffffffffffffffffffffff16635ade93556040518163ffffffff1660e01b8152600401602060405180830381865afa158015610e84573d5f5f3e3d5ffd5b505050506040513d601f19601f82011682018060405250810190610ea891906128bf565b98975050505050505050565b5f81806020019051810190610ec991906129bf565b5090505f610eec87878787866fffffffffffffffffffffffffffffffff16611ccb565b909850905087811015610efd578097505b50505050505050919050565b8251825181141580610f19575080155b15610f50576040517fa86b651200000000000000000000000000000000000000000000000000000000815260040160405180910390fd5b5f826002811115610f6357610f6361284c565b1480156110035750633b9aca0084610f7c6001846129f0565b81518110610f8c57610f8c6125b0565b602002602001015167ffffffffffffffff16101580610fce5750835f81518110610fb857610fb86125b0565b602002602001015167ffffffffffffffff165f14155b80611003575064e8d4a5100083610fe66001846129f0565b81518110610ff657610ff66125b0565b602002602001015160070b135b806110d35750600182600281111561101d5761101d61284c565b1480156110d35750633b9aca00845f8151811061103c5761103c6125b0565b602002602001015167ffffffffffffffff161415806110845750633b9aca00836110676001846129f0565b81518110611077576110776125b0565b602002602001015160070b135b806110d357506001811180156110d35750826001815181106110a8576110a86125b0565b602002602001015160070b835f815181106110c5576110c56125b0565b602002602001015160070b14155b8061118d575060028260028111156110ed576110ed61284c565b14801561118d5750633b9aca00846111066001846129f0565b81518110611116576111166125b0565b602002602001015167ffffffffffffffff16118061115957505f8361113c6001846129f0565b8151811061114c5761114c6125b0565b602002602001015160070b125b8061118d5750633b9aca00836111706001846129f0565b81518110611180576111806125b0565b602002602001015160070b135b156111c4576040517fa86b651200000000000000000000000000000000000000000000000000000000815260040160405180910390fd5b5f5b6111d16001836129f0565b81101561145e575f8360028111156111eb576111eb61284c565b1480156112955750846111ff826001612a03565b8151811061120f5761120f6125b0565b602002602001015167ffffffffffffffff16858281518110611233576112336125b0565b602002602001015167ffffffffffffffff16101580611295575083818151811061125f5761125f6125b0565b602002602001015160070b848260016112789190612a03565b81518110611288576112886125b0565b602002602001015160070b125b80611359575060018360028111156112af576112af61284c565b1480156113595750846112c3826001612a03565b815181106112d3576112d36125b0565b602002602001015167ffffffffffffffff168582815181106112f7576112f76125b0565b602002602001015167ffffffffffffffff161115806113595750838181518110611323576113236125b0565b602002602001015160070b8482600161133c9190612a03565b8151811061134c5761134c6125b0565b602002602001015160070b125b8061141f575060028360028111156113735761137361284c565b14801561141f575084611387826001612a03565b81518110611397576113976125b0565b602002602001015167ffffffffffffffff168582815181106113bb576113bb6125b0565b602002602001015167ffffffffffffffff161015806113f557505f8482815181106113e8576113e86125b0565b602002602001015160070b125b8061141f5750633b9aca00848281518110611412576114126125b0565b602002602001015160070b135b15611456576040517fa86b651200000000000000000000000000000000000000000000000000000000815260040160405180910390fd5b6001016111c6565b505f835f81518110611472576114726125b0565b602002602001015160070b12156118635761148c33611d68565b6114c2576040517fee3675d400000000000000000000000000000000000000000000000000000000815260040160405180910390fd5b7f4b2dd303f68b99d244b702089c802b6e9ea1b5d4ef61fd436d6c41abb1178c778054604080516020808402820181019092528281527f4b2dd303f68b99d244b702089c802b6e9ea1b5d4ef61fd436d6c41abb1178c75935f93919290919083018282801561156557602002820191905f5260205f20905b815473ffffffffffffffffffffffffffffffffffffffff16815260019091019060200180831161153a575b505083519394505f9250611577915050565b8560028111156115895761158961284c565b036116ea575f5b818110156116e8575f846005015f8584815181106115b0576115b06125b0565b602002602001015173ffffffffffffffffffffffffffffffffffffffff1673ffffffffffffffffffffffffffffffffffffffff1681526020019081526020015f2060040180548060200260200160405190810160405280929190818152602001828054801561165e57602002820191905f5260205f20905f905b825461010083900a900460070b81526020600f830181900493840193600103600890930192909202910180841161162a5790505b505050505090505f885f81518110611678576116786125b0565b6020026020010151825f81518110611692576116926125b0565b60200260200101516116a49190612a16565b60070b12156116df576040517f1133612100000000000000000000000000000000000000000000000000000000815260040160405180910390fd5b50600101611590565b505b60018560028111156116fe576116fe61284c565b0361185f575f5b8181101561185d575f846005015f858481518110611725576117256125b0565b602002602001015173ffffffffffffffffffffffffffffffffffffffff1673ffffffffffffffffffffffffffffffffffffffff1681526020019081526020015f206002018054806020026020016040519081016040528092919081815260200182805480156117d357602002820191905f5260205f20905f905b825461010083900a900460070b81526020600f830181900493840193600103600890930192909202910180841161179f5790505b505050505090505f815f815181106117ed576117ed6125b0565b6020026020010151895f81518110611807576118076125b0565b60200260200101516118199190612a16565b60070b1215611854576040517f1133612100000000000000000000000000000000000000000000000000000000815260040160405180910390fd5b50600101611705565b505b5050505b50505050565b5f5f6060806060858060200190518101906118849190612ab7565b939a9299509097509550909350915050565b5f808460098111156118aa576118aa61284c565b0361197a575f5f5f5f5f868060200190518101906118c89190612c4b565b945094509450945094505f6118dd828a611e2c565b86519091505f5b8181101561196a5761196083898381518110611902576119026125b0565b602002602001015188848151811061191c5761191c6125b0565b6020026020010151888581518110611936576119366125b0565b602002602001015160ff168b8681518110611953576119536125b0565b6020026020010151611e5d565b92506001016118e4565b5081975050505050505050611cc4565b600384600981111561198e5761198e61284c565b036119a25750670de0b6b3a7640000611cc4565b60028460098111156119b6576119b661284c565b036119c2575081611cc4565b60048460098111156119d6576119d661284c565b03611a74576040517f7a28fb88000000000000000000000000000000000000000000000000000000008152670de0b6b3a7640000600482015273ae7ab96520de3a18e5e111b5eaab095312d7fe8490637a28fb8890602401602060405180830381865afa158015611a49573d5f5f3e3d5ffd5b505050506040513d601f19601f82011682018060405250810190611a6d91906128bf565b9050611cc4565b6005846009811115611a8857611a8861284c565b03611aea5773be9895146f7af43049ca1c1ae358b0541ea4970473ffffffffffffffffffffffffffffffffffffffff16633ba0b9a96040518163ffffffff1660e01b8152600401602060405180830381865afa158015611a49573d5f5f3e3d5ffd5b6006846009811115611afe57611afe61284c565b03611b605773ae78736cd615f374d3085123a210448e74fc639373ffffffffffffffffffffffffffffffffffffffff1663e6aa216c6040518163ffffffff1660e01b8152600401602060405180830381865afa158015611a49573d5f5f3e3d5ffd5b6007846009811115611b7457611b7461284c565b03611bd65773ac3e018457b222d93114458476f3e3416abbe38f73ffffffffffffffffffffffffffffffffffffffff166399530b066040518163ffffffff1660e01b8152600401602060405180830381865afa158015611a49573d5f5f3e3d5ffd5b6008846009811115611bea57611bea61284c565b03611c0d575f82806020019051810190611c0491906128bf565b9150611cc49050565b6009846009811115611c2157611c2161284c565b03611cc1575f5f83806020019051810190611c3c9190612d76565b91509150808273ffffffffffffffffffffffffffffffffffffffff1663a035b1fe6040518163ffffffff1660e01b8152600401602060405180830381865afa158015611c8a573d5f5f3e3d5ffd5b505050506040513d601f19601f82011682018060405250810190611cae91906128bf565b611cb89190612da2565b92505050611cc4565b50815b9392505050565b5f5f611ce086670de0b6b3a764000086611896565b9050611ced878287611896565b9150611d01670de0b6b3a764000083612dda565b611d1384670de0b6b3a76400006129f0565b611d1d9083612dda565b108015611d555750611d3783670de0b6b3a7640000612a03565b611d419082612dda565b611d53670de0b6b3a764000084612dda565b105b15611d5e578091505b9550959350505050565b5f807fc8fcad8db84d3cc18b4c41d551ea0ee66dd599cde068d998e57d5e09332c131b600201546040517fd1f856ee000000000000000000000000000000000000000000000000000000008152600a600482015273ffffffffffffffffffffffffffffffffffffffff85811660248301529091169063d1f856ee906044016040805180830381865afa158015611e00573d5f5f3e3d5ffd5b505050506040513d601f19601f82011682018060405250810190611e249190612df1565b509392505050565b5f80836001811115611e4057611e4061284c565b03611e545750670de0b6b3a7640000611e57565b50805b92915050565b5f5f5f8673ffffffffffffffffffffffffffffffffffffffff1663feaf968c6040518163ffffffff1660e01b815260040160a060405180830381865afa158015611ea9573d5f5f3e3d5ffd5b505050506040513d601f19601f82011682018060405250810190611ecd9190612e34565b509350509250505f82131580611ef1575063ffffffff8416611eef82426129f0565b115b15611f28576040517fae19356300000000000000000000000000000000000000000000000000000000815260040160405180910390fd5b8560ff16600103611f5b57611f3e85600a612f59565b611f48838a612dda565b611f529190612da2565b92505050611f71565b81611f6786600a612f59565b611f48908a612dda565b95945050505050565b828054828255905f5260205f2090600301600490048101928215612022579160200282015f5b83821115611fec57835183826101000a81548167ffffffffffffffff021916908367ffffffffffffffff1602179055509260200192600801602081600701049283019260010302611fa0565b80156120205782816101000a81549067ffffffffffffffff0219169055600801602081600701049283019260010302611fec565b505b5061202e9291506120a7565b5090565b828054828255905f5260205f2090600301600490048101928215612022579160200282015f5b83821115611fec57835183826101000a81548167ffffffffffffffff021916908360070b67ffffffffffffffff1602179055509260200192600801602081600701049283019260010302612058565b5b8082111561202e575f81556001016120a8565b73ffffffffffffffffffffffffffffffffffffffff811681146120dc575f5ffd5b50565b80356120ea816120bb565b919050565b7f4e487b71000000000000000000000000000000000000000000000000000000005f52604160045260245ffd5b60405160e0810167ffffffffffffffff8111828210171561213f5761213f6120ef565b60405290565b604051601f8201601f1916810167ffffffffffffffff8111828210171561216e5761216e6120ef565b604052919050565b5f67ffffffffffffffff82111561218f5761218f6120ef565b5060051b60200190565b80151581146120dc575f5ffd5b80356120ea81612199565b5f67ffffffffffffffff8211156121ca576121ca6120ef565b50601f01601f191660200190565b5f82601f8301126121e7575f5ffd5b81356121fa6121f5826121b1565b612145565b81815284602083860101111561220e575f5ffd5b816020850160208301375f918101602001919091529392505050565b5f82601f830112612239575f5ffd5b81356122476121f582612176565b8082825260208201915060208360051b860101925085831115612268575f5ffd5b602085015b8381101561229a57803567ffffffffffffffff8116811461228c575f5ffd5b83526020928301920161226d565b5095945050505050565b5f82601f8301126122b3575f5ffd5b81356122c16121f582612176565b8082825260208201915060208360051b8601019250858311156122e2575f5ffd5b602085015b8381101561229a5780358060070b81146122ff575f5ffd5b8352602092830192016122e7565b5f6040828403121561231d575f5ffd5b6040805190810167ffffffffffffffff81118282101715612340576123406120ef565b604052905080823567ffffffffffffffff81111561235c575f5ffd5b6123688582860161222a565b825250602083013567ffffffffffffffff811115612384575f5ffd5b612390858286016122a4565b6020830152505092915050565b5f5f5f5f608085870312156123b0575f5ffd5b84356123bb816120bb565b935060208501356123cb816120bb565b9250604085013567ffffffffffffffff8111156123e6575f5ffd5b8501601f810187136123f6575f5ffd5b80356124046121f582612176565b8082825260208201915060208360051b850101925089831115612425575f5ffd5b602084015b8381101561257957803567ffffffffffffffff811115612448575f5ffd5b850160e0818d03601f1901121561245d575f5ffd5b61246561211c565b612471602083016120df565b815261247f604083016121a6565b6020820152606082013567ffffffffffffffff81111561249d575f5ffd5b6124ac8e6020838601016121d8565b604083015250608082013567ffffffffffffffff8111156124cb575f5ffd5b6124da8e60208386010161222a565b60608301525060a082013567ffffffffffffffff8111156124f9575f5ffd5b6125088e6020838601016122a4565b60808301525060c082013567ffffffffffffffff811115612527575f5ffd5b6125368e60208386010161222a565b60a08301525060e082013567ffffffffffffffff811115612555575f5ffd5b6125648e6020838601016122a4565b60c0830152508452506020928301920161242a565b509450505050606085013567ffffffffffffffff811115612598575f5ffd5b6125a48782880161230d565b91505092959194509250565b7f4e487b71000000000000000000000000000000000000000000000000000000005f52603260045260245ffd5b805160ff811681146120ea575f5ffd5b5f602082840312156125fd575f5ffd5b611cc4826125dd565b600181811c9082168061261a57607f821691505b602082108103612651577f4e487b71000000000000000000000000000000000000000000000000000000005f52602260045260245ffd5b50919050565b601f82111561269e57805f5260205f20601f840160051c8101602085101561267c5750805b601f840160051c820191505b8181101561269b575f8155600101612688565b50505b505050565b815167ffffffffffffffff8111156126bd576126bd6120ef565b6126d1816126cb8454612606565b84612657565b6020601f821160018114612703575f83156126ec5750848201515b5f19600385901b1c1916600184901b17845561269b565b5f84815260208120601f198516915b828110156127325787850151825560209485019460019092019101612712565b508482101561274f57868401515f19600387901b60f8161c191681555b50505050600190811b01905550565b5f81518084528060208401602086015e5f602082860101526020601f19601f83011685010191505092915050565b602081525f611cc4602083018461275e565b5f8151808452602084019350602083015f5b828110156127d857815167ffffffffffffffff168652602095860195909101906001016127b0565b5093949350505050565b5f8151808452602084019350602083015f5b828110156127d857815160070b8652602095860195909101906001016127f4565b606081525f612827606083018661279e565b828103602084015261283981866127e2565b9150508215156040830152949350505050565b7f4e487b71000000000000000000000000000000000000000000000000000000005f52602160045260245ffd5b7f4e487b71000000000000000000000000000000000000000000000000000000005f52601160045260245ffd5b60ff8281168282160390811115611e5757611e57612879565b5f602082840312156128cf575f5ffd5b5051919050565b600a811061290b577f4e487b71000000000000000000000000000000000000000000000000000000005f52602160045260245ffd5b9052565b61291981876128d6565b61292660208201866128d6565b60a060408201525f61293b60a083018661275e565b828103606084015261294d818661275e565b90508281036080840152610ea8818561275e565b604081525f612973604083018561279e565b8281036020840152611f7181856127e2565b5f60208284031215612995575f5ffd5b8151611cc4816120bb565b80516fffffffffffffffffffffffffffffffff811681146120ea575f5ffd5b5f5f604083850312156129d0575f5ffd5b6129d9836129a0565b91506129e7602084016129a0565b90509250929050565b81810381811115611e5757611e57612879565b80820180821115611e5757611e57612879565b600781810b9083900b01677fffffffffffffff81137fffffffffffffffffffffffffffffffffffffffffffffffff800000000000000082121715611e5757611e57612879565b8051600a81106120ea575f5ffd5b5f82601f830112612a79575f5ffd5b8151612a876121f5826121b1565b818152846020838601011115612a9b575f5ffd5b8160208501602083015e5f918101602001919091529392505050565b5f5f5f5f5f60a08688031215612acb575f5ffd5b612ad486612a5c565b9450612ae260208701612a5c565b9350604086015167ffffffffffffffff811115612afd575f5ffd5b612b0988828901612a6a565b935050606086015167ffffffffffffffff811115612b25575f5ffd5b612b3188828901612a6a565b925050608086015167ffffffffffffffff811115612b4d575f5ffd5b612b5988828901612a6a565b9150509295509295909350565b805163ffffffff811681146120ea575f5ffd5b5f82601f830112612b88575f5ffd5b8151612b966121f582612176565b8082825260208201915060208360051b860101925085831115612bb7575f5ffd5b602085015b8381101561229a57612bcd81612b66565b835260209283019201612bbc565b5f82601f830112612bea575f5ffd5b8151612bf86121f582612176565b8082825260208201915060208360051b860101925085831115612c19575f5ffd5b602085015b8381101561229a57612c2f816125dd565b835260209283019201612c1e565b8051600281106120ea575f5ffd5b5f5f5f5f5f60a08688031215612c5f575f5ffd5b855167ffffffffffffffff811115612c75575f5ffd5b8601601f81018813612c85575f5ffd5b8051612c936121f582612176565b8082825260208201915060208360051b85010192508a831115612cb4575f5ffd5b6020840193505b82841015612cdf578351612cce816120bb565b825260209384019390910190612cbb565b80985050505050602086015167ffffffffffffffff811115612cff575f5ffd5b612d0b88828901612b79565b945050604086015167ffffffffffffffff811115612d27575f5ffd5b612d3388828901612bdb565b935050606086015167ffffffffffffffff811115612d4f575f5ffd5b612d5b88828901612bdb565b925050612d6a60808701612c3d565b90509295509295909350565b5f5f60408385031215612d87575f5ffd5b8251612d92816120bb565b6020939093015192949293505050565b5f82612dd5577f4e487b71000000000000000000000000000000000000000000000000000000005f52601260045260245ffd5b500490565b8082028115828204841417611e5757611e57612879565b5f5f60408385031215612e02575f5ffd5b8251612e0d81612199565b91506129e760208401612b66565b805169ffffffffffffffffffff811681146120ea575f5ffd5b5f5f5f5f5f60a08688031215612e48575f5ffd5b612e5186612e1b565b60208701516040880151606089015192975090955093509150612d6a60808701612e1b565b6001815b6001841115612eb157808504811115612e9557612e95612879565b6001841615612ea357908102905b60019390931c928002612e7a565b935093915050565b5f82612ec757506001611e57565b81612ed357505f611e57565b8160018114612ee95760028114612ef357612f0f565b6001915050611e57565b60ff841115612f0457612f04612879565b50506001821b611e57565b5060208310610133831016604e8410600b8410161715612f32575081810a611e57565b612f3e5f198484612e76565b805f1904821115612f5157612f51612879565b029392505050565b5f611cc48383612eb956fea264697066735822122090eab4e7f42cb438f0c3f5fa06ef62c449dc823ae12a4ec50c0c4edd05f2382d64736f6c634300081c0033",
  "linkReferences": {},
  "deployedLinkReferences": {},
  "immutableReferences": {},
  "inputSourceName": "project/contracts/monetizer/configs/DiamondInitializer.sol",
  "devdoc": {
    "details": "This contract is used only once to initialize the diamond proxy.",
    "kind": "dev",
    "methods": {},
    "version": 1
  },
  "evm": {
    "gasEstimates": {
      "creation": {
        "codeDepositCost": "2437200",
        "executionCost": "2618",
        "totalCost": "2439818"
      },
      "external": {
        "initialize(address,address,(address,bool,bytes,uint64[],int64[],uint64[],int64[])[],(uint64[],int64[]))": "infinite"
      }
    }
  },
  "storageLayout": {
    "storage": [],
    "types": null
  },
  "userdoc": {
    "kind": "user",
    "methods": {},
    "version": 1
  },
  "argsData": "0x",
  "transaction": {
    "hash": "0xf22d6ea24864b184a83f54622015d21c3d84f766908c7007639bc20f1f519aec",
    "nonce": "0x33",
    "origin": "0x10a852971d242a04829b541c32f09ad9ec1b227d"
  }
}