{
  "address": "0xbb6f363ca327a7bb844c1b87e40bbcadb51cad06",
  "abi": [
    {
      "inputs": [
        {
          "internalType": "address",
          "name": "caller",
          "type": "address"
        }
      ],
      "name": "AccessManagedUnauthorized",
      "type": "error"
    },
    {
      "anonymous": false,
      "inputs": [
        {
          "indexed": true,
          "internalType": "address",
          "name": "implementation",
          "type": "address"
        }
      ],
      "name": "Upgraded",
      "type": "event"
    },
    {
      "inputs": [],
      "name": "implementation",
      "outputs": [
        {
          "internalType": "address",
          "name": "",
          "type": "address"
        }
      ],
      "stateMutability": "view",
      "type": "function"
    },
    {
      "inputs": [
        {
          "internalType": "address",
          "name": "_implementation",
          "type": "address"
        }
      ],
      "name": "setDummyImplementation",
      "outputs": [],
      "stateMutability": "nonpayable",
      "type": "function"
    }
  ],
  "contractName": "DiamondEtherscan",
  "sourceName": "contracts/monetizer/facets/DiamondEtherscan.sol",
  "bytecode": "0x6080604052348015600e575f5ffd5b506105a08061001c5f395ff3fe608060405234801561000f575f5ffd5b5060043610610034575f3560e01c80635c60da1b14610038578063c39aa07d14610069575b5f5ffd5b61004061007e565b60405173ffffffffffffffffffffffffffffffffffffffff909116815260200160405180910390f35b61007c610077366004610441565b6100c2565b005b5f6100bd7f360894a13ba1a3210667c828492db98dca3e2076cc3735a920a3ca505d382bbc5473ffffffffffffffffffffffffffffffffffffffff1690565b905090565b6100cd335f36610115565b610109576040517f068ca9d800000000000000000000000000000000000000000000000000000000815233600482015260240160405180910390fd5b610112816102b1565b50565b7fc8fcad8db84d3cc18b4c41d551ea0ee66dd599cde068d998e57d5e09332c131d545f9073ffffffffffffffffffffffffffffffffffffffff1681806101728388306101646004868b8d610474565b61016d9161049b565b61033e565b91509150816102a25763ffffffff811615610297577f4b2dd303f68b99d244b702089c802b6e9ea1b5d4ef61fd436d6c41abb1178c7580547fffffffffffffffffff00ffffffffffffffffffffffffffffffffffffffffffff167601000000000000000000000000000000000000000000001781556040517f94c7d7ee00000000000000000000000000000000000000000000000000000000815273ffffffffffffffffffffffffffffffffffffffff8516906394c7d7ee9061023d908b908b908b90600401610501565b5f604051808303815f87803b158015610254575f5ffd5b505af1158015610266573d5f5f3e3d5ffd5b505082547fffffffffffffffffff00ffffffffffffffffffffffffffffffffffffffffffff16909255506102a29050565b5f93505050506102aa565b600193505050505b9392505050565b7f360894a13ba1a3210667c828492db98dca3e2076cc3735a920a3ca505d382bbc80547fffffffffffffffffffffffff00000000000000000000000000000000000000001673ffffffffffffffffffffffffffffffffffffffff83169081179091556040517fbc7cd75a20ee27fd9adebab32041f755214dbc6bffa90cc0225b39da2e5c2d3b905f90a250565b60405173ffffffffffffffffffffffffffffffffffffffff8085166024830152831660448201527fffffffff00000000000000000000000000000000000000000000000000000000821660648201525f9081908190608401604080517fffffffffffffffffffffffffffffffffffffffffffffffffffffffffffffffe0818403018152918152602080830180517bffffffffffffffffffffffffffffffffffffffffffffffffffffffff167fb7009613000000000000000000000000000000000000000000000000000000001781525f808052918290528351939450919290918a5afa15610437575f516020805191945081901c150291505b5094509492505050565b5f60208284031215610451575f5ffd5b813573ffffffffffffffffffffffffffffffffffffffff811681146102aa575f5ffd5b5f5f85851115610482575f5ffd5b8386111561048e575f5ffd5b5050820193919092039150565b80357fffffffff0000000000000000000000000000000000000000000000000000000081169060048410156104fa577fffffffff00000000000000000000000000000000000000000000000000000000808560040360031b1b82161691505b5092915050565b73ffffffffffffffffffffffffffffffffffffffff8416815260406020820152816040820152818360608301375f818301606090810191909152601f9092017fffffffffffffffffffffffffffffffffffffffffffffffffffffffffffffffe01601019291505056fea2646970667358221220d8679281989d5117d33a3a23ca1d2fcbc04c38109dd0d4c2d0b9ed732d77e79f64736f6c634300081c0033",
  "linkReferences": {},
  "deployedLinkReferences": {},
  "immutableReferences": {},
  "inputSourceName": "project/contracts/monetizer/facets/DiamondEtherscan.sol",
  "devdoc": {
    "author": "Forked from: https://github.com/zdenham/diamond-etherscan/blob/main/contracts/libraries/LibDiamondEtherscan.sol",
    "kind": "dev",
    "methods": {},
    "title": "DiamondEtherscan",
    "version": 1
  },
  "evm": {
    "gasEstimates": {
      "creation": {
        "codeDepositCost": "288000",
        "executionCost": "322",
        "totalCost": "288322"
      },
      "external": {
        "implementation()": "2309",
        "setDummyImplementation(address)": "infinite"
      }
    }
  },
  "storageLayout": {
    "storage": [],
    "types": null
  },
  "userdoc": {
    "kind": "user",
    "methods": {
      "implementation()": {
        "notice": "Address of the dummy implementation used to make the DiamondProxy contract interpretable by Etherscan"
      },
      "setDummyImplementation(address)": {
        "notice": "Sets a dummy implementation with the same layout at the diamond proxy contract with all its facets"
      }
    },
    "version": 1
  },
  "argsData": "0x",
  "transaction": {
    "hash": "0x87ac1e6457952a0964fbef9f4c9ed3b21cdf58b112569f16e2d88282329b82d1",
    "nonce": "0x35",
    "origin": "0x10a852971d242a04829b541c32f09ad9ec1b227d"
  }
}