{
  "address": "0x5a41acc5c2c3d16e81d80e9dd76761b59a99dfba",
  "abi": [
    {
      "inputs": [
        {
          "internalType": "bytes4",
          "name": "_functionSelector",
          "type": "bytes4"
        }
      ],
      "name": "facetAddress",
      "outputs": [
        {
          "internalType": "address",
          "name": "facetAddress_",
          "type": "address"
        }
      ],
      "stateMutability": "view",
      "type": "function"
    },
    {
      "inputs": [],
      "name": "facetAddresses",
      "outputs": [
        {
          "internalType": "address[]",
          "name": "facetAddresses_",
          "type": "address[]"
        }
      ],
      "stateMutability": "view",
      "type": "function"
    },
    {
      "inputs": [
        {
          "internalType": "address",
          "name": "_facet",
          "type": "address"
        }
      ],
      "name": "facetFunctionSelectors",
      "outputs": [
        {
          "internalType": "bytes4[]",
          "name": "_facetFunctionSelectors",
          "type": "bytes4[]"
        }
      ],
      "stateMutability": "view",
      "type": "function"
    },
    {
      "inputs": [],
      "name": "facets",
      "outputs": [
        {
          "components": [
            {
              "internalType": "address",
              "name": "facetAddress",
              "type": "address"
            },
            {
              "internalType": "bytes4[]",
              "name": "functionSelectors",
              "type": "bytes4[]"
            }
          ],
          "internalType": "struct Facet[]",
          "name": "facets_",
          "type": "tuple[]"
        }
      ],
      "stateMutability": "view",
      "type": "function"
    }
  ],
  "contractName": "DiamondLoupe",
  "sourceName": "contracts/monetizer/facets/DiamondLoupe.sol",
  "bytecode": "0x6080604052348015600e575f5ffd5b50610bca8061001c5f395ff3fe608060405234801561000f575f5ffd5b506004361061004a575f3560e01c806352ef6b2c1461004e5780637a0ed6271461006c578063adfca15e14610081578063cdffacc6146100a1575b5f5ffd5b61005661013c565b60405161006391906108c9565b60405180910390f35b610074610306565b604051610063919061097d565b61009461008f366004610a2b565b61075e565b6040516100639190610a65565b6101176100af366004610a77565b7fffffffff00000000000000000000000000000000000000000000000000000000165f9081527fc8fcad8db84d3cc18b4c41d551ea0ee66dd599cde068d998e57d5e09332c131c602052604090205473ffffffffffffffffffffffffffffffffffffffff1690565b60405173ffffffffffffffffffffffffffffffffffffffff9091168152602001610063565b7fc8fcad8db84d3cc18b4c41d551ea0ee66dd599cde068d998e57d5e09332c131b8054606091908067ffffffffffffffff81111561017c5761017c610ab6565b6040519080825280602002602001820160405280156101a5578160200160208202803683370190505b5092505f5f5b828110156102fc575f845f0182815481106101c8576101c8610ae3565b5f918252602080832060088304015460079092166004026101000a90910460e01b7fffffffff000000000000000000000000000000000000000000000000000000008116835260018801909152604082205490925073ffffffffffffffffffffffffffffffffffffffff1690805b8581101561029b5788818151811061025057610250610ae3565b602002602001015173ffffffffffffffffffffffffffffffffffffffff168373ffffffffffffffffffffffffffffffffffffffff1603610293576001915061029b565b600101610236565b5080156102ab57506102f4915050565b818886815181106102be576102be610ae3565b73ffffffffffffffffffffffffffffffffffffffff90921660209283029190910190910152846102ed81610b3d565b9550505050505b6001016101ab565b5080845250505090565b7fc8fcad8db84d3cc18b4c41d551ea0ee66dd599cde068d998e57d5e09332c131b8054606091908067ffffffffffffffff81111561034657610346610ab6565b60405190808252806020026020018201604052801561038b57816020015b604080518082019091525f8152606060208201528152602001906001900390816103645790505b5092505f8167ffffffffffffffff8111156103a8576103a8610ab6565b6040519080825280602002602001820160405280156103d1578160200160208202803683370190505b5090505f5f5b838110156106f9575f855f0182815481106103f4576103f4610ae3565b5f918252602080832060088304015460079092166004026101000a90910460e01b7fffffffff000000000000000000000000000000000000000000000000000000008116835260018901909152604082205490925073ffffffffffffffffffffffffffffffffffffffff1690805b85811015610591578273ffffffffffffffffffffffffffffffffffffffff168a828151811061049357610493610ae3565b60200260200101515f015173ffffffffffffffffffffffffffffffffffffffff160361058957838a82815181106104cc576104cc610ae3565b6020026020010151602001518883815181106104ea576104ea610ae3565b602002602001015161ffff168151811061050657610506610ae3565b60200260200101907bffffffffffffffffffffffffffffffffffffffffffffffffffffffff191690817bffffffffffffffffffffffffffffffffffffffffffffffffffffffff19168152505086818151811061056457610564610ae3565b60200260200101805180919061057990610b74565b61ffff1690525060019150610591565b600101610462565b5080156105a157506106f1915050565b818986815181106105b4576105b4610ae3565b602090810291909101015173ffffffffffffffffffffffffffffffffffffffff90911690528667ffffffffffffffff8111156105f2576105f2610ab6565b60405190808252806020026020018201604052801561061b578160200160208202803683370190505b5089868151811061062e5761062e610ae3565b6020026020010151602001819052508289868151811061065057610650610ae3565b6020026020010151602001515f8151811061066d5761066d610ae3565b60200260200101907bffffffffffffffffffffffffffffffffffffffffffffffffffffffff191690817bffffffffffffffffffffffffffffffffffffffffffffffffffffffff19168152505060018686815181106106cd576106cd610ae3565b61ffff90921660209283029190910190910152846106ea81610b3d565b9550505050505b6001016103d7565b505f5b81811015610753575f83828151811061071757610717610ae3565b602002602001015161ffff1690505f87838151811061073857610738610ae3565b602090810291909101810151015191909152506001016106fc565b508085525050505090565b7fc8fcad8db84d3cc18b4c41d551ea0ee66dd599cde068d998e57d5e09332c131b8054606091905f8167ffffffffffffffff81111561079f5761079f610ab6565b6040519080825280602002602001820160405280156107c8578160200160208202803683370190505b5093505f5b828110156108be575f845f0182815481106107ea576107ea610ae3565b5f918252602080832060088304015460079092166004026101000a90910460e01b7fffffffff00000000000000000000000000000000000000000000000000000000811683526001880190915260409091205490915073ffffffffffffffffffffffffffffffffffffffff9081169088168190036108b4578187858151811061087557610875610ae3565b7fffffffff0000000000000000000000000000000000000000000000000000000090921660209283029190910190910152836108b081610b3d565b9450505b50506001016107cd565b508352509092915050565b602080825282518282018190525f918401906040840190835b8181101561091657835173ffffffffffffffffffffffffffffffffffffffff168352602093840193909201916001016108e2565b509095945050505050565b5f8151808452602084019350602083015f5b828110156109735781517fffffffff0000000000000000000000000000000000000000000000000000000016865260209586019590910190600101610933565b5093949350505050565b5f602082016020835280845180835260408501915060408160051b8601019250602086015f5b82811015610a1f577fffffffffffffffffffffffffffffffffffffffffffffffffffffffffffffffc0878603018452815173ffffffffffffffffffffffffffffffffffffffff81511686526020810151905060406020870152610a096040870182610921565b95505060209384019391909101906001016109a3565b50929695505050505050565b5f60208284031215610a3b575f5ffd5b813573ffffffffffffffffffffffffffffffffffffffff81168114610a5e575f5ffd5b9392505050565b602081525f610a5e6020830184610921565b5f60208284031215610a87575f5ffd5b81357fffffffff0000000000000000000000000000000000000000000000000000000081168114610a5e575f5ffd5b7f4e487b71000000000000000000000000000000000000000000000000000000005f52604160045260245ffd5b7f4e487b71000000000000000000000000000000000000000000000000000000005f52603260045260245ffd5b7f4e487b71000000000000000000000000000000000000000000000000000000005f52601160045260245ffd5b5f7fffffffffffffffffffffffffffffffffffffffffffffffffffffffffffffffff8203610b6d57610b6d610b10565b5060010190565b5f61ffff821661ffff8103610b8b57610b8b610b10565b6001019291505056fea2646970667358221220abb23a979d5988fe375a85f5dafc3bb7cec06c4a63452b709b8ff8c29344068864736f6c634300081c0033",
  "linkReferences": {},
  "deployedLinkReferences": {},
  "immutableReferences": {},
  "inputSourceName": "project/contracts/monetizer/facets/DiamondLoupe.sol",
  "devdoc": {
    "author": "Cooper Labs",
    "custom:contact": "security@monet.cash",
    "details": "Reference: EIP-2535 DiamondsForked from https://github.com/mudgen/diamond-3/blob/master/contracts/facets/DiamondLoupeFacet.sol by mudgen",
    "kind": "dev",
    "methods": {
      "facetAddress(bytes4)": {
        "details": "If facet is not found return address(0).",
        "params": {
          "_functionSelector": "The function selector."
        },
        "returns": {
          "facetAddress_": "The facet address."
        }
      },
      "facetAddresses()": {
        "returns": {
          "facetAddresses_": "facetAddresses_"
        }
      },
      "facetFunctionSelectors(address)": {
        "params": {
          "_facet": "The facet address."
        },
        "returns": {
          "_facetFunctionSelectors": "facetFunctionSelectors_"
        }
      },
      "facets()": {
        "returns": {
          "facets_": "Facet"
        }
      }
    },
    "title": "DiamondLoupe",
    "version": 1
  },
  "evm": {
    "gasEstimates": {
      "creation": {
        "codeDepositCost": "603600",
        "executionCost": "636",
        "totalCost": "604236"
      },
      "external": {
        "facetAddress(bytes4)": "2534",
        "facetAddresses()": "infinite",
        "facetFunctionSelectors(address)": "infinite",
        "facets()": "infinite"
      }
    }
  },
  "storageLayout": {
    "storage": [],
    "types": null
  },
  "userdoc": {
    "kind": "user",
    "methods": {
      "facetAddress(bytes4)": {
        "notice": "Gets the facet that supports the given selector."
      },
      "facetAddresses()": {
        "notice": "Get all the facet addresses used by a diamond."
      },
      "facetFunctionSelectors(address)": {
        "notice": "Gets all the function selectors supported by a specific facet."
      },
      "facets()": {
        "notice": "Gets all facet addresses and their four byte function selectors."
      }
    },
    "version": 1
  },
  "argsData": "0x",
  "transaction": {
    "hash": "0x5f033952d54979a60ffd580984cadd74f90ec2187487b2c6ec1d80bbe642bc71",
    "nonce": "0x36",
    "origin": "0x10a852971d242a04829b541c32f09ad9ec1b227d"
  }
}