{
  "address": "0x7b2d8d775f0df4b01df8a44e0219f81973b59108",
  "abi": [
    {
      "inputs": [],
      "name": "InvalidChainlinkRate",
      "type": "error"
    },
    {
      "inputs": [],
      "name": "NotCollateral",
      "type": "error"
    },
    {
      "inputs": [],
      "name": "ReentrantCall",
      "type": "error"
    },
    {
      "inputs": [
        {
          "internalType": "uint8",
          "name": "bits",
          "type": "uint8"
        },
        {
          "internalType": "uint256",
          "name": "value",
          "type": "uint256"
        }
      ],
      "name": "SafeCastOverflowedUintDowncast",
      "type": "error"
    },
    {
      "inputs": [],
      "name": "accessManager",
      "outputs": [
        {
          "internalType": "address",
          "name": "",
          "type": "address"
        }
      ],
      "stateMutability": "view",
      "type": "function"
    },
    {
      "inputs": [
        {
          "internalType": "address",
          "name": "collateral",
          "type": "address"
        }
      ],
      "name": "getCollateralBurnFees",
      "outputs": [
        {
          "internalType": "uint64[]",
          "name": "xFeeBurn",
          "type": "uint64[]"
        },
        {
          "internalType": "int64[]",
          "name": "yFeeBurn",
          "type": "int64[]"
        }
      ],
      "stateMutability": "view",
      "type": "function"
    },
    {
      "inputs": [
        {
          "internalType": "address",
          "name": "collateral",
          "type": "address"
        }
      ],
      "name": "getCollateralDecimals",
      "outputs": [
        {
          "internalType": "uint8",
          "name": "",
          "type": "uint8"
        }
      ],
      "stateMutability": "view",
      "type": "function"
    },
    {
      "inputs": [
        {
          "internalType": "address",
          "name": "collateral",
          "type": "address"
        }
      ],
      "name": "getCollateralInfo",
      "outputs": [
        {
          "components": [
            {
              "internalType": "uint8",
              "name": "isManaged",
              "type": "uint8"
            },
            {
              "internalType": "uint8",
              "name": "isMintLive",
              "type": "uint8"
            },
            {
              "internalType": "uint8",
              "name": "isBurnLive",
              "type": "uint8"
            },
            {
              "internalType": "uint8",
              "name": "decimals",
              "type": "uint8"
            },
            {
              "internalType": "uint8",
              "name": "onlyWhitelisted",
              "type": "uint8"
            },
            {
              "internalType": "uint216",
              "name": "normalizedStables",
              "type": "uint216"
            },
            {
              "internalType": "uint64[]",
              "name": "xFeeMint",
              "type": "uint64[]"
            },
            {
              "internalType": "int64[]",
              "name": "yFeeMint",
              "type": "int64[]"
            },
            {
              "internalType": "uint64[]",
              "name": "xFeeBurn",
              "type": "uint64[]"
            },
            {
              "internalType": "int64[]",
              "name": "yFeeBurn",
              "type": "int64[]"
            },
            {
              "internalType": "bytes",
              "name": "oracleConfig",
              "type": "bytes"
            },
            {
              "internalType": "bytes",
              "name": "whitelistData",
              "type": "bytes"
            },
            {
              "components": [
                {
                  "internalType": "contract IERC20[]",
                  "name": "subCollaterals",
                  "type": "address[]"
                },
                {
                  "internalType": "bytes",
                  "name": "config",
                  "type": "bytes"
                }
              ],
              "internalType": "struct ManagerStorage",
              "name": "managerData",
              "type": "tuple"
            },
            {
              "internalType": "uint256",
              "name": "stablecoinCap",
              "type": "uint256"
            }
          ],
          "internalType": "struct Collateral",
          "name": "",
          "type": "tuple"
        }
      ],
      "stateMutability": "view",
      "type": "function"
    },
    {
      "inputs": [],
      "name": "getCollateralList",
      "outputs": [
        {
          "internalType": "address[]",
          "name": "",
          "type": "address[]"
        }
      ],
      "stateMutability": "view",
      "type": "function"
    },
    {
      "inputs": [
        {
          "internalType": "address",
          "name": "collateral",
          "type": "address"
        }
      ],
      "name": "getCollateralMintFees",
      "outputs": [
        {
          "internalType": "uint64[]",
          "name": "xFeeMint",
          "type": "uint64[]"
        },
        {
          "internalType": "int64[]",
          "name": "yFeeMint",
          "type": "int64[]"
        }
      ],
      "stateMutability": "view",
      "type": "function"
    },
    {
      "inputs": [],
      "name": "getCollateralRatio",
      "outputs": [
        {
          "internalType": "uint64",
          "name": "collatRatio",
          "type": "uint64"
        },
        {
          "internalType": "uint256",
          "name": "stablecoinsIssued",
          "type": "uint256"
        }
      ],
      "stateMutability": "view",
      "type": "function"
    },
    {
      "inputs": [
        {
          "internalType": "address",
          "name": "collateral",
          "type": "address"
        }
      ],
      "name": "getCollateralWhitelistData",
      "outputs": [
        {
          "internalType": "bytes",
          "name": "",
          "type": "bytes"
        }
      ],
      "stateMutability": "view",
      "type": "function"
    },
    {
      "inputs": [
        {
          "internalType": "address",
          "name": "collateral",
          "type": "address"
        }
      ],
      "name": "getIssuedByCollateral",
      "outputs": [
        {
          "internalType": "uint256",
          "name": "stablecoinsFromCollateral",
          "type": "uint256"
        },
        {
          "internalType": "uint256",
          "name": "stablecoinsIssued",
          "type": "uint256"
        }
      ],
      "stateMutability": "view",
      "type": "function"
    },
    {
      "inputs": [
        {
          "internalType": "address",
          "name": "collateral",
          "type": "address"
        }
      ],
      "name": "getManagerData",
      "outputs": [
        {
          "internalType": "bool",
          "name": "",
          "type": "bool"
        },
        {
          "internalType": "contract IERC20[]",
          "name": "",
          "type": "address[]"
        },
        {
          "internalType": "bytes",
          "name": "",
          "type": "bytes"
        }
      ],
      "stateMutability": "view",
      "type": "function"
    },
    {
      "inputs": [
        {
          "internalType": "address",
          "name": "collateral",
          "type": "address"
        }
      ],
      "name": "getOracle",
      "outputs": [
        {
          "internalType": "enum OracleReadType",
          "name": "oracleType",
          "type": "uint8"
        },
        {
          "internalType": "enum OracleReadType",
          "name": "targetType",
          "type": "uint8"
        },
        {
          "internalType": "bytes",
          "name": "oracleData",
          "type": "bytes"
        },
        {
          "internalType": "bytes",
          "name": "targetData",
          "type": "bytes"
        },
        {
          "internalType": "bytes",
          "name": "hyperparameters",
          "type": "bytes"
        }
      ],
      "stateMutability": "view",
      "type": "function"
    },
    {
      "inputs": [
        {
          "internalType": "address",
          "name": "collateral",
          "type": "address"
        }
      ],
      "name": "getOracleValues",
      "outputs": [
        {
          "internalType": "uint256",
          "name": "mint",
          "type": "uint256"
        },
        {
          "internalType": "uint256",
          "name": "burn",
          "type": "uint256"
        },
        {
          "internalType": "uint256",
          "name": "ratio",
          "type": "uint256"
        },
        {
          "internalType": "uint256",
          "name": "minRatio",
          "type": "uint256"
        },
        {
          "internalType": "uint256",
          "name": "redemption",
          "type": "uint256"
        }
      ],
      "stateMutability": "view",
      "type": "function"
    },
    {
      "inputs": [],
      "name": "getRedemptionFees",
      "outputs": [
        {
          "internalType": "uint64[]",
          "name": "xRedemptionCurve",
          "type": "uint64[]"
        },
        {
          "internalType": "int64[]",
          "name": "yRedemptionCurve",
          "type": "int64[]"
        }
      ],
      "stateMutability": "view",
      "type": "function"
    },
    {
      "inputs": [
        {
          "internalType": "address",
          "name": "collateral",
          "type": "address"
        }
      ],
      "name": "getStablecoinCap",
      "outputs": [
        {
          "internalType": "uint256",
          "name": "",
          "type": "uint256"
        }
      ],
      "stateMutability": "view",
      "type": "function"
    },
    {
      "inputs": [],
      "name": "getTotalIssued",
      "outputs": [
        {
          "internalType": "uint256",
          "name": "",
          "type": "uint256"
        }
      ],
      "stateMutability": "view",
      "type": "function"
    },
    {
      "inputs": [],
      "name": "isConsumingScheduledOp",
      "outputs": [
        {
          "internalType": "bytes4",
          "name": "",
          "type": "bytes4"
        }
      ],
      "stateMutability": "view",
      "type": "function"
    },
    {
      "inputs": [
        {
          "internalType": "address",
          "name": "collateral",
          "type": "address"
        },
        {
          "internalType": "enum ActionType",
          "name": "action",
          "type": "uint8"
        }
      ],
      "name": "isPaused",
      "outputs": [
        {
          "internalType": "bool",
          "name": "",
          "type": "bool"
        }
      ],
      "stateMutability": "view",
      "type": "function"
    },
    {
      "inputs": [
        {
          "internalType": "address",
          "name": "sender",
          "type": "address"
        }
      ],
      "name": "isTrusted",
      "outputs": [
        {
          "internalType": "bool",
          "name": "",
          "type": "bool"
        }
      ],
      "stateMutability": "view",
      "type": "function"
    },
    {
      "inputs": [
        {
          "internalType": "address",
          "name": "sender",
          "type": "address"
        }
      ],
      "name": "isTrustedSeller",
      "outputs": [
        {
          "internalType": "bool",
          "name": "",
          "type": "bool"
        }
      ],
      "stateMutability": "view",
      "type": "function"
    },
    {
      "inputs": [
        {
          "internalType": "bytes4",
          "name": "selector",
          "type": "bytes4"
        }
      ],
      "name": "isValidSelector",
      "outputs": [
        {
          "internalType": "bool",
          "name": "",
          "type": "bool"
        }
      ],
      "stateMutability": "view",
      "type": "function"
    },
    {
      "inputs": [
        {
          "internalType": "address",
          "name": "collateral",
          "type": "address"
        }
      ],
      "name": "isWhitelistedCollateral",
      "outputs": [
        {
          "internalType": "bool",
          "name": "",
          "type": "bool"
        }
      ],
      "stateMutability": "view",
      "type": "function"
    },
    {
      "inputs": [
        {
          "internalType": "address",
          "name": "collateral",
          "type": "address"
        },
        {
          "internalType": "address",
          "name": "sender",
          "type": "address"
        }
      ],
      "name": "isWhitelistedForCollateral",
      "outputs": [
        {
          "internalType": "bool",
          "name": "",
          "type": "bool"
        }
      ],
      "stateMutability": "nonpayable",
      "type": "function"
    },
    {
      "inputs": [
        {
          "internalType": "enum WhitelistType",
          "name": "whitelistType",
          "type": "uint8"
        },
        {
          "internalType": "address",
          "name": "sender",
          "type": "address"
        }
      ],
      "name": "isWhitelistedForType",
      "outputs": [
        {
          "internalType": "bool",
          "name": "",
          "type": "bool"
        }
      ],
      "stateMutability": "view",
      "type": "function"
    },
    {
      "inputs": [],
      "name": "tokenP",
      "outputs": [
        {
          "internalType": "contract ITokenP",
          "name": "",
          "type": "address"
        }
      ],
      "stateMutability": "view",
      "type": "function"
    }
  ],
  "contractName": "Getters",
  "sourceName": "contracts/monetizer/facets/Getters.sol",
  "bytecode": "0x6080604052348015600e575f5ffd5b50613d6c8061001c5f395ff3fe608060405234801561000f575f5ffd5b506004361061018f575f3560e01c806394e35d9e116100dd578063b85780bc11610088578063f9839d8911610063578063f9839d8914610538578063fdcb60681461058d578063fe7d0c54146105bd575f5ffd5b8063b85780bc1461049a578063cd377c53146104ad578063eb7aac5f146104d5575f5ffd5b8063a52aefd4116100b8578063a52aefd41461046a578063adc9d1f71461047d578063b718136114610485575f5ffd5b806394e35d9e146103e557806396d648791461040d57806399eeca4914610457575f5ffd5b80634ea3e3431161013d578063847da7be11610118578063847da7be146103835780638db9653f146103a45780638fb36037146103ac575f5ffd5b80634ea3e343146102d657806377dc3429146102f8578063782513bd14610363575f5ffd5b806331da6b131161016d57806331da6b1314610223578063333522101461027b57806338c269eb1461029b575f5ffd5b80630d1266271461019357806310d3d22e146101bb5780631978a5ed146101df575b5f5ffd5b6101a66101a1366004612f84565b610607565b60405190151581526020015b60405180910390f35b6101ce6101c9366004612fbe565b61073c565b6040516101b295949392919061306d565b7f4b2dd303f68b99d244b702089c802b6e9ea1b5d4ef61fd436d6c41abb1178c75546001600160a01b03165b6040516001600160a01b0390911681526020016101b2565b61026d610231366004612fbe565b6001600160a01b03165f9081527f4b2dd303f68b99d244b702089c802b6e9ea1b5d4ef61fd436d6c41abb1178c7a602052604090206009015490565b6040519081526020016101b2565b61028e610289366004612fbe565b61075e565b6040516101b2919061319c565b6102ae6102a9366004612fbe565b610c46565b604080519586526020860194909452928401919091526060830152608082015260a0016101b2565b6102e96102e4366004612fbe565b610d54565b6040516101b29392919061330e565b6101a6610306366004613344565b7fffffffff00000000000000000000000000000000000000000000000000000000165f9081527fc8fcad8db84d3cc18b4c41d551ea0ee66dd599cde068d998e57d5e09332c131c60205260409020546001600160a01b0316151590565b610376610371366004612fbe565b610eb6565b6040516101b29190613383565b610396610391366004612fbe565b610f81565b6040516101b2929190613395565b61026d6110bf565b6103b4611155565b6040517fffffffff0000000000000000000000000000000000000000000000000000000090911681526020016101b2565b6103f86103f3366004612fbe565b6111c3565b604080519283526020830191909152016101b2565b6101a661041b366004612fbe565b6001600160a01b03165f9081527f4b2dd303f68b99d244b702089c802b6e9ea1b5d4ef61fd436d6c41abb1178c7b602052604090205460011490565b6101a661046536600461342e565b6112f7565b6101a661047836600461345a565b611370565b610396611456565b61048d6115bd565b6040516101b29190613476565b6103966104a8366004612fbe565b61163f565b6104b5611735565b6040805167ffffffffffffffff90931683526020830191909152016101b2565b6105266104e3366004612fbe565b6001600160a01b03165f9081527f4b2dd303f68b99d244b702089c802b6e9ea1b5d4ef61fd436d6c41abb1178c7a60205260409020546301000000900460ff1690565b60405160ff90911681526020016101b2565b6101a6610546366004612fbe565b6001600160a01b03165f9081527f4b2dd303f68b99d244b702089c802b6e9ea1b5d4ef61fd436d6c41abb1178c7a6020526040902054640100000000900460ff1660011490565b7fc8fcad8db84d3cc18b4c41d551ea0ee66dd599cde068d998e57d5e09332c131d546001600160a01b031661020b565b6101a66105cb366004612fbe565b6001600160a01b03165f9081527f4b2dd303f68b99d244b702089c802b6e9ea1b5d4ef61fd436d6c41abb1178c7c602052604090205460011490565b5f8082600281111561061b5761061b612fd9565b14806106385750600182600281111561063657610636612fd9565b145b156106f5576001600160a01b0383165f9081527f4b2dd303f68b99d244b702089c802b6e9ea1b5d4ef61fd436d6c41abb1178c7a6020526040812080549091630100000090910460ff1690036106ba576040517f373f15fc00000000000000000000000000000000000000000000000000000000815260040160405180910390fd5b5f8360028111156106cd576106cd612fd9565b036106e35754610100900460ff16159050610736565b5462010000900460ff16159050610736565b7f4b2dd303f68b99d244b702089c802b6e9ea1b5d4ef61fd436d6c41abb1178c755474010000000000000000000000000000000000000000900460ff161590505b92915050565b5f5f606080606061074c866117e7565b939a9299509097509550909350915050565b610766612ebe565b6001600160a01b0382165f9081527f4b2dd303f68b99d244b702089c802b6e9ea1b5d4ef61fd436d6c41abb1178c7a602090815260409182902082516101c081018452815460ff80821683526101008204811683860152620100008204811683870152630100000082048116606084015264010000000082041660808301526501000000000090047affffffffffffffffffffffffffffffffffffffffffffffffffffff1660a08201526001820180548551818602810186019096528086529194929360c0860193929083018282801561089057602002820191905f5260205f20905f905b82829054906101000a900467ffffffffffffffff1667ffffffffffffffff168152602001906008019060208260070104928301926001038202915080841161084b5790505b505050505081526020016002820180548060200260200160405190810160405280929190818152602001828054801561090857602002820191905f5260205f20905f905b825461010083900a900460070b81526020600f83018190049384019360010360089093019290920291018084116108d45790505b505050505081526020016003820180548060200260200160405190810160405280929190818152602001828054801561099157602002820191905f5260205f20905f905b82829054906101000a900467ffffffffffffffff1667ffffffffffffffff168152602001906008019060208260070104928301926001038202915080841161094c5790505b5050505050815260200160048201805480602002602001604051908101604052809291908181526020018280548015610a0957602002820191905f5260205f20905f905b825461010083900a900460070b81526020600f83018190049384019360010360089093019290920291018084116109d55790505b50505050508152602001600582018054610a22906134c1565b80601f0160208091040260200160405190810160405280929190818152602001828054610a4e906134c1565b8015610a995780601f10610a7057610100808354040283529160200191610a99565b820191905f5260205f20905b815481529060010190602001808311610a7c57829003601f168201915b50505050508152602001600682018054610ab2906134c1565b80601f0160208091040260200160405190810160405280929190818152602001828054610ade906134c1565b8015610b295780601f10610b0057610100808354040283529160200191610b29565b820191905f5260205f20905b815481529060010190602001808311610b0c57829003601f168201915b50505050508152602001600782016040518060400160405290815f8201805480602002602001604051908101604052809291908181526020018280548015610b9857602002820191905f5260205f20905b81546001600160a01b03168152600190910190602001808311610b7a575b50505050508152602001600182018054610bb1906134c1565b80601f0160208091040260200160405190810160405280929190818152602001828054610bdd906134c1565b8015610c285780601f10610bff57610100808354040283529160200191610c28565b820191905f5260205f20905b815481529060010190602001808311610c0b57829003601f168201915b50505050508152505081526020016009820154815250509050919050565b5f80808080807f4b2dd303f68b99d244b702089c802b6e9ea1b5d4ef61fd436d6c41abb1178c756001600160a01b0388165f908152600591820160205260409020018054610c93906134c1565b80601f0160208091040260200160405190810160405280929190818152602001828054610cbf906134c1565b8015610d0a5780601f10610ce157610100808354040283529160200191610d0a565b820191905f5260205f20905b815481529060010190602001808311610ced57829003601f168201915b50505050509050610d1a816118b8565b9095509350610d298782611a37565b509250610d3581611c32565b858585610d4185611d3e565b939b929a50909850965090945092505050565b6001600160a01b0381165f9081527f4b2dd303f68b99d244b702089c802b6e9ea1b5d4ef61fd436d6c41abb1178c7a602052604081208054606091829160ff1615610e925760078101805460408051602080840282018101909252828152600193926008860192849190830182828015610df557602002820191905f5260205f20905b81546001600160a01b03168152600190910190602001808311610dd7575b50505050509150808054610e08906134c1565b80601f0160208091040260200160405190810160405280929190818152602001828054610e34906134c1565b8015610e7f5780601f10610e5657610100808354040283529160200191610e7f565b820191905f5260205f20905b815481529060010190602001808311610e6257829003601f168201915b5050505050905093509350935050610eaf565b5050604080515f8082528183019092526020810182815291935091505b9193909250565b6001600160a01b0381165f9081527f4b2dd303f68b99d244b702089c802b6e9ea1b5d4ef61fd436d6c41abb1178c7a60205260409020600601805460609190610efe906134c1565b80601f0160208091040260200160405190810160405280929190818152602001828054610f2a906134c1565b8015610f755780601f10610f4c57610100808354040283529160200191610f75565b820191905f5260205f20905b815481529060010190602001808311610f5857829003601f168201915b50505050509050919050565b6001600160a01b0381165f9081527f4b2dd303f68b99d244b702089c802b6e9ea1b5d4ef61fd436d6c41abb1178c7a602090815260409182902060038101805484518185028101850190955280855260609485946004850192849183018282801561103c57602002820191905f5260205f20905f905b82829054906101000a900467ffffffffffffffff1667ffffffffffffffff1681526020019060080190602082600701049283019260010382029150808411610ff75790505b50505050509150808054806020026020016040519081016040528092919081815260200182805480156110ae57602002820191905f5260205f20905f905b825461010083900a900460070b81526020600f830181900493840193600103600890930192909202910180841161107a5790505b505050505090509250925050915091565b7f4b2dd303f68b99d244b702089c802b6e9ea1b5d4ef61fd436d6c41abb1178c76545f907f4b2dd303f68b99d244b702089c802b6e9ea1b5d4ef61fd436d6c41abb1178c75906b033b2e3c9fd0803ce800000090611145906fffffffffffffffffffffffffffffffff70010000000000000000000000000000000082048116911661356c565b61114f91906135b0565b91505090565b5f7f4b2dd303f68b99d244b702089c802b6e9ea1b5d4ef61fd436d6c41abb1178c7554760100000000000000000000000000000000000000000000900460ff1661119e57505f90565b507f8fb360370000000000000000000000000000000000000000000000000000000090565b7f4b2dd303f68b99d244b702089c802b6e9ea1b5d4ef61fd436d6c41abb1178c76546001600160a01b0382165f9081527f4b2dd303f68b99d244b702089c802b6e9ea1b5d4ef61fd436d6c41abb1178c7a6020526040812054909182917f4b2dd303f68b99d244b702089c802b6e9ea1b5d4ef61fd436d6c41abb1178c759170010000000000000000000000000000000090046fffffffffffffffffffffffffffffffff16906b033b2e3c9fd0803ce8000000906112a89083906501000000000090047affffffffffffffffffffffffffffffffffffffffffffffffffffff1661356c565b6112b291906135b0565b60018301546b033b2e3c9fd0803ce8000000906112e29084906fffffffffffffffffffffffffffffffff1661356c565b6112ec91906135b0565b935093505050915091565b5f807f4b2dd303f68b99d244b702089c802b6e9ea1b5d4ef61fd436d6c41abb1178c7d8185801561132a5761132a612fd9565b801561133857611338612fd9565b81526020019081526020015f205f846001600160a01b03166001600160a01b031681526020019081526020015f205411905092915050565b6001600160a01b0382165f9081527f4b2dd303f68b99d244b702089c802b6e9ea1b5d4ef61fd436d6c41abb1178c7a602052604081208054640100000000900460ff16158061144e575061144e8160060180546113cc906134c1565b80601f01602080910402602001604051908101604052809291908181526020018280546113f8906134c1565b80156114435780601f1061141a57610100808354040283529160200191611443565b820191905f5260205f20905b81548152906001019060200180831161142657829003601f168201915b505050505084611e0a565b949350505050565b7f4b2dd303f68b99d244b702089c802b6e9ea1b5d4ef61fd436d6c41abb1178c7880546040805160208084028201810190925282815260609384937f4b2dd303f68b99d244b702089c802b6e9ea1b5d4ef61fd436d6c41abb1178c759391927f4b2dd303f68b99d244b702089c802b6e9ea1b5d4ef61fd436d6c41abb1178c79929091849183018282801561153b57602002820191905f5260205f20905f905b82829054906101000a900467ffffffffffffffff1667ffffffffffffffff16815260200190600801906020826007010492830192600103820291508084116114f65790505b50505050509150808054806020026020016040519081016040528092919081815260200182805480156115ad57602002820191905f5260205f20905f905b825461010083900a900460070b81526020600f83018190049384019360010360089093019290920291018084116115795790505b5050505050905092509250509091565b60607f4b2dd303f68b99d244b702089c802b6e9ea1b5d4ef61fd436d6c41abb1178c7560020180548060200260200160405190810160405280929190818152602001828054801561163557602002820191905f5260205f20905b81546001600160a01b03168152600190910190602001808311611617575b5050505050905090565b6001600160a01b0381165f9081527f4b2dd303f68b99d244b702089c802b6e9ea1b5d4ef61fd436d6c41abb1178c7a602090815260409182902060018101805484518185028101850190955280855260609485946002850192849183018282801561103c575f918252602091829020805467ffffffffffffffff168452908202830192909160089101808411610ff757905050505050509150808054806020026020016040519081016040528092919081815260200182805480156110ae575f918252602091829020805460070b845290820283019290916008910180841161107a579050505050505090509250925050915091565b7f4b2dd303f68b99d244b702089c802b6e9ea1b5d4ef61fd436d6c41abb1178c7580545f91829160ff7501000000000000000000000000000000000000000000909104167ffffffffffffffffffffffffffffffffffffffffffffffffffffffffffffffffe016117d1576040517f37ed32e800000000000000000000000000000000000000000000000000000000815260040160405180910390fd5b6117d9611f8e565b509296919550909350505050565b5f806060808061074c7f4b2dd303f68b99d244b702089c802b6e9ea1b5d4ef61fd436d6c41abb1178c756001600160a01b0388165f908152600591820160205260409020018054611837906134c1565b80601f0160208091040260200160405190810160405280929190818152602001828054611863906134c1565b80156118ae5780601f10611885576101008083540402835291602001916118ae565b820191905f5260205f20905b81548152906001019060200180831161189157829003601f168201915b50505050506125fd565b5f5f5f5f5f5f5f6118c8886125fd565b93985091965094509250905060018560098111156118e8576118e8612fd9565b03611972575f8380602001905181019061190291906135c3565b9050806001600160a01b0316634cb44a766040518163ffffffff1660e01b81526004016040805180830381865afa15801561193f573d5f5f3e3d5ffd5b505050506040513d601f19601f8201168201806040525081019061196391906135de565b97509750505050505050915091565b5f5f828060200190518101906119889190613624565b915091505f6119ac88888888876fffffffffffffffffffffffffffffffff16612618565b909a50670de0b6b3a7640000995090506119d86fffffffffffffffffffffffffffffffff83168a613655565b6119e2908261356c565b6119f4670de0b6b3a76400008c61356c565b1015611a1e5780611a0d670de0b6b3a76400008c61356c565b611a1791906135b0565b9850611a2a565b808a1015611a2a578099505b5050505050505050915091565b7f4b2dd303f68b99d244b702089c802b6e9ea1b5d4ef61fd436d6c41abb1178c77805460408051602080840282018101909252828152670de0b6b3a7640000935f937f4b2dd303f68b99d244b702089c802b6e9ea1b5d4ef61fd436d6c41abb1178c75938593929190830182828015611ad757602002820191905f5260205f20905b81546001600160a01b03168152600190910190602001808311611ab9575b505083519394505f925050505b81811015611c27575f670de0b6b3a76400009050886001600160a01b0316848381518110611b1457611b14613668565b60200260200101516001600160a01b031614611c0357611bfa856005015f868581518110611b4457611b44613668565b60200260200101516001600160a01b03166001600160a01b031681526020019081526020015f206005018054611b79906134c1565b80601f0160208091040260200160405190810160405280929190818152602001828054611ba5906134c1565b8015611bf05780601f10611bc757610100808354040283529160200191611bf0565b820191905f5260205f20905b815481529060010190602001808311611bd357829003601f168201915b50505050506118b8565b9150611c129050565b611c0c886118b8565b90965090505b86811015611c1e578096505b50600101611ae4565b505050509250929050565b5f5f5f5f5f5f611c41876125fd565b9398509196509450925090506001856009811115611c6157611c61612fd9565b03611ce9575f83806020019051810190611c7b91906135c3565b9050806001600160a01b0316635ade93556040518163ffffffff1660e01b8152600401602060405180830381865afa158015611cb9573d5f5f3e3d5ffd5b505050506040513d601f19601f82011682018060405250810190611cdd9190613695565b98975050505050505050565b5f81806020019051810190611cfe9190613624565b5090505f611d2187878787866fffffffffffffffffffffffffffffffff16612618565b909850905087811015611d32578097505b50505050505050919050565b5f5f5f5f5f611d4c866125fd565b50929650909450925090506001846009811115611d6b57611d6b612fd9565b03611df2575f82806020019051810190611d8591906135c3565b9050806001600160a01b0316636256f2c56040518163ffffffff1660e01b8152600401602060405180830381865afa158015611dc3573d5f5f3e3d5ffd5b505050506040513d601f19601f82011682018060405250810190611de79190613695565b979650505050505050565b611dff848484845f612618565b509695505050505050565b5f5f5f84806020019051810190611e219190613749565b915091505f611e4d7f4b2dd303f68b99d244b702089c802b6e9ea1b5d4ef61fd436d6c41abb1178c7590565b6008015f848015611e6057611e60612fd9565b8015611e6e57611e6e612fd9565b81526020019081526020015f205f866001600160a01b03166001600160a01b031681526020019081526020015f20541115611eae57600192505050610736565b805115611f84575f828015611ec557611ec5612fd9565b03611f84575f81806020019051810190611edf91906135c3565b90506001600160a01b03811615611f82576040517f65e4ad9e0000000000000000000000000000000000000000000000000000000081523060048201526001600160a01b0386811660248301528216906365e4ad9e906044016020604051808303815f875af1158015611f54573d5f5f3e3d5ffd5b505050506040513d601f19601f82011682018060405250810190611f789190613797565b9350505050610736565b505b505f949350505050565b5f8060608080837f4b2dd303f68b99d244b702089c802b6e9ea1b5d4ef61fd436d6c41abb1178c7590505f5f8260020180548060200260200160405190810160405280929190818152602001828054801561201057602002820191905f5260205f20905b81546001600160a01b03168152600190910190602001808311611ff2575b505050505090505f815190505f8167ffffffffffffffff81111561203657612036613512565b60405190808252806020026020018201604052801561205f578160200160208202803683370190505b5095505f5b8281101561213157856005015f85838151811061208357612083613668565b6020908102919091018101516001600160a01b031682528101919091526040015f9081205460ff1690036120c1576120ba826137b6565b915061210b565b856005015f8583815181106120d8576120d8613668565b6020908102919091018101516001600160a01b031682528101919091526040015f206007015461210890836137ce565b91505b8187828151811061211e5761211e613668565b6020908102919091010152600101612064565b508067ffffffffffffffff81111561214b5761214b613512565b604051908082528060200260200182016040528015612174578160200160208202803683370190505b5096508067ffffffffffffffff81111561219057612190613512565b6040519080825280602002602001820160405280156121b9578160200160208202803683370190505b5097505f5f5b83811015612573575f876005015f8784815181106121df576121df613668565b6020908102919091018101516001600160a01b031682528101919091526040015f908120805490925060ff161561237d5760606122a8836007016001018054612227906134c1565b80601f0160208091040260200160405190810160405280929190818152602001828054612253906134c1565b801561229e5780601f106122755761010080835404028352916020019161229e565b820191905f5260205f20905b81548152906001019060200180831161228157829003601f168201915b50505050506126b5565b81519093509091505f5b8181101561236957600785018054829081106122d0576122d0613668565b5f918252602090912001546001600160a01b03168f6122ef838a6137ce565b815181106122ff576122ff613668565b60200260200101906001600160a01b031690816001600160a01b03168152505082818151811061233157612331613668565b60200260200101518e828961234691906137ce565b8151811061235657612356613668565b60209081029190910101526001016122b2565b5061237481876137ce565b9550505061248b565b86838151811061238f5761238f613668565b60209081029190910101516040517f70a082310000000000000000000000000000000000000000000000000000000081523060048201526001600160a01b03909116906370a0823190602401602060405180830381865afa1580156123f6573d5f5f3e3d5ffd5b505050506040513d601f19601f8201168201806040525081019061241a9190613695565b905086838151811061242e5761242e613668565b60200260200101518c858151811061244857612448613668565b6001600160a01b0390921660209283029190910190910152808b8561246c816137b6565b96508151811061247e5761247e613668565b6020026020010181815250505b5f61251f83600501805461249e906134c1565b80601f01602080910402602001604051908101604052809291908181526020018280546124ca906134c1565b80156125155780601f106124ec57610100808354040283529160200191612515565b820191905f5260205f20905b8154815290600101906020018083116124f857829003601f168201915b5050505050611d3e565b8354909150670de0b6b3a7640000906125459084906301000000900460ff166012612759565b61254f908361356c565b61255991906135b0565b612563908a6137ce565b98505050508060010190506121bf565b50506001808601546125bd916fffffffffffffffffffffffffffffffff80831692700100000000000000000000000000000000900416906b033b2e3c9fd0803ce8000000906127c5565b985088156125e5576125de6125d985633b9aca008c60016127c5565b612810565b99506125f1565b67ffffffffffffffff99505b50505050509091929394565b5f5f60608060608580602001905181019061074c91906137ef565b5f5f61262d86670de0b6b3a764000086612867565b905061263a878287612867565b915061264e670de0b6b3a76400008361356c565b61266084670de0b6b3a7640000613655565b61266a908361356c565b1080156126a2575061268483670de0b6b3a76400006137ce565b61268e908261356c565b6126a0670de0b6b3a76400008461356c565b105b156126ab578091505b9550959350505050565b60605f5f5f6126c385612c5e565b90925090505f8280156126d8576126d8612fd9565b0361275257808060200190518101906126f191906135c3565b6001600160a01b03166301e1d1146040518163ffffffff1660e01b81526004015f60405180830381865afa15801561272b573d5f5f3e3d5ffd5b505050506040513d5f823e601f3d908101601f191682016040526112ec91908101906138c1565b5050915091565b5f8160ff168360ff16111561278e576127728284613961565b61277d90600a613a5d565b61278790856135b0565b90506127be565b8160ff168360ff1610156127bb576127a68383613961565b6127b190600a613a5d565b612787908561356c565b50825b9392505050565b5f6127f26127d283612c7f565b80156127ed57505f84806127e8576127e8613583565b868809115b151590565b6127fd868686612cab565b61280791906137ce565b95945050505050565b5f67ffffffffffffffff82111561286357604080517f6dfcc65000000000000000000000000000000000000000000000000000000000815260048101919091526024810183905260440160405180910390fd5b5090565b5f8084600981111561287b5761287b612fd9565b0361294b575f5f5f5f5f868060200190518101906128999190613b58565b945094509450945094505f6128ae828a612d5b565b86519091505f5b8181101561293b57612931838983815181106128d3576128d3613668565b60200260200101518884815181106128ed576128ed613668565b602002602001015188858151811061290757612907613668565b602002602001015160ff168b868151811061292457612924613668565b6020026020010151612d8a565b92506001016128b5565b50819750505050505050506127be565b600384600981111561295f5761295f612fd9565b036129735750670de0b6b3a76400006127be565b600284600981111561298757612987612fd9565b036129935750816127be565b60048460098111156129a7576129a7612fd9565b03612a3e576040517f7a28fb88000000000000000000000000000000000000000000000000000000008152670de0b6b3a7640000600482015273ae7ab96520de3a18e5e111b5eaab095312d7fe8490637a28fb8890602401602060405180830381865afa158015612a1a573d5f5f3e3d5ffd5b505050506040513d601f19601f820116820180604052508101906127879190613695565b6005846009811115612a5257612a52612fd9565b03612aa75773be9895146f7af43049ca1c1ae358b0541ea497046001600160a01b0316633ba0b9a96040518163ffffffff1660e01b8152600401602060405180830381865afa158015612a1a573d5f5f3e3d5ffd5b6006846009811115612abb57612abb612fd9565b03612b105773ae78736cd615f374d3085123a210448e74fc63936001600160a01b031663e6aa216c6040518163ffffffff1660e01b8152600401602060405180830381865afa158015612a1a573d5f5f3e3d5ffd5b6007846009811115612b2457612b24612fd9565b03612b795773ac3e018457b222d93114458476f3e3416abbe38f6001600160a01b03166399530b066040518163ffffffff1660e01b8152600401602060405180830381865afa158015612a1a573d5f5f3e3d5ffd5b6008846009811115612b8d57612b8d612fd9565b03612bb0575f82806020019051810190612ba79190613695565b91506127be9050565b6009846009811115612bc457612bc4612fd9565b03612c57575f5f83806020019051810190612bdf9190613c83565b9150915080826001600160a01b031663a035b1fe6040518163ffffffff1660e01b8152600401602060405180830381865afa158015612c20573d5f5f3e3d5ffd5b505050506040513d601f19601f82011682018060405250810190612c449190613695565b612c4e91906135b0565b925050506127be565b50816127be565b5f606082806020019051810190612c759190613749565b9094909350915050565b5f6002826003811115612c9457612c94612fd9565b612c9e9190613caf565b60ff166001149050919050565b5f5f5f612cb88686612e91565b91509150815f03612cdc57838181612cd257612cd2613583565b04925050506127be565b818411612cf357612cf36003851502601118612ead565b5f848688095f868103871696879004966002600389028118808a02820302808a02820302808a02820302808a02820302808a02820302808a02909103029181900381900460010185841190960395909502919093039390930492909217029150509392505050565b5f80836001811115612d6f57612d6f612fd9565b03612d835750670de0b6b3a7640000610736565b5080610736565b5f5f5f866001600160a01b031663feaf968c6040518163ffffffff1660e01b815260040160a060405180830381865afa158015612dc9573d5f5f3e3d5ffd5b505050506040513d601f19601f82011682018060405250810190612ded9190613ce9565b509350509250505f82131580612e11575063ffffffff8416612e0f8242613655565b115b15612e48576040517fae19356300000000000000000000000000000000000000000000000000000000815260040160405180910390fd5b8560ff16600103612e7b57612e5e85600a613d2b565b612e68838a61356c565b612e7291906135b0565b92505050612807565b81612e8786600a613d2b565b612e68908a61356c565b5f805f1983850993909202808410938190039390930393915050565b634e487b715f52806020526024601cfd5b604051806101c001604052805f60ff1681526020015f60ff1681526020015f60ff1681526020015f60ff1681526020015f60ff1681526020015f7affffffffffffffffffffffffffffffffffffffffffffffffffffff168152602001606081526020016060815260200160608152602001606081526020016060815260200160608152602001612f61604051806040016040528060608152602001606081525090565b81526020015f81525090565b6001600160a01b0381168114612f81575f5ffd5b50565b5f5f60408385031215612f95575f5ffd5b8235612fa081612f6d565b9150602083013560038110612fb3575f5ffd5b809150509250929050565b5f60208284031215612fce575f5ffd5b81356127be81612f6d565b7f4e487b71000000000000000000000000000000000000000000000000000000005f52602160045260245ffd5b600a811061303b577f4e487b71000000000000000000000000000000000000000000000000000000005f52602160045260245ffd5b9052565b5f81518084528060208401602086015e5f602082860101526020601f19601f83011685010191505092915050565b6130778187613006565b6130846020820186613006565b60a060408201525f61309960a083018661303f565b82810360608401526130ab818661303f565b90508281036080840152611cdd818561303f565b5f8151808452602084019350602083015f5b828110156130f957815167ffffffffffffffff168652602095860195909101906001016130d1565b5093949350505050565b5f8151808452602084019350602083015f5b828110156130f957815160070b865260209586019590910190600101613115565b5f8151808452602084019350602083015f5b828110156130f95781516001600160a01b0316865260209586019590910190600101613148565b5f8151604084526131836040850182613136565b905060208301518482036020860152612807828261303f565b602081526131b060208201835160ff169052565b5f60208301516131c5604084018260ff169052565b50604083015160ff8116606084015250606083015160ff8116608084015250608083015160ff811660a08401525060a08301517affffffffffffffffffffffffffffffffffffffffffffffffffffff811660c08401525060c08301516101c060e08401526132376101e08401826130bf565b905060e0840151601f19848303016101008501526132558282613103565b915050610100840151601f198483030161012085015261327582826130bf565b915050610120840151601f19848303016101408501526132958282613103565b915050610140840151601f19848303016101608501526132b5828261303f565b915050610160840151601f19848303016101808501526132d5828261303f565b915050610180840151601f19848303016101a08501526132f5828261316f565b9150506101a08401516101c08401528091505092915050565b8315158152606060208201525f6133286060830185613136565b828103604084015261333a818561303f565b9695505050505050565b5f60208284031215613354575f5ffd5b81357fffffffff00000000000000000000000000000000000000000000000000000000811681146127be575f5ffd5b602081525f6127be602083018461303f565b604080825283519082018190525f9060208501906060840190835b818110156133d857835167ffffffffffffffff168352602093840193909201916001016133b0565b5050838103602080860191909152855180835291810192508501905f5b8181101561341657825160070b8452602093840193909201916001016133f5565b50919695505050505050565b60018110612f81575f5ffd5b5f5f6040838503121561343f575f5ffd5b823561344a81613422565b91506020830135612fb381612f6d565b5f5f6040838503121561346b575f5ffd5b823561344a81612f6d565b602080825282518282018190525f918401906040840190835b818110156134b65783516001600160a01b031683526020938401939092019160010161348f565b509095945050505050565b600181811c908216806134d557607f821691505b60208210810361350c577f4e487b71000000000000000000000000000000000000000000000000000000005f52602260045260245ffd5b50919050565b7f4e487b71000000000000000000000000000000000000000000000000000000005f52604160045260245ffd5b7f4e487b71000000000000000000000000000000000000000000000000000000005f52601160045260245ffd5b80820281158282048414176107365761073661353f565b7f4e487b71000000000000000000000000000000000000000000000000000000005f52601260045260245ffd5b5f826135be576135be613583565b500490565b5f602082840312156135d3575f5ffd5b81516127be81612f6d565b5f5f604083850312156135ef575f5ffd5b505080516020909101519092909150565b80516fffffffffffffffffffffffffffffffff8116811461361f575f5ffd5b919050565b5f5f60408385031215613635575f5ffd5b61363e83613600565b915061364c60208401613600565b90509250929050565b818103818111156107365761073661353f565b7f4e487b71000000000000000000000000000000000000000000000000000000005f52603260045260245ffd5b5f602082840312156136a5575f5ffd5b5051919050565b604051601f8201601f1916810167ffffffffffffffff811182821017156136d5576136d5613512565b604052919050565b5f82601f8301126136ec575f5ffd5b815167ffffffffffffffff81111561370657613706613512565b6137196020601f19601f840116016136ac565b81815284602083860101111561372d575f5ffd5b8160208501602083015e5f918101602001919091529392505050565b5f5f6040838503121561375a575f5ffd5b825161376581613422565b602084015190925067ffffffffffffffff811115613781575f5ffd5b61378d858286016136dd565b9150509250929050565b5f602082840312156137a7575f5ffd5b815180151581146127be575f5ffd5b5f5f1982036137c7576137c761353f565b5060010190565b808201808211156107365761073661353f565b8051600a811061361f575f5ffd5b5f5f5f5f5f60a08688031215613803575f5ffd5b61380c866137e1565b945061381a602087016137e1565b9350604086015167ffffffffffffffff811115613835575f5ffd5b613841888289016136dd565b935050606086015167ffffffffffffffff81111561385d575f5ffd5b613869888289016136dd565b925050608086015167ffffffffffffffff811115613885575f5ffd5b613891888289016136dd565b9150509295509295909350565b5f67ffffffffffffffff8211156138b7576138b7613512565b5060051b60200190565b5f5f604083850312156138d2575f5ffd5b825167ffffffffffffffff8111156138e8575f5ffd5b8301601f810185136138f8575f5ffd5b805161390b6139068261389e565b6136ac565b8082825260208201915060208360051b85010192508783111561392c575f5ffd5b6020840193505b8284101561394e578351825260209384019390910190613933565b6020969096015195979596505050505050565b60ff82811682821603908111156107365761073661353f565b6001815b60018411156139b5578085048111156139995761399961353f565b60018416156139a757908102905b60019390931c92800261397e565b935093915050565b5f826139cb57506001610736565b816139d757505f610736565b81600181146139ed57600281146139f757613a13565b6001915050610736565b60ff841115613a0857613a0861353f565b50506001821b610736565b5060208310610133831016604e8410600b8410161715613a36575081810a610736565b613a425f19848461397a565b805f1904821115613a5557613a5561353f565b029392505050565b5f6127be60ff8416836139bd565b5f82601f830112613a7a575f5ffd5b8151613a886139068261389e565b8082825260208201915060208360051b860101925085831115613aa9575f5ffd5b602085015b83811015613ad757805163ffffffff81168114613ac9575f5ffd5b835260209283019201613aae565b5095945050505050565b5f82601f830112613af0575f5ffd5b8151613afe6139068261389e565b8082825260208201915060208360051b860101925085831115613b1f575f5ffd5b602085015b83811015613ad757805160ff81168114613b3c575f5ffd5b835260209283019201613b24565b80516002811061361f575f5ffd5b5f5f5f5f5f60a08688031215613b6c575f5ffd5b855167ffffffffffffffff811115613b82575f5ffd5b8601601f81018813613b92575f5ffd5b8051613ba06139068261389e565b8082825260208201915060208360051b85010192508a831115613bc1575f5ffd5b6020840193505b82841015613bec578351613bdb81612f6d565b825260209384019390910190613bc8565b80985050505050602086015167ffffffffffffffff811115613c0c575f5ffd5b613c1888828901613a6b565b945050604086015167ffffffffffffffff811115613c34575f5ffd5b613c4088828901613ae1565b935050606086015167ffffffffffffffff811115613c5c575f5ffd5b613c6888828901613ae1565b925050613c7760808701613b4a565b90509295509295909350565b5f5f60408385031215613c94575f5ffd5b8251613c9f81612f6d565b6020939093015192949293505050565b5f60ff831680613cc157613cc1613583565b8060ff84160691505092915050565b805169ffffffffffffffffffff8116811461361f575f5ffd5b5f5f5f5f5f60a08688031215613cfd575f5ffd5b613d0686613cd0565b60208701516040880151606089015192975090955093509150613c7760808701613cd0565b5f6127be83836139bd56fea26469706673582212201df428d295d31a269fa1b7aadc9920f9fd84d668e74c48da16237c7d6f4a554264736f6c634300081c0033",
  "linkReferences": {},
  "deployedLinkReferences": {},
  "immutableReferences": {},
  "inputSourceName": "project/contracts/monetizer/facets/Getters.sol",
  "devdoc": {
    "author": "Cooper Labs",
    "custom:contact": "security@monet.cash",
    "details": "There may be duplicates in the info provided by the getters defined hereThis contract is an authorized fork of Angle's `Getters` contract https://github.com/AngleProtocol/angle-transmuter/blob/main/contracts/monetizer/facets/Getters.sol",
    "errors": {
      "SafeCastOverflowedUintDowncast(uint8,uint256)": [
        {
          "details": "Value doesn't fit in an uint of `bits` size."
        }
      ]
    },
    "kind": "dev",
    "methods": {
      "getCollateralRatio()": {
        "details": "This function may revert and overflow if the collateral ratio is too big due to a too small amount of `stablecoinsIssued`. Due to this, it is recommended to initialize the system with a non negligible amount of `stablecoinsIssued` so DoS attacks on redemptions which use this function become economically impossible"
      },
      "getOracle(address)": {
        "returns": {
          "oracleData": "Extra data needed to read the oracle. For Chainlink oracles, this data is supposed to give the addresses of the Chainlink feeds to read, the stale periods for each feed, ...",
          "oracleType": "Type of oracle (Chainlink, external smart contract, ...)",
          "targetData": "Extra data needed to read the target price of the asset",
          "targetType": "Type passed to read the value of the target price"
        }
      },
      "getOracleValues(address)": {
        "details": "This function is not optimized for gas consumption as for instance the `burn` value for collateral is computed twice: once in `readBurn` and once in `getBurnOracle`",
        "returns": {
          "burn": "Oracle value that will be used for `collateral` for a burn transaction. This value is then used along with oracle values for all other collateral assets to get a global burn value for the oracle",
          "minRatio": "Minimum ratio across all collateral assets between a collateral burn price and its target price. This value is independent of `collateral` and is used to normalize the burn oracle value for burn transactions.",
          "mint": "Oracle value to be used for a mint transaction with `collateral`",
          "ratio": "Ratio, in base `10**18` between the oracle value of the `collateral` and its target price. This value is 10**18 if the oracle is greater than the collateral price",
          "redemption": "Oracle value that would be used to price `collateral` when computing the collateral ratio during a redemption"
        }
      },
      "isConsumingScheduledOp()": {
        "details": "Returns true only in the context of a delayed restricted call, at the moment that the scheduled operation is being consumed. Prevents denial of service for delayed restricted calls in the case that the contract performs attacker controlled calls."
      },
      "isWhitelistedForCollateral(address,address)": {
        "details": "This function is non view as it may consult external non view functions from whitelist providers"
      },
      "isWhitelistedForType(uint8,address)": {
        "details": "Note that ultimately whitelisting may depend as well on external providers"
      }
    },
    "title": "Getters",
    "version": 1
  },
  "evm": {
    "gasEstimates": {
      "creation": {
        "codeDepositCost": "3144800",
        "executionCost": "3473",
        "totalCost": "3148273"
      },
      "external": {
        "accessManager()": "2396",
        "getCollateralBurnFees(address)": "infinite",
        "getCollateralDecimals(address)": "2643",
        "getCollateralInfo(address)": "infinite",
        "getCollateralList()": "infinite",
        "getCollateralMintFees(address)": "infinite",
        "getCollateralRatio()": "infinite",
        "getCollateralWhitelistData(address)": "infinite",
        "getIssuedByCollateral(address)": "infinite",
        "getManagerData(address)": "infinite",
        "getOracle(address)": "infinite",
        "getOracleValues(address)": "infinite",
        "getRedemptionFees()": "infinite",
        "getStablecoinCap(address)": "2580",
        "getTotalIssued()": "2570",
        "isConsumingScheduledOp()": "2442",
        "isPaused(address,uint8)": "4986",
        "isTrusted(address)": "2597",
        "isTrustedSeller(address)": "2617",
        "isValidSelector(bytes4)": "2562",
        "isWhitelistedCollateral(address)": "2590",
        "isWhitelistedForCollateral(address,address)": "infinite",
        "isWhitelistedForType(uint8,address)": "infinite",
        "tokenP()": "2410"
      }
    }
  },
  "storageLayout": {
    "storage": [],
    "types": null
  },
  "userdoc": {
    "kind": "user",
    "methods": {
      "accessManager()": {
        "notice": "Returns the address of the `accessManager` contract"
      },
      "getCollateralBurnFees(address)": {
        "notice": "Returns the `xFee` and `yFee` arrays from which fees are computed when coming to burn for `collateral`"
      },
      "getCollateralDecimals(address)": {
        "notice": "Returns the decimals of a given `collateral`"
      },
      "getCollateralInfo(address)": {
        "notice": "Returns all the info in storage associated to a `collateral`"
      },
      "getCollateralList()": {
        "notice": "Returns the list of collateral assets supported by the system"
      },
      "getCollateralMintFees(address)": {
        "notice": "Returns the `xFee` and `yFee` arrays from which fees are computed when coming to mint with `collateral`"
      },
      "getCollateralRatio()": {
        "notice": "Returns the collateral ratio of Monetizer in base `10**9` and a rounded version of the total amount of stablecoins issued"
      },
      "getCollateralWhitelistData(address)": {
        "notice": "Gets the data needed to deal with whitelists for `collateral`"
      },
      "getIssuedByCollateral(address)": {
        "notice": "Returns the amount of stablecoins issued from `collateral` and the total amount of stablecoins issued through Monetizer"
      },
      "getManagerData(address)": {
        "notice": "Returns if a collateral is \"managed\" and the associated manager configuration"
      },
      "getOracle(address)": {
        "notice": "Returns the data used to compute oracle values for `collateral`"
      },
      "getOracleValues(address)": {
        "notice": "Returns the oracle values associated to `collateral`"
      },
      "getRedemptionFees()": {
        "notice": "Returns the `xFee` and `yFee` arrays used to compute the penalty factor depending on the collateral ratio when users come to redeem"
      },
      "getStablecoinCap(address)": {
        "notice": "Returns the stablecoin cap for `collateral`"
      },
      "getTotalIssued()": {
        "notice": "Returns the total amount of stablecoins issued through Monetizer"
      },
      "isPaused(address,uint8)": {
        "notice": "Returns if the associated functionality is paused or not"
      },
      "isTrusted(address)": {
        "notice": "Returns if `sender` is trusted to update normalizers"
      },
      "isTrustedSeller(address)": {
        "notice": "Returns if `sender` is trusted to update sell rewards"
      },
      "isValidSelector(bytes4)": {
        "notice": "Checks whether a given `selector` is actually a valid selector corresponding to a function in one of the facets of the proxy"
      },
      "isWhitelistedCollateral(address)": {
        "notice": "Checks whether only whitelisted address can deal with `collateral` during burns and redemptions"
      },
      "isWhitelistedForCollateral(address,address)": {
        "notice": "Checks whether `sender` can deal with `collateral` during burns and redemptions"
      },
      "isWhitelistedForType(uint8,address)": {
        "notice": "Checks whether `sender` has a non null entry in the `isWhitelistedForType` storage mapping"
      },
      "tokenP()": {
        "notice": "Stablecoin minted by monetizer"
      }
    },
    "version": 1
  },
  "argsData": "0x",
  "transaction": {
    "hash": "0xffe29c8389fe5598bc5bf9ecacf662081bf062c7f3fadfe92586e6177ec2e63f",
    "nonce": "0x37",
    "origin": "0x10a852971d242a04829b541c32f09ad9ec1b227d"
  }
}