{
  "address": "0x1c9fda89dbe9843bbc4bc2ae1c074471ba227931",
  "abi": [
    {
      "inputs": [],
      "name": "InvalidChainlinkRate",
      "type": "error"
    },
    {
      "inputs": [],
      "name": "InvalidLengths",
      "type": "error"
    },
    {
      "inputs": [],
      "name": "NotTrusted",
      "type": "error"
    },
    {
      "inputs": [],
      "name": "NotWhitelisted",
      "type": "error"
    },
    {
      "inputs": [],
      "name": "Paused",
      "type": "error"
    },
    {
      "inputs": [],
      "name": "ReentrantCall",
      "type": "error"
    },
    {
      "inputs": [
        {
          "internalType": "uint8",
          "name": "bits",
          "type": "uint8"
        },
        {
          "internalType": "uint256",
          "name": "value",
          "type": "uint256"
        }
      ],
      "name": "SafeCastOverflowedUintDowncast",
      "type": "error"
    },
    {
      "inputs": [
        {
          "internalType": "address",
          "name": "token",
          "type": "address"
        }
      ],
      "name": "SafeERC20FailedOperation",
      "type": "error"
    },
    {
      "inputs": [],
      "name": "TooBigAmountIn",
      "type": "error"
    },
    {
      "inputs": [],
      "name": "TooLate",
      "type": "error"
    },
    {
      "inputs": [],
      "name": "TooSmallAmountOut",
      "type": "error"
    },
    {
      "anonymous": false,
      "inputs": [
        {
          "indexed": false,
          "internalType": "uint256",
          "name": "newNormalizerValue",
          "type": "uint256"
        }
      ],
      "name": "NormalizerUpdated",
      "type": "event"
    },
    {
      "anonymous": false,
      "inputs": [
        {
          "indexed": false,
          "internalType": "uint256",
          "name": "amount",
          "type": "uint256"
        },
        {
          "indexed": false,
          "internalType": "address[]",
          "name": "tokens",
          "type": "address[]"
        },
        {
          "indexed": false,
          "internalType": "uint256[]",
          "name": "amounts",
          "type": "uint256[]"
        },
        {
          "indexed": false,
          "internalType": "address[]",
          "name": "forfeitTokens",
          "type": "address[]"
        },
        {
          "indexed": true,
          "internalType": "address",
          "name": "from",
          "type": "address"
        },
        {
          "indexed": true,
          "internalType": "address",
          "name": "to",
          "type": "address"
        }
      ],
      "name": "Redeemed",
      "type": "event"
    },
    {
      "inputs": [
        {
          "internalType": "uint256",
          "name": "amount",
          "type": "uint256"
        }
      ],
      "name": "quoteRedemptionCurve",
      "outputs": [
        {
          "internalType": "address[]",
          "name": "tokens",
          "type": "address[]"
        },
        {
          "internalType": "uint256[]",
          "name": "amounts",
          "type": "uint256[]"
        }
      ],
      "stateMutability": "view",
      "type": "function"
    },
    {
      "inputs": [
        {
          "internalType": "uint256",
          "name": "amount",
          "type": "uint256"
        },
        {
          "internalType": "address",
          "name": "receiver",
          "type": "address"
        },
        {
          "internalType": "uint256",
          "name": "deadline",
          "type": "uint256"
        },
        {
          "internalType": "uint256[]",
          "name": "minAmountOuts",
          "type": "uint256[]"
        }
      ],
      "name": "redeem",
      "outputs": [
        {
          "internalType": "address[]",
          "name": "tokens",
          "type": "address[]"
        },
        {
          "internalType": "uint256[]",
          "name": "amounts",
          "type": "uint256[]"
        }
      ],
      "stateMutability": "nonpayable",
      "type": "function"
    },
    {
      "inputs": [
        {
          "internalType": "uint256",
          "name": "amount",
          "type": "uint256"
        },
        {
          "internalType": "address",
          "name": "receiver",
          "type": "address"
        },
        {
          "internalType": "uint256",
          "name": "deadline",
          "type": "uint256"
        },
        {
          "internalType": "uint256[]",
          "name": "minAmountOuts",
          "type": "uint256[]"
        },
        {
          "internalType": "address[]",
          "name": "forfeitTokens",
          "type": "address[]"
        }
      ],
      "name": "redeemWithForfeit",
      "outputs": [
        {
          "internalType": "address[]",
          "name": "tokens",
          "type": "address[]"
        },
        {
          "internalType": "uint256[]",
          "name": "amounts",
          "type": "uint256[]"
        }
      ],
      "stateMutability": "nonpayable",
      "type": "function"
    },
    {
      "inputs": [
        {
          "internalType": "uint256",
          "name": "amount",
          "type": "uint256"
        },
        {
          "internalType": "bool",
          "name": "increase",
          "type": "bool"
        }
      ],
      "name": "updateNormalizer",
      "outputs": [
        {
          "internalType": "uint256",
          "name": "",
          "type": "uint256"
        }
      ],
      "stateMutability": "nonpayable",
      "type": "function"
    }
  ],
  "contractName": "Redeemer",
  "sourceName": "contracts/monetizer/facets/Redeemer.sol",
  "bytecode": "0x6080604052348015600e575f5ffd5b5061389d8061001c5f395ff3fe608060405234801561000f575f5ffd5b506004361061004a575f3560e01c80632e7639bc1461004e578063815822c114610078578063d703a0cd1461008b578063fd7daaf81461009e575b5f5ffd5b61006161005c366004612bc3565b6100bf565b60405161006f929190612d2e565b60405180910390f35b610061610086366004612d52565b6100de565b610061610099366004612db1565b610125565b6100b16100ac366004612dd5565b61013c565b60405190815260200161006f565b6060806100cf87878787876101ca565b915091505b9550959350505050565b606080610118868686865f604051908082528060200260200182016040528015610112578160200160208202803683370190505b506101ca565b9150915094509492505050565b606080610131836108c7565b509094909350915050565b5f610148335f36610b87565b1580156101805750335f9081527f4b2dd303f68b99d244b702089c802b6e9ea1b5d4ef61fd436d6c41abb1178c7b6020526040902054155b156101b7576040517fc22a648e00000000000000000000000000000000000000000000000000000000815260040160405180910390fd5b6101c18383610d23565b90505b92915050565b7f4b2dd303f68b99d244b702089c802b6e9ea1b5d4ef61fd436d6c41abb1178c758054606091829160ff7501000000000000000000000000000000000000000000909104167ffffffffffffffffffffffffffffffffffffffffffffffffffffffffffffffffe01610267576040517f37ed32e800000000000000000000000000000000000000000000000000000000815260040160405180910390fd5b80547fffffffffffffffffffff00ffffffffffffffffffffffffffffffffffffffffff1675020000000000000000000000000000000000000000001781557f4b2dd303f68b99d244b702089c802b6e9ea1b5d4ef61fd436d6c41abb1178c75805474010000000000000000000000000000000000000000900460ff165f0361031b576040517f9e87fac800000000000000000000000000000000000000000000000000000000815260040160405180910390fd5b86421115610355576040517fecdd1c2900000000000000000000000000000000000000000000000000000000815260040160405180910390fd5b60606103608a6108c7565b81518a5193985091965092509081146103a5576040517f1df89e8b00000000000000000000000000000000000000000000000000000000815260040160405180910390fd5b6103af8b5f610d23565b5082546040517f2b471d8e000000000000000000000000000000000000000000000000000000008152600481018d905233602482015273ffffffffffffffffffffffffffffffffffffffff90911690632b471d8e906044015f604051808303815f87803b15801561041e575f5ffd5b505af1158015610430573d5f5f3e3d5ffd5b505050505f8360020180548060200260200160405190810160405280929190818152602001828054801561049857602002820191905f5260205f20905b815473ffffffffffffffffffffffffffffffffffffffff16815260019091019060200180831161046d575b505050505090505f5f5b8381101561080a578a81815181106104bc576104bc612e03565b60200260200101518882815181106104d6576104d6612e03565b60200260200101511015610516576040517fa1aabbe100000000000000000000000000000000000000000000000000000000815260040160405180910390fd5b5f88828151811061052957610529612e03565b602002602001015111801561055f57505f61055d8a838151811061054f5761054f612e03565b60200260200101518c6110b6565b125b156107ca575f866005015f85858151811061057c5761057c612e03565b60209081029190910181015173ffffffffffffffffffffffffffffffffffffffff1682528101919091526040015f208054909150640100000000900460ff161580159061065a57506106588160060180546105d690612e30565b80601f016020809104026020016040519081016040528092919081815260200182805461060290612e30565b801561064d5780601f106106245761010080835404028352916020019161064d565b820191905f5260205f20905b81548152906001019060200180831161063057829003601f168201915b50505050508f61112c565b155b15610691576040517f584a793800000000000000000000000000000000000000000000000000000000815260040160405180910390fd5b805460ff161561076b576107668a83815181106106b0576106b0612e03565b60200260200101518f8b85815181106106cb576106cb612e03565b60200260200101518460070160010180546106e590612e30565b80601f016020809104026020016040519081016040528092919081815260200182805461071190612e30565b801561075c5780601f106107335761010080835404028352916020019161075c565b820191905f5260205f20905b81548152906001019060200180831161073f57829003601f168201915b50505050506112e4565b6107c8565b6107c88e8a848151811061078157610781612e03565b60200260200101518c858151811061079b5761079b612e03565b602002602001015173ffffffffffffffffffffffffffffffffffffffff166113b39092919063ffffffff16565b505b8060018684815181106107df576107df612e03565b60200260200101516107f19190612eae565b11610802576107ff82612ec1565b91505b6001016104a2565b508b73ffffffffffffffffffffffffffffffffffffffff163373ffffffffffffffffffffffffffffffffffffffff167f3998bcf315dae4953d294b3ca6e1d0074c249adc136b50d1ff99b04753c73e7f8f8b8b8e60405161086e9493929190612ed9565b60405180910390a3505083547fffffffffffffffffffff00ffffffffffffffffffffffffffffffffffffffffff167501000000000000000000000000000000000000000000179093555092989197509095505050505050565b606080807f4b2dd303f68b99d244b702089c802b6e9ea1b5d4ef61fd436d6c41abb1178c755f806108f6611445565b9199509750955090925090508087111561093c576040517fa2b0657400000000000000000000000000000000000000000000000000000000815260040160405180910390fd5b5f836004018054806020026020016040519081016040528092919081815260200182805480156109ab57602002820191905f5260205f20905f905b825461010083900a900460070b81526020600f83018190049384019360010360089093019290920291018084116109775790505b505050505090505f633b9aca008467ffffffffffffffff161015610a5f575f85600301805480602002602001604051908101604052809291908181526020018280548015610a4957602002820191905f5260205f20905f905b82829054906101000a900467ffffffffffffffff1667ffffffffffffffff1681526020019060080190602082600701049283019260010382029150808411610a045790505b50505050509050610a5b858285611b29565b9150505b5f5b8751811015610b7a57633b9aca008567ffffffffffffffff161015610ad757610a8e633b9aca0085612f17565b8267ffffffffffffffff16898381518110610aab57610aab612e03565b60200260200101518c610abe9190612f17565b610ac89190612f17565b610ad29190612f5b565b610b55565b610aeb67ffffffffffffffff861685612f17565b8360018551610afa9190612eae565b81518110610b0a57610b0a612e03565b602002602001015167ffffffffffffffff16898381518110610b2e57610b2e612e03565b60200260200101518c610b419190612f17565b610b4b9190612f17565b610b559190612f5b565b888281518110610b6757610b67612e03565b6020908102919091010152600101610a61565b5050505050509193909250565b7fc8fcad8db84d3cc18b4c41d551ea0ee66dd599cde068d998e57d5e09332c131d545f9073ffffffffffffffffffffffffffffffffffffffff168180610be4838830610bd66004868b8d612f6e565b610bdf91612f95565b611cc9565b9150915081610d145763ffffffff811615610d09577f4b2dd303f68b99d244b702089c802b6e9ea1b5d4ef61fd436d6c41abb1178c7580547fffffffffffffffffff00ffffffffffffffffffffffffffffffffffffffffffff167601000000000000000000000000000000000000000000001781556040517f94c7d7ee00000000000000000000000000000000000000000000000000000000815273ffffffffffffffffffffffffffffffffffffffff8516906394c7d7ee90610caf908b908b908b90600401612ffb565b5f604051808303815f87803b158015610cc6575f5ffd5b505af1158015610cd8573d5f5f3e3d5ffd5b505082547fffffffffffffffffff00ffffffffffffffffffffffffffffffffffffffffffff1690925550610d149050565b5f9350505050610d1c565b600193505050505b9392505050565b7f4b2dd303f68b99d244b702089c802b6e9ea1b5d4ef61fd436d6c41abb1178c76545f907f4b2dd303f68b99d244b702089c802b6e9ea1b5d4ef61fd436d6c41abb1178c75906fffffffffffffffffffffffffffffffff7001000000000000000000000000000000008204811691168415610dca5780610daf6b033b2e3c9fd0803ce800000088612f17565b610db99190612f5b565b610dc39083613064565b9350610df8565b80610de16b033b2e3c9fd0803ce800000088612f17565b610deb9190612f5b565b610df59083612eae565b93505b670de0b6b3a764000084111580610e1e57506ec097ce7bc90715b34b9f10000000008410155b15611035575f83600201805480602002602001604051908101604052809291908181526020018280548015610e8757602002820191905f5260205f20905b815473ffffffffffffffffffffffffffffffffffffffff168152600190910190602001808311610e5c575b505050505090505f815190505f5f5b82811015610fdf575f610f366b033b2e3c9fd0803ce80000008a8a6005015f898781518110610ec757610ec7612e03565b60209081029190910181015173ffffffffffffffffffffffffffffffffffffffff1682528101919091526040015f2054610f2791906501000000000090047affffffffffffffffffffffffffffffffffffffffffffffffffffff16612f17565b610f319190612f5b565b611dcc565b9050610f428184613077565b9250806fffffffffffffffffffffffffffffffff16886005015f878581518110610f6e57610f6e612e03565b60209081029190910181015173ffffffffffffffffffffffffffffffffffffffff1682528101919091526040015f2080547affffffffffffffffffffffffffffffffffffffffffffffffffffff92909216650100000000000264ffffffffff90921691909117905550600101610e96565b506001860180547fffffffffffffffffffffffffffffffff00000000000000000000000000000000166fffffffffffffffffffffffffffffffff92909216919091179055506b033b2e3c9fd0803ce80000009450505b61103e84611dcc565b6001840180546fffffffffffffffffffffffffffffffff9283167001000000000000000000000000000000000292169190911790556040517fb4fde7403c001c7cdeafc0c3bb46e972111b7efac4e832398cbf9fabe1694ed9906110a59086815260200190565b60405180910390a150505092915050565b80515f90815b81811015611121578381815181106110d6576110d6612e03565b602002602001015173ffffffffffffffffffffffffffffffffffffffff168573ffffffffffffffffffffffffffffffffffffffff16036111195791506101c49050565b6001016110bc565b505f19949350505050565b5f5f5f848060200190518101906111439190613135565b915091505f61116f7f4b2dd303f68b99d244b702089c802b6e9ea1b5d4ef61fd436d6c41abb1178c7590565b6008015f84801561118257611182613183565b801561119057611190613183565b81526020019081526020015f205f8673ffffffffffffffffffffffffffffffffffffffff1673ffffffffffffffffffffffffffffffffffffffff1681526020019081526020015f205411156111ea576001925050506101c4565b8051156112da575f82801561120157611201613183565b036112da575f8180602001905181019061121b91906131b0565b905073ffffffffffffffffffffffffffffffffffffffff8116156112d8576040517f65e4ad9e00000000000000000000000000000000000000000000000000000000815230600482015273ffffffffffffffffffffffffffffffffffffffff86811660248301528216906365e4ad9e906044016020604051808303815f875af11580156112aa573d5f5f3e3d5ffd5b505050506040513d601f19601f820116820180604052508101906112ce91906131cb565b93505050506101c4565b505b505f949350505050565b5f5f6112ef83611e2a565b90925090505f82801561130457611304613183565b036113ab578080602001905181019061131d91906131b0565b6040517f8bfb07c900000000000000000000000000000000000000000000000000000000815273ffffffffffffffffffffffffffffffffffffffff88811660048301528781166024830152604482018790529190911690638bfb07c9906064015f604051808303815f87803b158015611394575f5ffd5b505af11580156113a6573d5f5f3e3d5ffd5b505050505b505050505050565b6040805173ffffffffffffffffffffffffffffffffffffffff8416602482015260448082018490528251808303909101815260649091019091526020810180517bffffffffffffffffffffffffffffffffffffffffffffffffffffffff167fa9059cbb00000000000000000000000000000000000000000000000000000000179052611440908490611e4b565b505050565b5f8060608080837f4b2dd303f68b99d244b702089c802b6e9ea1b5d4ef61fd436d6c41abb1178c7590505f5f826002018054806020026020016040519081016040528092919081815260200182805480156114d457602002820191905f5260205f20905b815473ffffffffffffffffffffffffffffffffffffffff1681526001909101906020018083116114a9575b505050505090505f815190505f8167ffffffffffffffff8111156114fa576114fa612aba565b604051908082528060200260200182016040528015611523578160200160208202803683370190505b5095505f5b8281101561160f57856005015f85838151811061154757611547612e03565b60209081029190910181015173ffffffffffffffffffffffffffffffffffffffff1682528101919091526040015f9081205460ff1690036115925761158b82612ec1565b91506115e9565b856005015f8583815181106115a9576115a9612e03565b60209081029190910181015173ffffffffffffffffffffffffffffffffffffffff1682528101919091526040015f20600701546115e69083613064565b91505b818782815181106115fc576115fc612e03565b6020908102919091010152600101611528565b508067ffffffffffffffff81111561162957611629612aba565b604051908082528060200260200182016040528015611652578160200160208202803683370190505b5096508067ffffffffffffffff81111561166e5761166e612aba565b604051908082528060200260200182016040528015611697578160200160208202803683370190505b5097505f5f5b83811015611a9f575f876005015f8784815181106116bd576116bd612e03565b60209081029190910181015173ffffffffffffffffffffffffffffffffffffffff1682528101919091526040015f908120805490925060ff161561188f57606061179383600701600101805461171290612e30565b80601f016020809104026020016040519081016040528092919081815260200182805461173e90612e30565b80156117895780601f1061176057610100808354040283529160200191611789565b820191905f5260205f20905b81548152906001019060200180831161176c57829003601f168201915b5050505050611ef0565b81519093509091505f5b8181101561187b57600785018054829081106117bb576117bb612e03565b5f9182526020909120015473ffffffffffffffffffffffffffffffffffffffff168f6117e7838a613064565b815181106117f7576117f7612e03565b602002602001019073ffffffffffffffffffffffffffffffffffffffff16908173ffffffffffffffffffffffffffffffffffffffff168152505082818151811061184357611843612e03565b60200260200101518e82896118589190613064565b8151811061186857611868612e03565b602090810291909101015260010161179d565b506118868187613064565b955050506119b7565b8683815181106118a1576118a1612e03565b60209081029190910101516040517f70a0823100000000000000000000000000000000000000000000000000000000815230600482015273ffffffffffffffffffffffffffffffffffffffff909116906370a0823190602401602060405180830381865afa158015611915573d5f5f3e3d5ffd5b505050506040513d601f19601f8201168201806040525081019061193991906131e6565b905086838151811061194d5761194d612e03565b60200260200101518c858151811061196757611967612e03565b73ffffffffffffffffffffffffffffffffffffffff90921660209283029190910190910152808b8561199881612ec1565b9650815181106119aa576119aa612e03565b6020026020010181815250505b5f611a4b8360050180546119ca90612e30565b80601f01602080910402602001604051908101604052809291908181526020018280546119f690612e30565b8015611a415780601f10611a1857610100808354040283529160200191611a41565b820191905f5260205f20905b815481529060010190602001808311611a2457829003601f168201915b5050505050611fca565b8354909150670de0b6b3a764000090611a719084906301000000900460ff1660126120a3565b611a7b9083612f17565b611a859190612f5b565b611a8f908a613064565b985050505080600101905061169d565b5050600180860154611ae9916fffffffffffffffffffffffffffffffff80831692700100000000000000000000000000000000900416906b033b2e3c9fd0803ce80000009061210c565b98508815611b1157611b0a611b0585633b9aca008c600161210c565b612159565b9950611b1d565b67ffffffffffffffff99505b50505050509091929394565b5f5f611b396001856001886121a8565b905080158015611b755750835f81518110611b5657611b56612e03565b602002602001015167ffffffffffffffff168567ffffffffffffffff16105b15611b9c57825f81518110611b8c57611b8c612e03565b6020026020010151915050610d1c565b60018451611baa9190612eae565b8103611bcf578260018551611bbf9190612eae565b81518110611b8c57611b8c612e03565b838181518110611be157611be1612e03565b602002602001015184826001611bf79190613064565b81518110611c0757611c07612e03565b6020026020010151611c1991906131fd565b848281518110611c2b57611c2b612e03565b602002602001015186611c3e91906131fd565b848381518110611c5057611c50612e03565b602002602001015185846001611c669190613064565b81518110611c7657611c76612e03565b6020026020010151611c88919061321d565b611c929190613263565b611c9c9190613282565b838281518110611cae57611cae612e03565b6020026020010151611cc091906132d6565b95945050505050565b60405173ffffffffffffffffffffffffffffffffffffffff8085166024830152831660448201527fffffffff00000000000000000000000000000000000000000000000000000000821660648201525f9081908190608401604080517fffffffffffffffffffffffffffffffffffffffffffffffffffffffffffffffe0818403018152918152602080830180517bffffffffffffffffffffffffffffffffffffffffffffffffffffffff167fb7009613000000000000000000000000000000000000000000000000000000001781525f808052918290528351939450919290918a5afa15611dc2575f516020805191945081901c150291505b5094509492505050565b5f6fffffffffffffffffffffffffffffffff821115611e26576040517f6dfcc65000000000000000000000000000000000000000000000000000000000815260806004820152602481018390526044015b60405180910390fd5b5090565b5f606082806020019051810190611e419190613135565b9094909350915050565b5f5f60205f8451602086015f885af180611e6a576040513d5f823e3d81fd5b50505f513d91508115611e81578060011415611e9b565b73ffffffffffffffffffffffffffffffffffffffff84163b155b15611eea576040517f5274afe700000000000000000000000000000000000000000000000000000000815273ffffffffffffffffffffffffffffffffffffffff85166004820152602401611e1d565b50505050565b60605f5f5f611efe85611e2a565b90925090505f828015611f1357611f13613183565b03611fc35780806020019051810190611f2c91906131b0565b73ffffffffffffffffffffffffffffffffffffffff166301e1d1146040518163ffffffff1660e01b81526004015f60405180830381865afa158015611f73573d5f5f3e3d5ffd5b505050506040513d5f823e601f3d9081017fffffffffffffffffffffffffffffffffffffffffffffffffffffffffffffffe0168201604052611fb8919081019061331c565b935093505050915091565b5050915091565b5f5f5f5f5f611fd88661233d565b50929650909450925090506001846009811115611ff757611ff7613183565b0361208b575f8280602001905181019061201191906131b0565b90508073ffffffffffffffffffffffffffffffffffffffff16636256f2c56040518163ffffffff1660e01b8152600401602060405180830381865afa15801561205c573d5f5f3e3d5ffd5b505050506040513d601f19601f8201168201806040525081019061208091906131e6565b979650505050505050565b612098848484845f61236a565b509695505050505050565b5f8160ff168360ff1611156120d8576120bc82846133b7565b6120c790600a6134b3565b6120d19085612f5b565b9050610d1c565b8160ff168360ff161015612105576120f083836133b7565b6120fb90600a6134b3565b6120d19085612f17565b5082610d1c565b5f61213961211983612405565b801561213457505f848061212f5761212f612f2e565b868809115b151590565b612144868686612431565b61214e9190613064565b90505b949350505050565b5f67ffffffffffffffff821115611e2657604080517f6dfcc650000000000000000000000000000000000000000000000000000000008152600481019190915260248101839052604401611e1d565b5f83515f036121b857505f612151565b835160019086801561220c575067ffffffffffffffff841685876121dd600185612eae565b815181106121ed576121ed612e03565b60200260200101516121ff91906134c1565b67ffffffffffffffff1611155b80612262575086158015612262575067ffffffffffffffff84168587612233600185612eae565b8151811061224357612243612e03565b602002602001015161225591906134c1565b67ffffffffffffffff1610155b1561227b57612272600182612eae565b92505050612151565b80821015612332575f61228e83836124e1565b9050876122d5578467ffffffffffffffff16868883815181106122b3576122b3612e03565b60200260200101516122c591906134c1565b67ffffffffffffffff1610612311565b8467ffffffffffffffff16868883815181106122f3576122f3612e03565b602002602001015161230591906134c1565b67ffffffffffffffff16115b1561231e5780915061232c565b612329816001613064565b92505b5061227b565b612080600183612eae565b5f5f60608060608580602001905181019061235891906134f7565b939a9299509097509550909350915050565b5f5f61237f86670de0b6b3a7640000866124fb565b905061238c8782876124fb565b91506123a0670de0b6b3a764000083612f17565b6123b284670de0b6b3a7640000612eae565b6123bc9083612f17565b1080156123f457506123d683670de0b6b3a7640000613064565b6123e09082612f17565b6123f2670de0b6b3a764000084612f17565b105b156100d45796879650945050505050565b5f600282600381111561241a5761241a613183565b61242491906135a6565b60ff166001149050919050565b5f5f5f61243e8686612926565b91509150815f036124625783818161245857612458612f2e565b0492505050610d1c565b818411612479576124796003851502601118612942565b5f848688095f868103871696879004966002600389028118808a02820302808a02820302808a02820302808a02820302808a02820302808a02909103029181900381900460010185841190960395909502919093039390930492909217029150509392505050565b5f6124ef6002848418612f5b565b6101c190848416613064565b5f8084600981111561250f5761250f613183565b036125df575f5f5f5f5f8680602001905181019061252d91906136aa565b945094509450945094505f612542828a612953565b86519091505f5b818110156125cf576125c58389838151811061256757612567612e03565b602002602001015188848151811061258157612581612e03565b602002602001015188858151811061259b5761259b612e03565b602002602001015160ff168b86815181106125b8576125b8612e03565b6020026020010151612982565b9250600101612549565b5081975050505050505050610d1c565b60038460098111156125f3576125f3613183565b036126075750670de0b6b3a7640000610d1c565b600284600981111561261b5761261b613183565b03612627575081610d1c565b600484600981111561263b5761263b613183565b036126d2576040517f7a28fb88000000000000000000000000000000000000000000000000000000008152670de0b6b3a7640000600482015273ae7ab96520de3a18e5e111b5eaab095312d7fe8490637a28fb8890602401602060405180830381865afa1580156126ae573d5f5f3e3d5ffd5b505050506040513d601f19601f820116820180604052508101906120d191906131e6565b60058460098111156126e6576126e6613183565b036127485773be9895146f7af43049ca1c1ae358b0541ea4970473ffffffffffffffffffffffffffffffffffffffff16633ba0b9a96040518163ffffffff1660e01b8152600401602060405180830381865afa1580156126ae573d5f5f3e3d5ffd5b600684600981111561275c5761275c613183565b036127be5773ae78736cd615f374d3085123a210448e74fc639373ffffffffffffffffffffffffffffffffffffffff1663e6aa216c6040518163ffffffff1660e01b8152600401602060405180830381865afa1580156126ae573d5f5f3e3d5ffd5b60078460098111156127d2576127d2613183565b036128345773ac3e018457b222d93114458476f3e3416abbe38f73ffffffffffffffffffffffffffffffffffffffff166399530b066040518163ffffffff1660e01b8152600401602060405180830381865afa1580156126ae573d5f5f3e3d5ffd5b600884600981111561284857612848613183565b0361286b575f8280602001905181019061286291906131e6565b9150610d1c9050565b600984600981111561287f5761287f613183565b0361291f575f5f8380602001905181019061289a91906137d5565b91509150808273ffffffffffffffffffffffffffffffffffffffff1663a035b1fe6040518163ffffffff1660e01b8152600401602060405180830381865afa1580156128e8573d5f5f3e3d5ffd5b505050506040513d601f19601f8201168201806040525081019061290c91906131e6565b6129169190612f5b565b92505050610d1c565b5081610d1c565b5f805f1983850993909202808410938190039390930393915050565b634e487b715f52806020526024601cfd5b5f8083600181111561296757612967613183565b0361297b5750670de0b6b3a76400006101c4565b50806101c4565b5f5f5f8673ffffffffffffffffffffffffffffffffffffffff1663feaf968c6040518163ffffffff1660e01b815260040160a060405180830381865afa1580156129ce573d5f5f3e3d5ffd5b505050506040513d601f19601f820116820180604052508101906129f2919061381a565b509350509250505f82131580612a16575063ffffffff8416612a148242612eae565b115b15612a4d576040517fae19356300000000000000000000000000000000000000000000000000000000815260040160405180910390fd5b8560ff16600103612a8057612a6385600a61385c565b612a6d838a612f17565b612a779190612f5b565b92505050611cc0565b81612a8c86600a61385c565b612a6d908a612f17565b73ffffffffffffffffffffffffffffffffffffffff81168114612ab7575f5ffd5b50565b7f4e487b71000000000000000000000000000000000000000000000000000000005f52604160045260245ffd5b604051601f82017fffffffffffffffffffffffffffffffffffffffffffffffffffffffffffffffe016810167ffffffffffffffff81118282101715612b2e57612b2e612aba565b604052919050565b5f67ffffffffffffffff821115612b4f57612b4f612aba565b5060051b60200190565b5f82601f830112612b68575f5ffd5b8135612b7b612b7682612b36565b612ae7565b8082825260208201915060208360051b860101925085831115612b9c575f5ffd5b602085015b83811015612bb9578035835260209283019201612ba1565b5095945050505050565b5f5f5f5f5f60a08688031215612bd7575f5ffd5b853594506020860135612be981612a96565b935060408601359250606086013567ffffffffffffffff811115612c0b575f5ffd5b612c1788828901612b59565b925050608086013567ffffffffffffffff811115612c33575f5ffd5b8601601f81018813612c43575f5ffd5b8035612c51612b7682612b36565b8082825260208201915060208360051b85010192508a831115612c72575f5ffd5b6020840193505b82841015612c9d578335612c8c81612a96565b825260209384019390910190612c79565b809450505050509295509295909350565b5f8151808452602084019350602083015f5b82811015612cf457815173ffffffffffffffffffffffffffffffffffffffff16865260209586019590910190600101612cc0565b5093949350505050565b5f8151808452602084019350602083015f5b82811015612cf4578151865260209586019590910190600101612d10565b604081525f612d406040830185612cae565b8281036020840152611cc08185612cfe565b5f5f5f5f60808587031215612d65575f5ffd5b843593506020850135612d7781612a96565b925060408501359150606085013567ffffffffffffffff811115612d99575f5ffd5b612da587828801612b59565b91505092959194509250565b5f60208284031215612dc1575f5ffd5b5035919050565b8015158114612ab7575f5ffd5b5f5f60408385031215612de6575f5ffd5b823591506020830135612df881612dc8565b809150509250929050565b7f4e487b71000000000000000000000000000000000000000000000000000000005f52603260045260245ffd5b600181811c90821680612e4457607f821691505b602082108103612e7b577f4e487b71000000000000000000000000000000000000000000000000000000005f52602260045260245ffd5b50919050565b7f4e487b71000000000000000000000000000000000000000000000000000000005f52601160045260245ffd5b818103818111156101c4576101c4612e81565b5f5f198203612ed257612ed2612e81565b5060010190565b848152608060208201525f612ef16080830186612cae565b8281036040840152612f038186612cfe565b905082810360608401526120808185612cae565b80820281158282048414176101c4576101c4612e81565b7f4e487b71000000000000000000000000000000000000000000000000000000005f52601260045260245ffd5b5f82612f6957612f69612f2e565b500490565b5f5f85851115612f7c575f5ffd5b83861115612f88575f5ffd5b5050820193919092039150565b80357fffffffff000000000000000000000000000000000000000000000000000000008116906004841015612ff4577fffffffff00000000000000000000000000000000000000000000000000000000808560040360031b1b82161691505b5092915050565b73ffffffffffffffffffffffffffffffffffffffff8416815260406020820152816040820152818360608301375f818301606090810191909152601f9092017fffffffffffffffffffffffffffffffffffffffffffffffffffffffffffffffe016010192915050565b808201808211156101c4576101c4612e81565b6fffffffffffffffffffffffffffffffff81811683821601908111156101c4576101c4612e81565b60018110612ab7575f5ffd5b5f82601f8301126130ba575f5ffd5b815167ffffffffffffffff8111156130d4576130d4612aba565b61310560207fffffffffffffffffffffffffffffffffffffffffffffffffffffffffffffffe0601f84011601612ae7565b818152846020838601011115613119575f5ffd5b8160208501602083015e5f918101602001919091529392505050565b5f5f60408385031215613146575f5ffd5b82516131518161309f565b602084015190925067ffffffffffffffff81111561316d575f5ffd5b613179858286016130ab565b9150509250929050565b7f4e487b71000000000000000000000000000000000000000000000000000000005f52602160045260245ffd5b5f602082840312156131c0575f5ffd5b8151610d1c81612a96565b5f602082840312156131db575f5ffd5b8151610d1c81612dc8565b5f602082840312156131f6575f5ffd5b5051919050565b67ffffffffffffffff82811682821603908111156101c4576101c4612e81565b600782810b9082900b037fffffffffffffffffffffffffffffffffffffffffffffffff80000000000000008112677fffffffffffffff821317156101c4576101c4612e81565b5f8260070b8260070b028060070b9150808214612ff457612ff4612e81565b5f8160070b8360070b8061329857613298612f2e565b5f1981147fffffffffffffffffffffffffffffffffffffffffffffffff8000000000000000831416156132cd576132cd612e81565b90059392505050565b600781810b9083900b01677fffffffffffffff81137fffffffffffffffffffffffffffffffffffffffffffffffff8000000000000000821217156101c4576101c4612e81565b5f5f6040838503121561332d575f5ffd5b825167ffffffffffffffff811115613343575f5ffd5b8301601f81018513613353575f5ffd5b8051613361612b7682612b36565b8082825260208201915060208360051b850101925087831115613382575f5ffd5b6020840193505b828410156133a4578351825260209384019390910190613389565b6020969096015195979596505050505050565b60ff82811682821603908111156101c4576101c4612e81565b6001815b600184111561340b578085048111156133ef576133ef612e81565b60018416156133fd57908102905b60019390931c9280026133d4565b935093915050565b5f82613421575060016101c4565b8161342d57505f6101c4565b8160018114613443576002811461344d57613469565b60019150506101c4565b60ff84111561345e5761345e612e81565b50506001821b6101c4565b5060208310610133831016604e8410600b841016171561348c575081810a6101c4565b6134985f1984846133d0565b805f19048211156134ab576134ab612e81565b029392505050565b5f6101c160ff841683613413565b67ffffffffffffffff8181168382160290811690818114612ff457612ff4612e81565b8051600a81106134f2575f5ffd5b919050565b5f5f5f5f5f60a0868803121561350b575f5ffd5b613514866134e4565b9450613522602087016134e4565b9350604086015167ffffffffffffffff81111561353d575f5ffd5b613549888289016130ab565b935050606086015167ffffffffffffffff811115613565575f5ffd5b613571888289016130ab565b925050608086015167ffffffffffffffff81111561358d575f5ffd5b613599888289016130ab565b9150509295509295909350565b5f60ff8316806135b8576135b8612f2e565b8060ff84160691505092915050565b5f82601f8301126135d6575f5ffd5b81516135e4612b7682612b36565b8082825260208201915060208360051b860101925085831115613605575f5ffd5b602085015b83811015612bb957805163ffffffff81168114613625575f5ffd5b83526020928301920161360a565b5f82601f830112613642575f5ffd5b8151613650612b7682612b36565b8082825260208201915060208360051b860101925085831115613671575f5ffd5b602085015b83811015612bb957805160ff8116811461368e575f5ffd5b835260209283019201613676565b8051600281106134f2575f5ffd5b5f5f5f5f5f60a086880312156136be575f5ffd5b855167ffffffffffffffff8111156136d4575f5ffd5b8601601f810188136136e4575f5ffd5b80516136f2612b7682612b36565b8082825260208201915060208360051b85010192508a831115613713575f5ffd5b6020840193505b8284101561373e57835161372d81612a96565b82526020938401939091019061371a565b80985050505050602086015167ffffffffffffffff81111561375e575f5ffd5b61376a888289016135c7565b945050604086015167ffffffffffffffff811115613786575f5ffd5b61379288828901613633565b935050606086015167ffffffffffffffff8111156137ae575f5ffd5b6137ba88828901613633565b9250506137c96080870161369c565b90509295509295909350565b5f5f604083850312156137e6575f5ffd5b82516137f181612a96565b6020939093015192949293505050565b805169ffffffffffffffffffff811681146134f2575f5ffd5b5f5f5f5f5f60a0868803121561382e575f5ffd5b61383786613801565b602087015160408801516060890151929750909550935091506137c960808701613801565b5f6101c1838361341356fea2646970667358221220d27fe5226d9d28d5efdadcbcda7ab8d9affd916286a2264cdf74349607b5278e64736f6c634300081c0033",
  "linkReferences": {},
  "deployedLinkReferences": {},
  "immutableReferences": {},
  "inputSourceName": "project/contracts/monetizer/facets/Redeemer.sol",
  "devdoc": {
    "author": "Cooper Labs",
    "custom:contact": "security@monet.cash",
    "details": "This contract is an authorized fork of Angle's `Redeemer` contract https://github.com/AngleProtocol/angle-transmuter/blob/main/contracts/monetizer/facets/Redeemer.sol",
    "errors": {
      "SafeCastOverflowedUintDowncast(uint8,uint256)": [
        {
          "details": "Value doesn't fit in an uint of `bits` size."
        }
      ],
      "SafeERC20FailedOperation(address)": [
        {
          "details": "An operation with an ERC-20 token failed."
        }
      ]
    },
    "kind": "dev",
    "methods": {
      "quoteRedemptionCurve(uint256)": {
        "returns": {
          "amounts": "Amount that would be obtained for each token in the `tokens` array",
          "tokens": "List of tokens that would be given"
        }
      },
      "redeem(uint256,address,uint256,uint256[])": {
        "details": "The `minAmountOuts` list must reflect the amount of `tokens` returnedIn normal conditions, the amount of tokens outputted by this function should be the amount of collateral assets supported by the system, following their order in the `collateralList`.If one collateral has its liquidity managed through strategies, then it's possible that this asset has sub-collaterals with it. In this situation, these sub-collaterals may be sent during the redemption process and the `minAmountOuts` will be bigger than the `collateralList` length. If there are 3 collateral assets and the 2nd collateral asset in the list (at index 1) consists of 3 sub-collaterals, then the ordering of the token list will be as follows: `[collat 1, sub-collat 1 of collat 2, sub-collat 2 of collat 2, sub-collat 3 of collat 2, collat 3]`The list of tokens outputted (and hence the minimum length of the `minAmountOuts` list) can be obtained by calling the `quoteRedemptionCurve` functionTokens requiring a whitelist must be forfeited if the redemption is to an address that is not in the whitelist, otherwise this function revertsNo approval is needed before calling this function",
        "params": {
          "deadline": "Timestamp before which the redemption should have occured",
          "minAmountOuts": "Minimum amount of each token given back in the redemption to obtain",
          "receiver": "Address which should be receiving the output tokens"
        },
        "returns": {
          "amounts": "Amount given for each token in the `tokens` array",
          "tokens": "List of tokens returned"
        }
      },
      "redeemWithForfeit(uint256,address,uint256,uint256[],address[])": {
        "details": "Beware that if a token is given in the `forfeitTokens` list, the redemption will not try to send token even if it has enough immediately available to send the amount"
      },
      "updateNormalizer(uint256,bool)": {
        "details": "This function may be called by trusted addresses: these could be for instance savings contract minting stablecoins when they notice a profit"
      }
    },
    "title": "Redeemer",
    "version": 1
  },
  "evm": {
    "gasEstimates": {
      "creation": {
        "codeDepositCost": "2898600",
        "executionCost": "3167",
        "totalCost": "2901767"
      },
      "external": {
        "quoteRedemptionCurve(uint256)": "infinite",
        "redeem(uint256,address,uint256,uint256[])": "infinite",
        "redeemWithForfeit(uint256,address,uint256,uint256[],address[])": "infinite",
        "updateNormalizer(uint256,bool)": "infinite"
      },
      "internal": {
        "_quoteRedemptionCurve(uint256)": "infinite",
        "_redeem(uint256,address,uint256,uint256[] memory,address[] memory)": "infinite",
        "_updateNormalizer(uint256,bool)": "infinite"
      }
    }
  },
  "storageLayout": {
    "storage": [],
    "types": null
  },
  "userdoc": {
    "kind": "user",
    "methods": {
      "quoteRedemptionCurve(uint256)": {
        "notice": "Simulate the exact output that a redemption of `amount` of stablecoins would give at a given block"
      },
      "redeem(uint256,address,uint256,uint256[])": {
        "notice": "Redeems `amount` of stablecoins from the system"
      },
      "redeemWithForfeit(uint256,address,uint256,uint256[],address[])": {
        "notice": "Same as the redeem function above with the additional feature to specify a list of `forfeitTokens` for which the Monetizer system will not try to do a transfer to `receiver`."
      },
      "updateNormalizer(uint256,bool)": {
        "notice": "Updates the normalizer variable by `amount`"
      }
    },
    "version": 1
  },
  "argsData": "0x",
  "transaction": {
    "hash": "0x2b9c8ab711a12a78fe881751a025f2c2f2bd8e33f0a1b0afaa275a9953973515",
    "nonce": "0x38",
    "origin": "0x10a852971d242a04829b541c32f09ad9ec1b227d"
  }
}