{
  "address": "0x4f48cf7669f7b639346122a35da8288a28efe941",
  "abi": [
    {
      "inputs": [],
      "name": "InvalidSwap",
      "type": "error"
    },
    {
      "inputs": [],
      "name": "NotTrusted",
      "type": "error"
    },
    {
      "inputs": [],
      "name": "OdosSwapFailed",
      "type": "error"
    },
    {
      "inputs": [],
      "name": "ReentrantCall",
      "type": "error"
    },
    {
      "inputs": [
        {
          "internalType": "address",
          "name": "token",
          "type": "address"
        }
      ],
      "name": "SafeERC20FailedOperation",
      "type": "error"
    },
    {
      "inputs": [],
      "name": "TooSmallAmountOut",
      "type": "error"
    },
    {
      "anonymous": false,
      "inputs": [
        {
          "indexed": true,
          "internalType": "address",
          "name": "tokenObtained",
          "type": "address"
        },
        {
          "indexed": false,
          "internalType": "uint256",
          "name": "balanceUpdate",
          "type": "uint256"
        }
      ],
      "name": "RewardsSoldFor",
      "type": "event"
    },
    {
      "inputs": [
        {
          "internalType": "uint256",
          "name": "minAmountOut",
          "type": "uint256"
        },
        {
          "internalType": "bytes",
          "name": "payload",
          "type": "bytes"
        }
      ],
      "name": "sellRewards",
      "outputs": [
        {
          "internalType": "uint256",
          "name": "amountOut",
          "type": "uint256"
        }
      ],
      "stateMutability": "nonpayable",
      "type": "function"
    }
  ],
  "contractName": "RewardHandler",
  "sourceName": "contracts/monetizer/facets/RewardHandler.sol",
  "bytecode": "0x6080604052348015600e575f5ffd5b506111908061001c5f395ff3fe608060405234801561000f575f5ffd5b5060043610610029575f3560e01c806305b419341461002d575b5f5ffd5b61004061003b366004610dff565b610052565b60405190815260200160405180910390f35b7f4b2dd303f68b99d244b702089c802b6e9ea1b5d4ef61fd436d6c41abb1178c7580545f919060ff7501000000000000000000000000000000000000000000909104167ffffffffffffffffffffffffffffffffffffffffffffffffffffffffffffffffe016100ed576040517f37ed32e800000000000000000000000000000000000000000000000000000000815260040160405180910390fd5b80547fffffffffffffffffffff00ffffffffffffffffffffffffffffffffffffffffff1675020000000000000000000000000000000000000000001781557f4b2dd303f68b99d244b702089c802b6e9ea1b5d4ef61fd436d6c41abb1178c75610157335f36610815565b1580156101725750335f908152600782016020526040902054155b156101a9576040517fc22a648e00000000000000000000000000000000000000000000000000000000815260040160405180910390fd5b5f8160020180548060200260200160405190810160405280929190818152602001828054801561020d57602002820191905f5260205f20905b815473ffffffffffffffffffffffffffffffffffffffff1681526001909101906020018083116101e2575b505050505090505f815190505f8167ffffffffffffffff81111561023357610233610d3e565b60405190808252806020026020018201604052801561025c578160200160208202803683370190505b5090505f5b828110156103385783818151811061027b5761027b610e83565b60209081029190910101516040517f70a0823100000000000000000000000000000000000000000000000000000000815230600482015273ffffffffffffffffffffffffffffffffffffffff909116906370a0823190602401602060405180830381865afa1580156102ef573d5f5f3e3d5ffd5b505050506040513d601f19601f820116820180604052508101906103139190610eb0565b82828151811061032557610325610e83565b6020908102919091010152600101610261565b505f5f73cf5540fffcdc3d510b18bfca6d2b9987b077255973ffffffffffffffffffffffffffffffffffffffff16896040516103749190610ec7565b5f604051808303815f865af19150503d805f81146103ad576040519150601f19603f3d011682016040523d82523d5f602084013e6103b2565b606091505b5091509150816103c5576103c5816109b1565b808060200190518101906103d99190610eb0565b975089881015610415576040517fa1aabbe100000000000000000000000000000000000000000000000000000000815260040160405180910390fd5b5f5f5f5b868110156105f3575f88828151811061043457610434610e83565b60209081029190910101516040517f70a0823100000000000000000000000000000000000000000000000000000000815230600482015273ffffffffffffffffffffffffffffffffffffffff909116906370a0823190602401602060405180830381865afa1580156104a8573d5f5f3e3d5ffd5b505050506040513d601f19601f820116820180604052508101906104cc9190610eb0565b90508682815181106104e0576104e0610e83565b6020026020010151811015610521576040517f1115766700000000000000000000000000000000000000000000000000000000815260040160405180910390fd5b86828151811061053357610533610e83565b60200260200101518111156105ea576001935088828151811061055857610558610e83565b6020026020010151925088828151811061057457610574610e83565b602002602001015173ffffffffffffffffffffffffffffffffffffffff167fbe1da12e92b73d3ecd35edcc32270e8ffaa4ee9fe30f671989b3d2e88a2c2ea28884815181106105c5576105c5610e83565b6020026020010151836105d89190610edd565b60405190815260200160405180910390a25b50600101610419565b508161062b576040517f1115766700000000000000000000000000000000000000000000000000000000815260040160405180910390fd5b73ffffffffffffffffffffffffffffffffffffffff81165f9081527f4b2dd303f68b99d244b702089c802b6e9ea1b5d4ef61fd436d6c41abb1178c7a60205260409020805460ff16156107c65761072f61071182600701600101805461069090610f1b565b80601f01602080910402602001604051908101604052809291908181526020018280546106bc90610f1b565b80156107075780601f106106de57610100808354040283529160200191610707565b820191905f5260205f20905b8154815290600101906020018083116106ea57829003601f168201915b50505050506109f2565b73ffffffffffffffffffffffffffffffffffffffff8416908d610a3e565b6107c68b82600701600101805461074590610f1b565b80601f016020809104026020016040519081016040528092919081815260200182805461077190610f1b565b80156107bc5780601f10610793576101008083540402835291602001916107bc565b820191905f5260205f20905b81548152906001019060200180831161079f57829003601f168201915b5050505050610ad0565b505087547fffffffffffffffffffff00ffffffffffffffffffffffffffffffffffffffffff16750100000000000000000000000000000000000000000017909755509598975050505050505050565b7fc8fcad8db84d3cc18b4c41d551ea0ee66dd599cde068d998e57d5e09332c131d545f9073ffffffffffffffffffffffffffffffffffffffff1681806108728388306108646004868b8d610f6c565b61086d91610f93565b610b77565b91509150816109a25763ffffffff811615610997577f4b2dd303f68b99d244b702089c802b6e9ea1b5d4ef61fd436d6c41abb1178c7580547fffffffffffffffffff00ffffffffffffffffffffffffffffffffffffffffffff167601000000000000000000000000000000000000000000001781556040517f94c7d7ee00000000000000000000000000000000000000000000000000000000815273ffffffffffffffffffffffffffffffffffffffff8516906394c7d7ee9061093d908b908b908b90600401610ff9565b5f604051808303815f87803b158015610954575f5ffd5b505af1158015610966573d5f5f3e3d5ffd5b505082547fffffffffffffffffff00ffffffffffffffffffffffffffffffffffffffffffff16909255506109a29050565b5f93505050506109aa565b600193505050505b9392505050565b8051156109c057805181602001fd5b6040517f45d4013e00000000000000000000000000000000000000000000000000000000815260040160405180910390fd5b5f5f5f6109fe84610c7a565b30945090925090505f828015610a1657610a16611062565b03610a375780806020019051810190610a2f91906110b3565b949350505050565b5050919050565b6040805173ffffffffffffffffffffffffffffffffffffffff8416602482015260448082018490528251808303909101815260649091019091526020810180517bffffffffffffffffffffffffffffffffffffffffffffffffffffffff167fa9059cbb00000000000000000000000000000000000000000000000000000000179052610acb908490610c9b565b505050565b5f5f610adb83610c7a565b90925090505f828015610af057610af0611062565b03610b715780806020019051810190610b0991906110b3565b73ffffffffffffffffffffffffffffffffffffffff16632afcf480856040518263ffffffff1660e01b8152600401610b4391815260200190565b5f604051808303815f87803b158015610b5a575f5ffd5b505af1158015610b6c573d5f5f3e3d5ffd5b505050505b50505050565b60405173ffffffffffffffffffffffffffffffffffffffff8085166024830152831660448201527fffffffff00000000000000000000000000000000000000000000000000000000821660648201525f9081908190608401604080517fffffffffffffffffffffffffffffffffffffffffffffffffffffffffffffffe0818403018152918152602080830180517bffffffffffffffffffffffffffffffffffffffffffffffffffffffff167fb7009613000000000000000000000000000000000000000000000000000000001781525f808052918290528351939450919290918a5afa15610c70575f516020805191945081901c150291505b5094509492505050565b5f606082806020019051810190610c9191906110ce565b9094909350915050565b5f5f60205f8451602086015f885af180610cba576040513d5f823e3d81fd5b50505f513d91508115610cd1578060011415610ceb565b73ffffffffffffffffffffffffffffffffffffffff84163b155b15610b71576040517f5274afe700000000000000000000000000000000000000000000000000000000815273ffffffffffffffffffffffffffffffffffffffff8516600482015260240160405180910390fd5b7f4e487b71000000000000000000000000000000000000000000000000000000005f52604160045260245ffd5b604051601f82017fffffffffffffffffffffffffffffffffffffffffffffffffffffffffffffffe016810167ffffffffffffffff81118282101715610db257610db2610d3e565b604052919050565b5f67ffffffffffffffff821115610dd357610dd3610d3e565b50601f017fffffffffffffffffffffffffffffffffffffffffffffffffffffffffffffffe01660200190565b5f5f60408385031215610e10575f5ffd5b82359150602083013567ffffffffffffffff811115610e2d575f5ffd5b8301601f81018513610e3d575f5ffd5b8035610e50610e4b82610dba565b610d6b565b818152866020838501011115610e64575f5ffd5b816020840160208301375f602083830101528093505050509250929050565b7f4e487b71000000000000000000000000000000000000000000000000000000005f52603260045260245ffd5b5f60208284031215610ec0575f5ffd5b5051919050565b5f82518060208501845e5f920191825250919050565b81810381811115610f15577f4e487b71000000000000000000000000000000000000000000000000000000005f52601160045260245ffd5b92915050565b600181811c90821680610f2f57607f821691505b602082108103610f66577f4e487b71000000000000000000000000000000000000000000000000000000005f52602260045260245ffd5b50919050565b5f5f85851115610f7a575f5ffd5b83861115610f86575f5ffd5b5050820193919092039150565b80357fffffffff000000000000000000000000000000000000000000000000000000008116906004841015610ff2577fffffffff00000000000000000000000000000000000000000000000000000000808560040360031b1b82161691505b5092915050565b73ffffffffffffffffffffffffffffffffffffffff8416815260406020820152816040820152818360608301375f818301606090810191909152601f9092017fffffffffffffffffffffffffffffffffffffffffffffffffffffffffffffffe016010192915050565b7f4e487b71000000000000000000000000000000000000000000000000000000005f52602160045260245ffd5b73ffffffffffffffffffffffffffffffffffffffff811681146110b0575f5ffd5b50565b5f602082840312156110c3575f5ffd5b81516109aa8161108f565b5f5f604083850312156110df575f5ffd5b8251600181106110ed575f5ffd5b602084015190925067ffffffffffffffff811115611109575f5ffd5b8301601f81018513611119575f5ffd5b8051611127610e4b82610dba565b81815286602083850101111561113b575f5ffd5b8160208401602083015e5f60208383010152809350505050925092905056fea26469706673582212209f851491c6ae88be0eea8d015479211cfc046752f36d986cdc603ea33c0e364f64736f6c634300081c0033",
  "linkReferences": {},
  "deployedLinkReferences": {},
  "immutableReferences": {},
  "inputSourceName": "project/contracts/monetizer/facets/RewardHandler.sol",
  "devdoc": {
    "author": "Cooper Labs",
    "custom:contact": "security@monet.cash",
    "details": "This contract is an authorized fork of Angle's `RewardHandler` contract https://github.com/AngleProtocol/angle-transmuter/blob/main/contracts/monetizer/facets/RewardHandler.sol",
    "errors": {
      "SafeERC20FailedOperation(address)": [
        {
          "details": "An operation with an ERC-20 token failed."
        }
      ]
    },
    "kind": "dev",
    "methods": {
      "sellRewards(uint256,bytes)": {
        "details": "It is impossible to sell a token that is a collateral through this functionTrusted sellers and governance only may call this functionOnly governance can set which tokens can be swapped through this function by passing a prior approval transaction to Odos router for the token to be swapped"
      }
    },
    "title": "RewardHandler",
    "version": 1
  },
  "evm": {
    "gasEstimates": {
      "creation": {
        "codeDepositCost": "899200",
        "executionCost": "933",
        "totalCost": "900133"
      },
      "external": {
        "sellRewards(uint256,bytes)": "infinite"
      },
      "internal": {
        "_revertBytes(bytes memory)": "infinite"
      }
    }
  },
  "storageLayout": {
    "storage": [],
    "types": null
  },
  "userdoc": {
    "kind": "user",
    "methods": {
      "sellRewards(uint256,bytes)": {
        "notice": "IRewardHandler"
      }
    },
    "version": 1
  },
  "argsData": "0x",
  "transaction": {
    "hash": "0xed113797a60b5284d750f417cc054456683cfb3e1ab6ef8967be77aa1983fe3e",
    "nonce": "0x39",
    "origin": "0x10a852971d242a04829b541c32f09ad9ec1b227d"
  }
}