{
  "address": "0xa2122c3290b15c9e9ccc4b6b1d7104415891127e",
  "abi": [
    {
      "inputs": [
        {
          "internalType": "address",
          "name": "caller",
          "type": "address"
        }
      ],
      "name": "AccessManagedUnauthorized",
      "type": "error"
    },
    {
      "inputs": [],
      "name": "InvalidNegativeFees",
      "type": "error"
    },
    {
      "inputs": [],
      "name": "InvalidParams",
      "type": "error"
    },
    {
      "inputs": [],
      "name": "NotCollateral",
      "type": "error"
    },
    {
      "inputs": [],
      "name": "NotGovernor",
      "type": "error"
    },
    {
      "anonymous": false,
      "inputs": [
        {
          "indexed": true,
          "internalType": "address",
          "name": "collateral",
          "type": "address"
        },
        {
          "indexed": false,
          "internalType": "uint64[]",
          "name": "xFee",
          "type": "uint64[]"
        },
        {
          "indexed": false,
          "internalType": "int64[]",
          "name": "yFee",
          "type": "int64[]"
        },
        {
          "indexed": false,
          "internalType": "bool",
          "name": "mint",
          "type": "bool"
        }
      ],
      "name": "FeesSet",
      "type": "event"
    },
    {
      "anonymous": false,
      "inputs": [
        {
          "indexed": true,
          "internalType": "address",
          "name": "collateral",
          "type": "address"
        },
        {
          "indexed": false,
          "internalType": "uint256",
          "name": "pausedType",
          "type": "uint256"
        },
        {
          "indexed": false,
          "internalType": "bool",
          "name": "isPaused",
          "type": "bool"
        }
      ],
      "name": "PauseToggled",
      "type": "event"
    },
    {
      "anonymous": false,
      "inputs": [
        {
          "indexed": false,
          "internalType": "uint64[]",
          "name": "xFee",
          "type": "uint64[]"
        },
        {
          "indexed": false,
          "internalType": "int64[]",
          "name": "yFee",
          "type": "int64[]"
        }
      ],
      "name": "RedemptionCurveParamsSet",
      "type": "event"
    },
    {
      "anonymous": false,
      "inputs": [
        {
          "indexed": true,
          "internalType": "address",
          "name": "collateral",
          "type": "address"
        },
        {
          "indexed": false,
          "internalType": "uint256",
          "name": "stablecoinCap",
          "type": "uint256"
        }
      ],
      "name": "StablecoinCapSet",
      "type": "event"
    },
    {
      "anonymous": false,
      "inputs": [
        {
          "indexed": false,
          "internalType": "enum WhitelistType",
          "name": "whitelistType",
          "type": "uint8"
        },
        {
          "indexed": true,
          "internalType": "address",
          "name": "who",
          "type": "address"
        },
        {
          "indexed": false,
          "internalType": "uint256",
          "name": "whitelistStatus",
          "type": "uint256"
        }
      ],
      "name": "WhitelistStatusToggled",
      "type": "event"
    },
    {
      "inputs": [
        {
          "internalType": "address",
          "name": "collateral",
          "type": "address"
        },
        {
          "internalType": "uint64[]",
          "name": "xFee",
          "type": "uint64[]"
        },
        {
          "internalType": "int64[]",
          "name": "yFee",
          "type": "int64[]"
        },
        {
          "internalType": "bool",
          "name": "mint",
          "type": "bool"
        }
      ],
      "name": "setFees",
      "outputs": [],
      "stateMutability": "nonpayable",
      "type": "function"
    },
    {
      "inputs": [
        {
          "internalType": "uint64[]",
          "name": "xFee",
          "type": "uint64[]"
        },
        {
          "internalType": "int64[]",
          "name": "yFee",
          "type": "int64[]"
        }
      ],
      "name": "setRedemptionCurveParams",
      "outputs": [],
      "stateMutability": "nonpayable",
      "type": "function"
    },
    {
      "inputs": [
        {
          "internalType": "address",
          "name": "collateral",
          "type": "address"
        },
        {
          "internalType": "uint256",
          "name": "stablecoinCap",
          "type": "uint256"
        }
      ],
      "name": "setStablecoinCap",
      "outputs": [],
      "stateMutability": "nonpayable",
      "type": "function"
    },
    {
      "inputs": [
        {
          "internalType": "address",
          "name": "collateral",
          "type": "address"
        },
        {
          "internalType": "enum ActionType",
          "name": "pausedType",
          "type": "uint8"
        }
      ],
      "name": "togglePause",
      "outputs": [],
      "stateMutability": "nonpayable",
      "type": "function"
    },
    {
      "inputs": [
        {
          "internalType": "enum WhitelistType",
          "name": "whitelistType",
          "type": "uint8"
        },
        {
          "internalType": "address",
          "name": "who",
          "type": "address"
        }
      ],
      "name": "toggleWhitelist",
      "outputs": [],
      "stateMutability": "nonpayable",
      "type": "function"
    }
  ],
  "contractName": "SettersGuardian",
  "sourceName": "contracts/monetizer/facets/SettersGuardian.sol",
  "bytecode": "0x6080604052348015600e575f5ffd5b50611dc48061001c5f395ff3fe608060405234801561000f575f5ffd5b5060043610610064575f3560e01c8063629feb621161004d578063629feb6214610090578063a9e6a1a4146100a3578063b607d099146100b6575f5ffd5b80634eec47b914610068578063603b43271461007d575b5f5ffd5b61007b610076366004611879565b6100c9565b005b61007b61008b366004611906565b61011f565b61007b61009e36600461193e565b61016c565b61007b6100b13660046119c5565b6101c1565b61007b6100c43660046119fd565b61020e565b6100d4335f3661025b565b610111576040517f068ca9d80000000000000000000000000000000000000000000000000000000081523360048201526024015b60405180910390fd5b61011b82826103f7565b5050565b61012a335f3661025b565b610162576040517f068ca9d8000000000000000000000000000000000000000000000000000000008152336004820152602401610108565b61011b828261048e565b610177335f3661025b565b6101af576040517f068ca9d8000000000000000000000000000000000000000000000000000000008152336004820152602401610108565b6101bb84848484610570565b50505050565b6101cc335f3661025b565b610204576040517f068ca9d8000000000000000000000000000000000000000000000000000000008152336004820152602401610108565b61011b82826106ef565b610219335f3661025b565b610251576040517f068ca9d8000000000000000000000000000000000000000000000000000000008152336004820152602401610108565b61011b8282610951565b7fc8fcad8db84d3cc18b4c41d551ea0ee66dd599cde068d998e57d5e09332c131d545f9073ffffffffffffffffffffffffffffffffffffffff1681806102b88388306102aa6004868b8d611a33565b6102b391611a5a565b610a8b565b91509150816103e85763ffffffff8116156103dd577f4b2dd303f68b99d244b702089c802b6e9ea1b5d4ef61fd436d6c41abb1178c7580547fffffffffffffffffff00ffffffffffffffffffffffffffffffffffffffffffff167601000000000000000000000000000000000000000000001781556040517f94c7d7ee00000000000000000000000000000000000000000000000000000000815273ffffffffffffffffffffffffffffffffffffffff8516906394c7d7ee90610383908b908b908b90600401611ac0565b5f604051808303815f87803b15801561039a575f5ffd5b505af11580156103ac573d5f5f3e3d5ffd5b505082547fffffffffffffffffff00ffffffffffffffffffffffffffffffffffffffffffff16909255506103e89050565b5f93505050506103f0565b600193505050505b9392505050565b7f4b2dd303f68b99d244b702089c802b6e9ea1b5d4ef61fd436d6c41abb1178c7561042483836002610b8e565b825161043990600383019060208601906115b1565b50815161044f9060048301906020850190611669565b507fdd1690e851f57f138700d42b0a081b3b1b9a97dd2cb2aabc25c92658736290648383604051610481929190611ba0565b60405180910390a1505050565b73ffffffffffffffffffffffffffffffffffffffff82165f9081527f4b2dd303f68b99d244b702089c802b6e9ea1b5d4ef61fd436d6c41abb1178c7a6020526040812080549091630100000090910460ff169003610518576040517f373f15fc00000000000000000000000000000000000000000000000000000000815260040160405180910390fd5b6009810182905560405182815273ffffffffffffffffffffffffffffffffffffffff8416907feb6fe4a9f159360e971932dac27da07532267236a5423eaa27ea9f1cc641354e906020015b60405180910390a2505050565b73ffffffffffffffffffffffffffffffffffffffff84165f9081527f4b2dd303f68b99d244b702089c802b6e9ea1b5d4ef61fd436d6c41abb1178c7a6020526040812080547f4b2dd303f68b99d244b702089c802b6e9ea1b5d4ef61fd436d6c41abb1178c7592630100000090910460ff16900361061a576040517f373f15fc00000000000000000000000000000000000000000000000000000000815260040160405180910390fd5b61063185858561062b576001610b8e565b5f610b8e565b821561066857845161064c90600183019060208801906115b1565b5083516106629060028301906020870190611669565b50610695565b845161067d90600383019060208801906115b1565b5083516106939060048301906020870190611669565b505b8573ffffffffffffffffffffffffffffffffffffffff167f8abfb482e6f6ae87066f0006f10aff1738f4182d4f66b7a084685e4a6c51cfad8686866040516106df93929190611bcd565b60405180910390a2505050505050565b5f8082600281111561070357610703611c04565b14806107205750600182600281111561071e5761071e611c04565b145b156108615773ffffffffffffffffffffffffffffffffffffffff83165f9081527f4b2dd303f68b99d244b702089c802b6e9ea1b5d4ef61fd436d6c41abb1178c7a6020526040812080549091630100000090910460ff1690036107af576040517f373f15fc00000000000000000000000000000000000000000000000000000000815260040160405180910390fd5b5f8360028111156107c2576107c2611c04565b036108125780546107dc90610100900460ff166001611c5e565b81547fffffffffffffffffffffffffffffffffffffffffffffffffffffffffffff00ff1661010060ff831602178255915061085b565b80546108289062010000900460ff166001611c5e565b81547fffffffffffffffffffffffffffffffffffffffffffffffffffffffffff00ffff166201000060ff83160217825591505b506108f0565b7f4b2dd303f68b99d244b702089c802b6e9ea1b5d4ef61fd436d6c41abb1178c7580546108aa9074010000000000000000000000000000000000000000900460ff166001611c5e565b81547fffffffffffffffffffffff00ffffffffffffffffffffffffffffffffffffffff167401000000000000000000000000000000000000000060ff8316021790915590505b8273ffffffffffffffffffffffffffffffffffffffff167f3da495aea17ab24773f3161f4707961a797e39147ce4f8a8fbac0309a4a2d2e483600281111561093a5761093a611c04565b6040805191825260ff851615602083015201610563565b7f4b2dd303f68b99d244b702089c802b6e9ea1b5d4ef61fd436d6c41abb1178c755f7f4b2dd303f68b99d244b702089c802b6e9ea1b5d4ef61fd436d6c41abb1178c7d818580156109a4576109a4611c04565b80156109b2576109b2611c04565b815260208082019290925260409081015f90812073ffffffffffffffffffffffffffffffffffffffff871682529092529020546109f0906001611c7d565b905080600883015f868015610a0757610a07611c04565b8015610a1557610a15611c04565b815260208082019290925260409081015f90812073ffffffffffffffffffffffffffffffffffffffff881680835293528190209290925590517f70d8c44c5d0ca6e337ab06f375d16c97b2dd59b50c9987f04c044fc167c329be90610a7d9087908590611c90565b60405180910390a250505050565b60405173ffffffffffffffffffffffffffffffffffffffff8085166024830152831660448201527fffffffff00000000000000000000000000000000000000000000000000000000821660648201525f9081908190608401604080517fffffffffffffffffffffffffffffffffffffffffffffffffffffffffffffffe0818403018152918152602080830180517bffffffffffffffffffffffffffffffffffffffffffffffffffffffff167fb7009613000000000000000000000000000000000000000000000000000000001781525f808052918290528351939450919290918a5afa15610b84575f516020805191945081901c150291505b5094509492505050565b8251825181141580610b9e575080155b15610bd5576040517fa86b651200000000000000000000000000000000000000000000000000000000815260040160405180910390fd5b5f826002811115610be857610be8611c04565b148015610c885750633b9aca0084610c01600184611c7d565b81518110610c1157610c11611cd3565b602002602001015167ffffffffffffffff16101580610c535750835f81518110610c3d57610c3d611cd3565b602002602001015167ffffffffffffffff165f14155b80610c88575064e8d4a5100083610c6b600184611c7d565b81518110610c7b57610c7b611cd3565b602002602001015160070b135b80610d5857506001826002811115610ca257610ca2611c04565b148015610d585750633b9aca00845f81518110610cc157610cc1611cd3565b602002602001015167ffffffffffffffff16141580610d095750633b9aca0083610cec600184611c7d565b81518110610cfc57610cfc611cd3565b602002602001015160070b135b80610d585750600181118015610d58575082600181518110610d2d57610d2d611cd3565b602002602001015160070b835f81518110610d4a57610d4a611cd3565b602002602001015160070b14155b80610e1257506002826002811115610d7257610d72611c04565b148015610e125750633b9aca0084610d8b600184611c7d565b81518110610d9b57610d9b611cd3565b602002602001015167ffffffffffffffff161180610dde57505f83610dc1600184611c7d565b81518110610dd157610dd1611cd3565b602002602001015160070b125b80610e125750633b9aca0083610df5600184611c7d565b81518110610e0557610e05611cd3565b602002602001015160070b135b15610e49576040517fa86b651200000000000000000000000000000000000000000000000000000000815260040160405180910390fd5b5f5b610e56600183611c7d565b8110156110e3575f836002811115610e7057610e70611c04565b148015610f1a575084610e84826001611d00565b81518110610e9457610e94611cd3565b602002602001015167ffffffffffffffff16858281518110610eb857610eb8611cd3565b602002602001015167ffffffffffffffff16101580610f1a5750838181518110610ee457610ee4611cd3565b602002602001015160070b84826001610efd9190611d00565b81518110610f0d57610f0d611cd3565b602002602001015160070b125b80610fde57506001836002811115610f3457610f34611c04565b148015610fde575084610f48826001611d00565b81518110610f5857610f58611cd3565b602002602001015167ffffffffffffffff16858281518110610f7c57610f7c611cd3565b602002602001015167ffffffffffffffff16111580610fde5750838181518110610fa857610fa8611cd3565b602002602001015160070b84826001610fc19190611d00565b81518110610fd157610fd1611cd3565b602002602001015160070b125b806110a457506002836002811115610ff857610ff8611c04565b1480156110a457508461100c826001611d00565b8151811061101c5761101c611cd3565b602002602001015167ffffffffffffffff1685828151811061104057611040611cd3565b602002602001015167ffffffffffffffff1610158061107a57505f84828151811061106d5761106d611cd3565b602002602001015160070b125b806110a45750633b9aca0084828151811061109757611097611cd3565b602002602001015160070b135b156110db576040517fa86b651200000000000000000000000000000000000000000000000000000000815260040160405180910390fd5b600101610e4b565b505f835f815181106110f7576110f7611cd3565b602002602001015160070b12156101bb57611111336114ed565b611147576040517fee3675d400000000000000000000000000000000000000000000000000000000815260040160405180910390fd5b7f4b2dd303f68b99d244b702089c802b6e9ea1b5d4ef61fd436d6c41abb1178c778054604080516020808402820181019092528281527f4b2dd303f68b99d244b702089c802b6e9ea1b5d4ef61fd436d6c41abb1178c75935f9391929091908301828280156111ea57602002820191905f5260205f20905b815473ffffffffffffffffffffffffffffffffffffffff1681526001909101906020018083116111bf575b505083519394505f92506111fc915050565b85600281111561120e5761120e611c04565b0361136f575f5b8181101561136d575f846005015f85848151811061123557611235611cd3565b602002602001015173ffffffffffffffffffffffffffffffffffffffff1673ffffffffffffffffffffffffffffffffffffffff1681526020019081526020015f206004018054806020026020016040519081016040528092919081815260200182805480156112e357602002820191905f5260205f20905f905b825461010083900a900460070b81526020600f83018190049384019360010360089093019290920291018084116112af5790505b505050505090505f885f815181106112fd576112fd611cd3565b6020026020010151825f8151811061131757611317611cd3565b60200260200101516113299190611d13565b60070b1215611364576040517f1133612100000000000000000000000000000000000000000000000000000000815260040160405180910390fd5b50600101611215565b505b600185600281111561138357611383611c04565b036114e4575f5b818110156114e2575f846005015f8584815181106113aa576113aa611cd3565b602002602001015173ffffffffffffffffffffffffffffffffffffffff1673ffffffffffffffffffffffffffffffffffffffff1681526020019081526020015f2060020180548060200260200160405190810160405280929190818152602001828054801561145857602002820191905f5260205f20905f905b825461010083900a900460070b81526020600f83018190049384019360010360089093019290920291018084116114245790505b505050505090505f815f8151811061147257611472611cd3565b6020026020010151895f8151811061148c5761148c611cd3565b602002602001015161149e9190611d13565b60070b12156114d9576040517f1133612100000000000000000000000000000000000000000000000000000000815260040160405180910390fd5b5060010161138a565b505b50505050505050565b5f807fc8fcad8db84d3cc18b4c41d551ea0ee66dd599cde068d998e57d5e09332c131b600201546040517fd1f856ee000000000000000000000000000000000000000000000000000000008152600a600482015273ffffffffffffffffffffffffffffffffffffffff85811660248301529091169063d1f856ee906044016040805180830381865afa158015611585573d5f5f3e3d5ffd5b505050506040513d601f19601f820116820180604052508101906115a99190611d59565b509392505050565b828054828255905f5260205f2090600301600490048101928215611659579160200282015f5b8382111561162357835183826101000a81548167ffffffffffffffff021916908367ffffffffffffffff16021790555092602001926008016020816007010492830192600103026115d7565b80156116575782816101000a81549067ffffffffffffffff0219169055600801602081600701049283019260010302611623565b505b506116659291506116de565b5090565b828054828255905f5260205f2090600301600490048101928215611659579160200282015f5b8382111561162357835183826101000a81548167ffffffffffffffff021916908360070b67ffffffffffffffff160217905550926020019260080160208160070104928301926001030261168f565b5b80821115611665575f81556001016116df565b7f4e487b71000000000000000000000000000000000000000000000000000000005f52604160045260245ffd5b604051601f82017fffffffffffffffffffffffffffffffffffffffffffffffffffffffffffffffe016810167ffffffffffffffff81118282101715611766576117666116f2565b604052919050565b5f67ffffffffffffffff821115611787576117876116f2565b5060051b60200190565b5f82601f8301126117a0575f5ffd5b81356117b36117ae8261176e565b61171f565b8082825260208201915060208360051b8601019250858311156117d4575f5ffd5b602085015b8381101561180657803567ffffffffffffffff811681146117f8575f5ffd5b8352602092830192016117d9565b5095945050505050565b5f82601f83011261181f575f5ffd5b813561182d6117ae8261176e565b8082825260208201915060208360051b86010192508583111561184e575f5ffd5b602085015b838110156118065780358060070b811461186b575f5ffd5b835260209283019201611853565b5f5f6040838503121561188a575f5ffd5b823567ffffffffffffffff8111156118a0575f5ffd5b6118ac85828601611791565b925050602083013567ffffffffffffffff8111156118c8575f5ffd5b6118d485828601611810565b9150509250929050565b803573ffffffffffffffffffffffffffffffffffffffff81168114611901575f5ffd5b919050565b5f5f60408385031215611917575f5ffd5b611920836118de565b946020939093013593505050565b801515811461193b575f5ffd5b50565b5f5f5f5f60808587031215611951575f5ffd5b61195a856118de565b9350602085013567ffffffffffffffff811115611975575f5ffd5b61198187828801611791565b935050604085013567ffffffffffffffff81111561199d575f5ffd5b6119a987828801611810565b92505060608501356119ba8161192e565b939692955090935050565b5f5f604083850312156119d6575f5ffd5b6119df836118de565b91506020830135600381106119f2575f5ffd5b809150509250929050565b5f5f60408385031215611a0e575f5ffd5b823560018110611a1c575f5ffd5b9150611a2a602084016118de565b90509250929050565b5f5f85851115611a41575f5ffd5b83861115611a4d575f5ffd5b5050820193919092039150565b80357fffffffff000000000000000000000000000000000000000000000000000000008116906004841015611ab9577fffffffff00000000000000000000000000000000000000000000000000000000808560040360031b1b82161691505b5092915050565b73ffffffffffffffffffffffffffffffffffffffff8416815260406020820152816040820152818360608301375f818301606090810191909152601f9092017fffffffffffffffffffffffffffffffffffffffffffffffffffffffffffffffe016010192915050565b5f8151808452602084019350602083015f5b82811015611b6357815167ffffffffffffffff16865260209586019590910190600101611b3b565b5093949350505050565b5f8151808452602084019350602083015f5b82811015611b6357815160070b865260209586019590910190600101611b7f565b604081525f611bb26040830185611b29565b8281036020840152611bc48185611b6d565b95945050505050565b606081525f611bdf6060830186611b29565b8281036020840152611bf18186611b6d565b9150508215156040830152949350505050565b7f4e487b71000000000000000000000000000000000000000000000000000000005f52602160045260245ffd5b7f4e487b71000000000000000000000000000000000000000000000000000000005f52601160045260245ffd5b60ff8281168282160390811115611c7757611c77611c31565b92915050565b81810381811115611c7757611c77611c31565b6040810160018410611cc9577f4e487b71000000000000000000000000000000000000000000000000000000005f52602160045260245ffd5b9281526020015290565b7f4e487b71000000000000000000000000000000000000000000000000000000005f52603260045260245ffd5b80820180821115611c7757611c77611c31565b600781810b9083900b01677fffffffffffffff81137fffffffffffffffffffffffffffffffffffffffffffffffff800000000000000082121715611c7757611c77611c31565b5f5f60408385031215611d6a575f5ffd5b8251611d758161192e565b602084015190925063ffffffff811681146119f2575f5ffdfea26469706673582212207ce50c0e2f409cf674cff9f2d39730014e8a361eeba5f78bcc0b4291ebeef8d164736f6c634300081c0033",
  "linkReferences": {},
  "deployedLinkReferences": {},
  "immutableReferences": {},
  "inputSourceName": "project/contracts/monetizer/facets/SettersGuardian.sol",
  "devdoc": {
    "author": "Cooper Labs",
    "custom:contact": "security@monet.cash",
    "details": "This contract is an authorized fork of Angle's `SettersGuardian` contract https://github.com/AngleProtocol/angle-transmuter/blob/main/contracts/monetizer/facets/SettersGuardian.sol",
    "kind": "dev",
    "methods": {},
    "title": "SettersGuardian",
    "version": 1
  },
  "evm": {
    "gasEstimates": {
      "creation": {
        "codeDepositCost": "1524000",
        "executionCost": "1594",
        "totalCost": "1525594"
      },
      "external": {
        "setFees(address,uint64[],int64[],bool)": "infinite",
        "setRedemptionCurveParams(uint64[],int64[])": "infinite",
        "setStablecoinCap(address,uint256)": "infinite",
        "togglePause(address,uint8)": "infinite",
        "toggleWhitelist(uint8,address)": "infinite"
      }
    }
  },
  "storageLayout": {
    "storage": [],
    "types": null
  },
  "userdoc": {
    "kind": "user",
    "methods": {
      "setFees(address,uint64[],int64[],bool)": {
        "notice": "Sets the mint or burn fees for `collateral`"
      },
      "setRedemptionCurveParams(uint64[],int64[])": {
        "notice": "Sets the parameters for the redemption curve"
      },
      "setStablecoinCap(address,uint256)": {
        "notice": "Sets the stablecoin cap that can be issued from a `collateral`"
      },
      "togglePause(address,uint8)": {
        "notice": "Changes the pause status for mint or burn transactions for `collateral`"
      },
      "toggleWhitelist(uint8,address)": {
        "notice": "Changes the whitelist status for a collateral with `whitelistType` for an address `who`"
      }
    },
    "version": 1
  },
  "argsData": "0x",
  "transaction": {
    "hash": "0x45ce28f63ad984539f8be775ff6db3257fd4fa4fd5d1d1788f1396b5c78a4183",
    "nonce": "0x3b",
    "origin": "0x10a852971d242a04829b541c32f09ad9ec1b227d"
  }
}