{
  "address": "0x0c2249a97af9d34810223d0c994a2d92d56a7156",
  "abi": [
    {
      "inputs": [
        {
          "internalType": "address",
          "name": "caller",
          "type": "address"
        }
      ],
      "name": "AccessManagedUnauthorized",
      "type": "error"
    },
    {
      "inputs": [],
      "name": "AlreadyAdded",
      "type": "error"
    },
    {
      "inputs": [],
      "name": "CollateralBacked",
      "type": "error"
    },
    {
      "inputs": [],
      "name": "InvalidAccessManager",
      "type": "error"
    },
    {
      "inputs": [],
      "name": "InvalidChainlinkRate",
      "type": "error"
    },
    {
      "inputs": [],
      "name": "InvalidParams",
      "type": "error"
    },
    {
      "inputs": [],
      "name": "ManagerHasAssets",
      "type": "error"
    },
    {
      "inputs": [],
      "name": "NotCollateral",
      "type": "error"
    },
    {
      "inputs": [],
      "name": "NotTrusted",
      "type": "error"
    },
    {
      "inputs": [],
      "name": "OracleUpdateFailed",
      "type": "error"
    },
    {
      "inputs": [
        {
          "internalType": "uint8",
          "name": "bits",
          "type": "uint8"
        },
        {
          "internalType": "uint256",
          "name": "value",
          "type": "uint256"
        }
      ],
      "name": "SafeCastOverflowedUintDowncast",
      "type": "error"
    },
    {
      "inputs": [
        {
          "internalType": "address",
          "name": "spender",
          "type": "address"
        },
        {
          "internalType": "uint256",
          "name": "currentAllowance",
          "type": "uint256"
        },
        {
          "internalType": "uint256",
          "name": "requestedDecrease",
          "type": "uint256"
        }
      ],
      "name": "SafeERC20FailedDecreaseAllowance",
      "type": "error"
    },
    {
      "inputs": [
        {
          "internalType": "address",
          "name": "token",
          "type": "address"
        }
      ],
      "name": "SafeERC20FailedOperation",
      "type": "error"
    },
    {
      "anonymous": false,
      "inputs": [
        {
          "indexed": true,
          "internalType": "address",
          "name": "collateral",
          "type": "address"
        }
      ],
      "name": "CollateralAdded",
      "type": "event"
    },
    {
      "anonymous": false,
      "inputs": [
        {
          "indexed": true,
          "internalType": "address",
          "name": "collateral",
          "type": "address"
        },
        {
          "components": [
            {
              "internalType": "contract IERC20[]",
              "name": "subCollaterals",
              "type": "address[]"
            },
            {
              "internalType": "bytes",
              "name": "config",
              "type": "bytes"
            }
          ],
          "indexed": false,
          "internalType": "struct ManagerStorage",
          "name": "managerData",
          "type": "tuple"
        }
      ],
      "name": "CollateralManagerSet",
      "type": "event"
    },
    {
      "anonymous": false,
      "inputs": [
        {
          "indexed": true,
          "internalType": "address",
          "name": "collateral",
          "type": "address"
        }
      ],
      "name": "CollateralRevoked",
      "type": "event"
    },
    {
      "anonymous": false,
      "inputs": [
        {
          "indexed": true,
          "internalType": "address",
          "name": "collateral",
          "type": "address"
        },
        {
          "indexed": false,
          "internalType": "bytes",
          "name": "whitelistData",
          "type": "bytes"
        },
        {
          "indexed": false,
          "internalType": "uint8",
          "name": "whitelistStatus",
          "type": "uint8"
        }
      ],
      "name": "CollateralWhitelistStatusUpdated",
      "type": "event"
    },
    {
      "anonymous": false,
      "inputs": [
        {
          "indexed": true,
          "internalType": "address",
          "name": "collateral",
          "type": "address"
        },
        {
          "indexed": false,
          "internalType": "bytes",
          "name": "oracleConfig",
          "type": "bytes"
        }
      ],
      "name": "OracleSet",
      "type": "event"
    },
    {
      "anonymous": false,
      "inputs": [
        {
          "indexed": true,
          "internalType": "address",
          "name": "previousOwner",
          "type": "address"
        },
        {
          "indexed": true,
          "internalType": "address",
          "name": "newOwner",
          "type": "address"
        }
      ],
      "name": "OwnershipTransferred",
      "type": "event"
    },
    {
      "anonymous": false,
      "inputs": [
        {
          "indexed": true,
          "internalType": "address",
          "name": "token",
          "type": "address"
        },
        {
          "indexed": true,
          "internalType": "address",
          "name": "to",
          "type": "address"
        },
        {
          "indexed": false,
          "internalType": "uint256",
          "name": "amount",
          "type": "uint256"
        }
      ],
      "name": "Recovered",
      "type": "event"
    },
    {
      "anonymous": false,
      "inputs": [
        {
          "indexed": true,
          "internalType": "address",
          "name": "collateral",
          "type": "address"
        },
        {
          "indexed": false,
          "internalType": "uint256",
          "name": "amount",
          "type": "uint256"
        },
        {
          "indexed": false,
          "internalType": "bool",
          "name": "increase",
          "type": "bool"
        }
      ],
      "name": "ReservesAdjusted",
      "type": "event"
    },
    {
      "anonymous": false,
      "inputs": [
        {
          "indexed": true,
          "internalType": "address",
          "name": "sender",
          "type": "address"
        },
        {
          "indexed": false,
          "internalType": "bool",
          "name": "isTrusted",
          "type": "bool"
        },
        {
          "indexed": false,
          "internalType": "enum TrustedType",
          "name": "trustedType",
          "type": "uint8"
        }
      ],
      "name": "TrustedToggled",
      "type": "event"
    },
    {
      "inputs": [
        {
          "internalType": "address",
          "name": "collateral",
          "type": "address"
        }
      ],
      "name": "addCollateral",
      "outputs": [],
      "stateMutability": "nonpayable",
      "type": "function"
    },
    {
      "inputs": [
        {
          "internalType": "address",
          "name": "collateral",
          "type": "address"
        },
        {
          "internalType": "uint128",
          "name": "amount",
          "type": "uint128"
        },
        {
          "internalType": "bool",
          "name": "increase",
          "type": "bool"
        }
      ],
      "name": "adjustStablecoins",
      "outputs": [],
      "stateMutability": "nonpayable",
      "type": "function"
    },
    {
      "inputs": [
        {
          "internalType": "contract IERC20",
          "name": "token",
          "type": "address"
        },
        {
          "internalType": "address",
          "name": "spender",
          "type": "address"
        },
        {
          "internalType": "uint256",
          "name": "amount",
          "type": "uint256"
        }
      ],
      "name": "changeAllowance",
      "outputs": [],
      "stateMutability": "nonpayable",
      "type": "function"
    },
    {
      "inputs": [
        {
          "internalType": "address",
          "name": "collateral",
          "type": "address"
        },
        {
          "internalType": "contract IERC20",
          "name": "token",
          "type": "address"
        },
        {
          "internalType": "address",
          "name": "to",
          "type": "address"
        },
        {
          "internalType": "uint256",
          "name": "amount",
          "type": "uint256"
        }
      ],
      "name": "recoverERC20",
      "outputs": [],
      "stateMutability": "nonpayable",
      "type": "function"
    },
    {
      "inputs": [
        {
          "internalType": "address",
          "name": "collateral",
          "type": "address"
        },
        {
          "internalType": "bool",
          "name": "checkExternalManagerBalance",
          "type": "bool"
        }
      ],
      "name": "revokeCollateral",
      "outputs": [],
      "stateMutability": "nonpayable",
      "type": "function"
    },
    {
      "inputs": [
        {
          "internalType": "address",
          "name": "_newAccessManager",
          "type": "address"
        }
      ],
      "name": "setAccessManager",
      "outputs": [],
      "stateMutability": "nonpayable",
      "type": "function"
    },
    {
      "inputs": [
        {
          "internalType": "address",
          "name": "collateral",
          "type": "address"
        },
        {
          "internalType": "bool",
          "name": "checkExternalManagerBalance",
          "type": "bool"
        },
        {
          "components": [
            {
              "internalType": "contract IERC20[]",
              "name": "subCollaterals",
              "type": "address[]"
            },
            {
              "internalType": "bytes",
              "name": "config",
              "type": "bytes"
            }
          ],
          "internalType": "struct ManagerStorage",
          "name": "managerData",
          "type": "tuple"
        }
      ],
      "name": "setCollateralManager",
      "outputs": [],
      "stateMutability": "nonpayable",
      "type": "function"
    },
    {
      "inputs": [
        {
          "internalType": "address",
          "name": "collateral",
          "type": "address"
        },
        {
          "internalType": "bytes",
          "name": "oracleConfig",
          "type": "bytes"
        }
      ],
      "name": "setOracle",
      "outputs": [],
      "stateMutability": "nonpayable",
      "type": "function"
    },
    {
      "inputs": [
        {
          "internalType": "address",
          "name": "collateral",
          "type": "address"
        },
        {
          "internalType": "uint8",
          "name": "whitelistStatus",
          "type": "uint8"
        },
        {
          "internalType": "bytes",
          "name": "whitelistData",
          "type": "bytes"
        }
      ],
      "name": "setWhitelistStatus",
      "outputs": [],
      "stateMutability": "nonpayable",
      "type": "function"
    },
    {
      "inputs": [
        {
          "internalType": "address",
          "name": "sender",
          "type": "address"
        },
        {
          "internalType": "enum TrustedType",
          "name": "t",
          "type": "uint8"
        }
      ],
      "name": "toggleTrusted",
      "outputs": [],
      "stateMutability": "nonpayable",
      "type": "function"
    },
    {
      "inputs": [
        {
          "internalType": "address",
          "name": "collateral",
          "type": "address"
        }
      ],
      "name": "updateOracle",
      "outputs": [],
      "stateMutability": "nonpayable",
      "type": "function"
    }
  ],
  "contractName": "SettersGovernor",
  "sourceName": "contracts/monetizer/facets/SettersGovernor.sol",
  "bytecode": "0x6080604052348015600e575f5ffd5b50613b2b8061001c5f395ff3fe608060405234801561000f575f5ffd5b50600436106100c4575f3560e01c80637c0343a11161007d578063c1cdee7e11610058578063c1cdee7e14610162578063c958080414610175578063f0d2d5a814610188575f5ffd5b80637c0343a11461012957806387c8ab7a1461013c578063b13b08471461014f575f5ffd5b80634591f148116100ad5780634591f148146100f05780634d2b3e14146101035780635c3eebda14610116575f5ffd5b80631b0c7182146100c85780631cb44dfc146100dd575b5f5ffd5b6100db6100d6366004612b85565b61019b565b005b6100db6100eb366004612be3565b6101f3565b6100db6100fe366004612c0b565b610265565b6100db610111366004612c65565b6102b6565b6100db610124366004612d82565b610304565b6100db610137366004612ddc565b61048d565b6100db61014a366004612e08565b6104da565b6100db61015d366004612e46565b610602565b6100db610170366004612eb0565b61064f565b6100db610183366004612be3565b61069d565b6100db610196366004612be3565b6106e9565b6101a6335f36610735565b6101e3576040517f068ca9d80000000000000000000000000000000000000000000000000000000081523360048201526024015b60405180910390fd5b6101ee8383836108b7565b505050565b335f9081527f4b2dd303f68b99d244b702089c802b6e9ea1b5d4ef61fd436d6c41abb1178c7c60205260408120549003610259576040517fc22a648e00000000000000000000000000000000000000000000000000000000815260040160405180910390fd5b610262816109fd565b50565b610270335f36610735565b6102a8576040517f068ca9d80000000000000000000000000000000000000000000000000000000081523360048201526024016101da565b6102b28282610c91565b5050565b6102c1335f36610735565b6102f9576040517f068ca9d80000000000000000000000000000000000000000000000000000000081523360048201526024016101da565b6101ee8383836110ab565b61030f335f36610735565b610347576040517f068ca9d80000000000000000000000000000000000000000000000000000000081523360048201526024016101da565b6001600160a01b0384165f9081527f4b2dd303f68b99d244b702089c802b6e9ea1b5d4ef61fd436d6c41abb1178c7a60205260409020805460ff16156104255761042084848484600701600101805461039f90612ef8565b80601f01602080910402602001604051908101604052809291908181526020018280546103cb90612ef8565b80156104165780601f106103ed57610100808354040283529160200191610416565b820191905f5260205f20905b8154815290600101906020018083116103f957829003601f168201915b50505050506112e4565b610439565b6104396001600160a01b03851684846113a6565b826001600160a01b0316846001600160a01b03167ffff3b3844276f57024e0b42afec1a37f75db36511e43819a4f2a63ab7862b6488460405161047e91815260200190565b60405180910390a35050505050565b610498335f36610735565b6104d0576040517f068ca9d80000000000000000000000000000000000000000000000000000000081523360048201526024016101da565b6102b2828261141a565b6104e5335f36610735565b61051d576040517f068ca9d80000000000000000000000000000000000000000000000000000000081523360048201526024016101da565b6040517fdd62ed3e0000000000000000000000000000000000000000000000000000000081523060048201526001600160a01b0383811660248301525f919085169063dd62ed3e90604401602060405180830381865afa158015610583573d5f5f3e3d5ffd5b505050506040513d601f19601f820116820180604052508101906105a79190612f49565b9050818110156105d5576105d0836105bf8385612f8d565b6001600160a01b038716919061151e565b6105fc565b818111156105fc576105fc836105eb8484612f8d565b6001600160a01b03871691906115be565b50505050565b61060d335f36610735565b610645576040517f068ca9d80000000000000000000000000000000000000000000000000000000081523360048201526024016101da565b6102b282826116aa565b61065a335f36610735565b610692576040517f068ca9d80000000000000000000000000000000000000000000000000000000081523360048201526024016101da565b6101ee838383611786565b6106a8335f36610735565b6106e0576040517f068ca9d80000000000000000000000000000000000000000000000000000000081523360048201526024016101da565b61026281611aac565b6106f4335f36610735565b61072c576040517f068ca9d80000000000000000000000000000000000000000000000000000000081523360048201526024016101da565b61026281611b9b565b7fc8fcad8db84d3cc18b4c41d551ea0ee66dd599cde068d998e57d5e09332c131d545f906001600160a01b031681806107858388306107776004868b8d612fa0565b61078091612fc7565b611d43565b91509150816108a85763ffffffff81161561089d577f4b2dd303f68b99d244b702089c802b6e9ea1b5d4ef61fd436d6c41abb1178c7580547fffffffffffffffffff00ffffffffffffffffffffffffffffffffffffffffffff167601000000000000000000000000000000000000000000001781556040517f94c7d7ee0000000000000000000000000000000000000000000000000000000081526001600160a01b038516906394c7d7ee90610843908b908b908b9060040161302d565b5f604051808303815f87803b15801561085a575f5ffd5b505af115801561086c573d5f5f3e3d5ffd5b505082547fffffffffffffffffff00ffffffffffffffffffffffffffffffffffffffffffff16909255506108a89050565b5f93505050506108b0565b600193505050505b9392505050565b6001600160a01b0383165f9081527f4b2dd303f68b99d244b702089c802b6e9ea1b5d4ef61fd436d6c41abb1178c7a6020526040812080549091630100000090910460ff169003610934576040517f373f15fc00000000000000000000000000000000000000000000000000000000815260040160405180910390fd5b8260ff1660010361095e576109498230611e1b565b506006810161095883826130b6565b5061097d565b60408051602081019091525f8152600682019061097b90826130b6565b505b80547fffffffffffffffffffffffffffffffffffffffffffffffffffffff00ffffffff1664010000000060ff8516021781556040516001600160a01b038516907f191460c727cbee9e6c46ead7c01c84a1fe8f0b99186af38917ac57de17e6ba99906109ef9060068501908790613171565b60405180910390a250505050565b6001600160a01b0381165f9081527f4b2dd303f68b99d244b702089c802b6e9ea1b5d4ef61fd436d6c41abb1178c7a60205260408120547f4b2dd303f68b99d244b702089c802b6e9ea1b5d4ef61fd436d6c41abb1178c7591630100000090910460ff169003610a99576040517f373f15fc00000000000000000000000000000000000000000000000000000000815260040160405180910390fd5b5f5f5f5f5f610b55866005015f896001600160a01b03166001600160a01b031681526020019081526020015f206005018054610ad490612ef8565b80601f0160208091040260200160405190810160405280929190818152602001828054610b0090612ef8565b8015610b4b5780601f10610b2257610100808354040283529160200191610b4b565b820191905f5260205f20905b815481529060010190602001808311610b2e57829003601f168201915b5050505050611fa1565b9398509196509450925090506008846009811115610b7557610b7561321e565b14610bac576040517faa2d4fb600000000000000000000000000000000000000000000000000000000815260040160405180910390fd5b5f610bc086670de0b6b3a764000086611fce565b90505f83806020019051810190610bd79190612f49565b905080821115610c545786868684604051602001610bf791815260200190565b60408051601f1981840301815290829052610c1994939291889060200161328d565b60408051601f198184030181529181526001600160a01b038b165f9081526005808c016020529190200190610c4e90826130b6565b50610c86565b6040517faa2d4fb600000000000000000000000000000000000000000000000000000000815260040160405180910390fd5b505050505050505050565b6001600160a01b0382165f9081527f4b2dd303f68b99d244b702089c802b6e9ea1b5d4ef61fd436d6c41abb1178c7a6020526040812080547f4b2dd303f68b99d244b702089c802b6e9ea1b5d4ef61fd436d6c41abb1178c7592630100000090910460ff169003610d2e576040517f373f15fc00000000000000000000000000000000000000000000000000000000815260040160405180910390fd5b80546501000000000090047affffffffffffffffffffffffffffffffffffffffffffffffffffff1615610d8d576040517fba80a36400000000000000000000000000000000000000000000000000000000815260040160405180910390fd5b805460ff168015801590610d9e5750835b15610e77575f610e3a836007016001018054610db990612ef8565b80601f0160208091040260200160405190810160405280929190818152602001828054610de590612ef8565b8015610e305780601f10610e0757610100808354040283529160200191610e30565b820191905f5260205f20905b815481529060010190602001808311610e1357829003601f168201915b50505050506123cc565b9150508015610e75576040517f9e7761b000000000000000000000000000000000000000000000000000000000815260040160405180910390fd5b505b6001600160a01b0385165f908152600584016020526040812081815590610ea16001830182612968565b610eae600283015f612968565b610ebb600383015f612968565b610ec8600483015f612968565b610ed5600583015f61298a565b610ee2600683015f61298a565b600782015f610ef182826129c1565b610efe600183015f61298a565b5050600982015f905550505f83600201805480602002602001604051908101604052809291908181526020018280548015610f6057602002820191905f5260205f20905b81546001600160a01b03168152600190910190602001808311610f42575b505083519394505f925050505b610f78600183612f8d565b81101561102257876001600160a01b0316838281518110610f9b57610f9b6132df565b60200260200101516001600160a01b03160361101a5782610fbd600184612f8d565b81518110610fcd57610fcd6132df565b6020026020010151866002018281548110610fea57610fea6132df565b905f5260205f20015f6101000a8154816001600160a01b0302191690836001600160a01b03160217905550611022565b600101610f6d565b50846002018054806110365761103661330c565b5f8281526020812082015f1990810180547fffffffffffffffffffffffff00000000000000000000000000000000000000001690559091019091556040516001600160a01b038916917f10d8ed8cba916885e339cb21deefb3842b3f417eac81a7f34b2978b4ecc2040f91a250505050505050565b6001600160a01b0383165f9081527f4b2dd303f68b99d244b702089c802b6e9ea1b5d4ef61fd436d6c41abb1178c7a6020526040812080549091630100000090910460ff169003611128576040517f373f15fc00000000000000000000000000000000000000000000000000000000815260040160405180910390fd5b805460ff1680158015906111395750835b15611191575f611154836007016001018054610db990612ef8565b915050801561118f576040517f9e7761b000000000000000000000000000000000000000000000000000000000815260040160405180910390fd5b505b6020830151511561124057846001600160a01b0316835f01515f815181106111bb576111bb6132df565b60200260200101516001600160a01b031614611203576040517fa86b651200000000000000000000000000000000000000000000000000000000815260040160405180910390fd5b611210836020015161247b565b505081547fffffffffffffffffffffffffffffffffffffffffffffffffffffffffffffff00166001178255611267565b81547fffffffffffffffffffffffffffffffffffffffffffffffffffffffffffffff001682555b82518051849160078501916112839183916020909101906129dc565b506020820151600182019061129890826130b6565b50905050846001600160a01b03167f174af9868421277c39ff3056a92d06c83d74df4c7f64258add97ea2bdc022d81846040516112d59190613339565b60405180910390a25050505050565b5f5f6112ef8361247b565b90925090505f8280156113045761130461321e565b0361139e578080602001905181019061131d91906133a8565b6040517f8bfb07c90000000000000000000000000000000000000000000000000000000081526001600160a01b0388811660048301528781166024830152604482018790529190911690638bfb07c9906064015f604051808303815f87803b158015611387575f5ffd5b505af1158015611399573d5f5f3e3d5ffd5b505050505b505050505050565b6040516001600160a01b038381166024830152604482018390526101ee91859182169063a9059cbb906064015b604051602081830303815290604052915060e01b6020820180517bffffffffffffffffffffffffffffffffffffffffffffffffffffffff838183161783525050505061249c565b7f4b2dd303f68b99d244b702089c802b6e9ea1b5d4ef61fd436d6c41abb1178c755f8083600181111561144f5761144f61321e565b0361149c576001600160a01b0384165f908152600683016020526040902054611479906001612f8d565b6001600160a01b0385165f908152600684016020526040902081905590506114e0565b6001600160a01b0384165f9081526007830160205260409020546114c1906001612f8d565b6001600160a01b0385165f908152600784016020526040902081905590505b836001600160a01b03167ff659c9a30c41638c696d64b6e8cc1ee8fff543e973ffc1e9e2d794225ae0178a82600114856040516109ef9291906133c3565b6040517fdd62ed3e0000000000000000000000000000000000000000000000000000000081523060048201526001600160a01b0383811660248301525f919085169063dd62ed3e90604401602060405180830381865afa158015611584573d5f5f3e3d5ffd5b505050506040513d601f19601f820116820180604052508101906115a89190612f49565b90506105fc84846115b985856133e9565b612521565b6040517fdd62ed3e0000000000000000000000000000000000000000000000000000000081523060048201526001600160a01b0383811660248301525f919085169063dd62ed3e90604401602060405180830381865afa158015611624573d5f5f3e3d5ffd5b505050506040513d601f19601f820116820180604052508101906116489190612f49565b90508181101561169d576040517fe570110f0000000000000000000000000000000000000000000000000000000081526001600160a01b038416600482015260248101829052604481018390526064016101da565b6105fc8484848403612521565b6001600160a01b0382165f9081527f4b2dd303f68b99d244b702089c802b6e9ea1b5d4ef61fd436d6c41abb1178c7a6020526040812080549091630100000090910460ff169003611727576040517f373f15fc00000000000000000000000000000000000000000000000000000000815260040160405180910390fd5b611730826125de565b506005810161173f83826130b6565b50826001600160a01b03167fba11329c0b0f98b91c254755aa8d698feac3b46fab65b65fe5ab7570de2ff9288360405161177991906133fc565b60405180910390a2505050565b6001600160a01b0383165f9081527f4b2dd303f68b99d244b702089c802b6e9ea1b5d4ef61fd436d6c41abb1178c7a6020526040812080547f4b2dd303f68b99d244b702089c802b6e9ea1b5d4ef61fd436d6c41abb1178c7592630100000090910460ff169003611823576040517f373f15fc00000000000000000000000000000000000000000000000000000000815260040160405180910390fd5b60018201545f9061187f906fffffffffffffffffffffffffffffffff700100000000000000000000000000000000909104811690611870906b033b2e3c9fd0803ce800000090891661340e565b61187a9190613425565b6126ea565b9050831561196c5781546118cc906fffffffffffffffffffffffffffffffff8316906501000000000090047affffffffffffffffffffffffffffffffffffffffffffffffffffff1661345d565b82547affffffffffffffffffffffffffffffffffffffffffffffffffffff91909116650100000000000264ffffffffff90911617825560018301546119249082906fffffffffffffffffffffffffffffffff16613490565b6001840180547fffffffffffffffffffffffffffffffff00000000000000000000000000000000166fffffffffffffffffffffffffffffffff92909216919091179055611a4d565b81546119b1906fffffffffffffffffffffffffffffffff8316906501000000000090047affffffffffffffffffffffffffffffffffffffffffffffffffffff166134b8565b82547affffffffffffffffffffffffffffffffffffffffffffffffffffff91909116650100000000000264ffffffffff9091161782556001830154611a099082906fffffffffffffffffffffffffffffffff166134eb565b6001840180547fffffffffffffffffffffffffffffffff00000000000000000000000000000000166fffffffffffffffffffffffffffffffff929092169190911790555b604080516fffffffffffffffffffffffffffffffff8716815285151560208201526001600160a01b038816917f2347e219eb6e83e63152eb917ddb1df919c0f9208fa91dda0bd14822c6be1d07910160405180910390a2505050505050565b806001600160a01b03163b5f03611aef576040517fa98154e200000000000000000000000000000000000000000000000000000000815260040160405180910390fd5b7fc8fcad8db84d3cc18b4c41d551ea0ee66dd599cde068d998e57d5e09332c131d80547fffffffffffffffffffffffff000000000000000000000000000000000000000081166001600160a01b038481169182179093556040517fc8fcad8db84d3cc18b4c41d551ea0ee66dd599cde068d998e57d5e09332c131b939092169182907f8be0079c531659141344cd1fd0a4f28419497f9722a3daafe3b4186f6b6457e0905f90a3505050565b6001600160a01b0381165f9081527f4b2dd303f68b99d244b702089c802b6e9ea1b5d4ef61fd436d6c41abb1178c7a6020526040902080547f4b2dd303f68b99d244b702089c802b6e9ea1b5d4ef61fd436d6c41abb1178c7591906301000000900460ff1615611c37576040517ff411c32700000000000000000000000000000000000000000000000000000000815260040160405180910390fd5b826001600160a01b031663313ce5676040518163ffffffff1660e01b8152600401602060405180830381865afa158015611c73573d5f5f3e3d5ffd5b505050506040513d601f19601f82011682018060405250810190611c979190613513565b815460ff919091166301000000027fffffffffffffffffffffffffffffffffffffffffffffffffffffffff00ffffff9091161781556002820180546001810182555f918252602082200180546001600160a01b0386167fffffffffffffffffffffffff0000000000000000000000000000000000000000909116811790915560405190917f7db05e63d635a68c62fd7fd8f3107ae8ab584a383e102d1bd8a40f4c977e465f91a2505050565b6040516001600160a01b038085166024830152831660448201527fffffffff00000000000000000000000000000000000000000000000000000000821660648201525f908190819060840160408051601f19818403018152918152602080830180517bffffffffffffffffffffffffffffffffffffffffffffffffffffffff167fb7009613000000000000000000000000000000000000000000000000000000001781525f808052918290528351939450919290918a5afa15611e11575f516020805191945081901c150291505b5094509492505050565b5f5f5f84806020019051810190611e329190613587565b915091505f611e5e7f4b2dd303f68b99d244b702089c802b6e9ea1b5d4ef61fd436d6c41abb1178c7590565b6008015f848015611e7157611e7161321e565b8015611e7f57611e7f61321e565b81526020019081526020015f205f866001600160a01b03166001600160a01b031681526020019081526020015f20541115611ebf57600192505050611f9b565b805115611f95575f828015611ed657611ed661321e565b03611f95575f81806020019051810190611ef091906133a8565b90506001600160a01b03811615611f93576040517f65e4ad9e0000000000000000000000000000000000000000000000000000000081523060048201526001600160a01b0386811660248301528216906365e4ad9e906044016020604051808303815f875af1158015611f65573d5f5f3e3d5ffd5b505050506040513d601f19601f82011682018060405250810190611f8991906135cb565b9350505050611f9b565b505b5f925050505b92915050565b5f5f606080606085806020019051810190611fbc91906135f9565b939a9299509097509550909350915050565b5f80846009811115611fe257611fe261321e565b036120b2575f5f5f5f5f86806020019051810190612000919061378d565b945094509450945094505f612015828a612743565b86519091505f5b818110156120a2576120988389838151811061203a5761203a6132df565b6020026020010151888481518110612054576120546132df565b602002602001015188858151811061206e5761206e6132df565b602002602001015160ff168b868151811061208b5761208b6132df565b6020026020010151612772565b925060010161201c565b50819750505050505050506108b0565b60038460098111156120c6576120c661321e565b036120da5750670de0b6b3a76400006108b0565b60028460098111156120ee576120ee61321e565b036120fa5750816108b0565b600484600981111561210e5761210e61321e565b036121ac576040517f7a28fb88000000000000000000000000000000000000000000000000000000008152670de0b6b3a7640000600482015273ae7ab96520de3a18e5e111b5eaab095312d7fe8490637a28fb8890602401602060405180830381865afa158015612181573d5f5f3e3d5ffd5b505050506040513d601f19601f820116820180604052508101906121a59190612f49565b90506108b0565b60058460098111156121c0576121c061321e565b036122155773be9895146f7af43049ca1c1ae358b0541ea497046001600160a01b0316633ba0b9a96040518163ffffffff1660e01b8152600401602060405180830381865afa158015612181573d5f5f3e3d5ffd5b60068460098111156122295761222961321e565b0361227e5773ae78736cd615f374d3085123a210448e74fc63936001600160a01b031663e6aa216c6040518163ffffffff1660e01b8152600401602060405180830381865afa158015612181573d5f5f3e3d5ffd5b60078460098111156122925761229261321e565b036122e75773ac3e018457b222d93114458476f3e3416abbe38f6001600160a01b03166399530b066040518163ffffffff1660e01b8152600401602060405180830381865afa158015612181573d5f5f3e3d5ffd5b60088460098111156122fb576122fb61321e565b0361231e575f828060200190518101906123159190612f49565b91506108b09050565b60098460098111156123325761233261321e565b036123c5575f5f8380602001905181019061234d91906138b8565b9150915080826001600160a01b031663a035b1fe6040518163ffffffff1660e01b8152600401602060405180830381865afa15801561238e573d5f5f3e3d5ffd5b505050506040513d601f19601f820116820180604052508101906123b29190612f49565b6123bc9190613425565b925050506108b0565b50816108b0565b60605f5f5f6123da8561247b565b90925090505f8280156123ef576123ef61321e565b03612474578080602001905181019061240891906133a8565b6001600160a01b03166301e1d1146040518163ffffffff1660e01b81526004015f60405180830381865afa158015612442573d5f5f3e3d5ffd5b505050506040513d5f823e601f3d908101601f1916820160405261246991908101906138e4565b935093505050915091565b5050915091565b5f6060828060200190518101906124929190613587565b9094909350915050565b5f5f60205f8451602086015f885af1806124bb576040513d5f823e3d81fd5b50505f513d915081156124d25780600114156124df565b6001600160a01b0384163b155b156105fc576040517f5274afe70000000000000000000000000000000000000000000000000000000081526001600160a01b03851660048201526024016101da565b604080516001600160a01b038416602482015260448082018490528251808303909101815260649091019091526020810180517bffffffffffffffffffffffffffffffffffffffffffffffffffffffff167f095ea7b3000000000000000000000000000000000000000000000000000000001790526125a08482612882565b6105fc576040516001600160a01b0384811660248301525f60448301526125d491869182169063095ea7b3906064016113d3565b6105fc848261249c565b5f5f5f5f5f5f6125ed87611fa1565b939850919650945092509050600185600981111561260d5761260d61321e565b03612695575f8380602001905181019061262791906133a8565b9050806001600160a01b0316635ade93556040518163ffffffff1660e01b8152600401602060405180830381865afa158015612665573d5f5f3e3d5ffd5b505050506040513d601f19601f820116820180604052508101906126899190612f49565b98975050505050505050565b5f818060200190518101906126aa919061397f565b5090505f6126cd87878787866fffffffffffffffffffffffffffffffff166128cb565b9098509050878110156126de578097505b50505050505050919050565b5f6fffffffffffffffffffffffffffffffff82111561273f576040517f6dfcc65000000000000000000000000000000000000000000000000000000000815260806004820152602481018390526044016101da565b5090565b5f808360018111156127575761275761321e565b0361276b5750670de0b6b3a7640000611f9b565b5080611f9b565b5f5f5f866001600160a01b031663feaf968c6040518163ffffffff1660e01b815260040160a060405180830381865afa1580156127b1573d5f5f3e3d5ffd5b505050506040513d601f19601f820116820180604052508101906127d591906139c5565b509350509250505f821315806127f9575063ffffffff84166127f78242612f8d565b115b15612830576040517fae19356300000000000000000000000000000000000000000000000000000000815260040160405180910390fd5b8560ff166001036128635761284685600a613aea565b612850838a61340e565b61285a9190613425565b92505050612879565b8161286f86600a613aea565b612850908a61340e565b95945050505050565b5f5f5f5f60205f8651602088015f8a5af192503d91505f5190508280156128c1575081156128b357806001146128c1565b5f866001600160a01b03163b115b9695505050505050565b5f5f6128e086670de0b6b3a764000086611fce565b90506128ed878287611fce565b9150612901670de0b6b3a76400008361340e565b61291384670de0b6b3a7640000612f8d565b61291d908361340e565b108015612955575061293783670de0b6b3a76400006133e9565b612941908261340e565b612953670de0b6b3a76400008461340e565b105b1561295e578091505b9550959350505050565b5080545f825560030160049004905f5260205f20908101906102629190612a4f565b50805461299690612ef8565b5f825580601f106129a5575050565b601f0160209004905f5260205f20908101906102629190612a4f565b5080545f8255905f5260205f20908101906102629190612a4f565b828054828255905f5260205f20908101928215612a47579160200282015b82811115612a4757825182547fffffffffffffffffffffffff0000000000000000000000000000000000000000166001600160a01b039091161782556020909201916001909101906129fa565b5061273f9291505b5b8082111561273f575f8155600101612a50565b6001600160a01b0381168114610262575f5ffd5b60ff81168114610262575f5ffd5b7f4e487b71000000000000000000000000000000000000000000000000000000005f52604160045260245ffd5b6040805190810167ffffffffffffffff81118282101715612ad557612ad5612a85565b60405290565b604051601f8201601f1916810167ffffffffffffffff81118282101715612b0457612b04612a85565b604052919050565b5f67ffffffffffffffff821115612b2557612b25612a85565b50601f01601f191660200190565b5f82601f830112612b42575f5ffd5b8135612b55612b5082612b0c565b612adb565b818152846020838601011115612b69575f5ffd5b816020850160208301375f918101602001919091529392505050565b5f5f5f60608486031215612b97575f5ffd5b8335612ba281612a63565b92506020840135612bb281612a77565b9150604084013567ffffffffffffffff811115612bcd575f5ffd5b612bd986828701612b33565b9150509250925092565b5f60208284031215612bf3575f5ffd5b81356108b081612a63565b8015158114610262575f5ffd5b5f5f60408385031215612c1c575f5ffd5b8235612c2781612a63565b91506020830135612c3781612bfe565b809150509250929050565b5f67ffffffffffffffff821115612c5b57612c5b612a85565b5060051b60200190565b5f5f5f60608486031215612c77575f5ffd5b8335612c8281612a63565b92506020840135612c9281612bfe565b9150604084013567ffffffffffffffff811115612cad575f5ffd5b840160408187031215612cbe575f5ffd5b612cc6612ab2565b813567ffffffffffffffff811115612cdc575f5ffd5b8201601f81018813612cec575f5ffd5b8035612cfa612b5082612c42565b8082825260208201915060208360051b85010192508a831115612d1b575f5ffd5b6020840193505b82841015612d46578335612d3581612a63565b825260209384019390910190612d22565b8452505050602082013567ffffffffffffffff811115612d64575f5ffd5b612d7088828501612b33565b60208301525080925050509250925092565b5f5f5f5f60808587031215612d95575f5ffd5b8435612da081612a63565b93506020850135612db081612a63565b92506040850135612dc081612a63565b9396929550929360600135925050565b60028110610262575f5ffd5b5f5f60408385031215612ded575f5ffd5b8235612df881612a63565b91506020830135612c3781612dd0565b5f5f5f60608486031215612e1a575f5ffd5b8335612e2581612a63565b92506020840135612e3581612a63565b929592945050506040919091013590565b5f5f60408385031215612e57575f5ffd5b8235612e6281612a63565b9150602083013567ffffffffffffffff811115612e7d575f5ffd5b612e8985828601612b33565b9150509250929050565b6fffffffffffffffffffffffffffffffff81168114610262575f5ffd5b5f5f5f60608486031215612ec2575f5ffd5b8335612ecd81612a63565b92506020840135612edd81612e93565b91506040840135612eed81612bfe565b809150509250925092565b600181811c90821680612f0c57607f821691505b602082108103612f43577f4e487b71000000000000000000000000000000000000000000000000000000005f52602260045260245ffd5b50919050565b5f60208284031215612f59575f5ffd5b5051919050565b7f4e487b71000000000000000000000000000000000000000000000000000000005f52601160045260245ffd5b81810381811115611f9b57611f9b612f60565b5f5f85851115612fae575f5ffd5b83861115612fba575f5ffd5b5050820193919092039150565b80357fffffffff000000000000000000000000000000000000000000000000000000008116906004841015613026577fffffffff00000000000000000000000000000000000000000000000000000000808560040360031b1b82161691505b5092915050565b6001600160a01b038416815260406020820152816040820152818360608301375f818301606090810191909152601f909201601f1916010192915050565b601f8211156101ee57805f5260205f20601f840160051c810160208510156130905750805b601f840160051c820191505b818110156130af575f815560010161309c565b5050505050565b815167ffffffffffffffff8111156130d0576130d0612a85565b6130e4816130de8454612ef8565b8461306b565b6020601f821160018114613116575f83156130ff5750848201515b5f19600385901b1c1916600184901b1784556130af565b5f84815260208120601f198516915b828110156131455787850151825560209485019460019092019101613125565b508482101561316257868401515f19600387901b60f8161c191681555b50505050600190811b01905550565b604081525f5f845461318281612ef8565b806040860152600182165f81146131a057600181146131da5761320b565b7fffffffffffffffffffffffffffffffffffffffffffffffffffffffffffffff0083166060870152606082151560051b870101935061320b565b875f5260205f205f5b83811015613202578154888201606001526001909101906020016131e3565b87016060019450505b50505060ff8416602084015290506108b0565b7f4e487b71000000000000000000000000000000000000000000000000000000005f52602160045260245ffd5b600a811061325b5761325b61321e565b9052565b5f81518084528060208401602086015e5f602082860101526020601f19601f83011685010191505092915050565b613297818761324b565b6132a4602082018661324b565b60a060408201525f6132b960a083018661325f565b82810360608401526132cb818661325f565b90508281036080840152612689818561325f565b7f4e487b71000000000000000000000000000000000000000000000000000000005f52603260045260245ffd5b7f4e487b71000000000000000000000000000000000000000000000000000000005f52603160045260245ffd5b602080825282516040838301528051606084018190525f929190910190829060808501905b8083101561338a576001600160a01b03845116825260208201915060208401935060018301925061335e565b5060208601519250601f198582030160408601526128c1818461325f565b5f602082840312156133b8575f5ffd5b81516108b081612a63565b821515815260408101600283106133dc576133dc61321e565b8260208301529392505050565b80820180821115611f9b57611f9b612f60565b602081525f6108b0602083018461325f565b8082028115828204841417611f9b57611f9b612f60565b5f82613458577f4e487b71000000000000000000000000000000000000000000000000000000005f52601260045260245ffd5b500490565b7affffffffffffffffffffffffffffffffffffffffffffffffffffff8181168382160190811115611f9b57611f9b612f60565b6fffffffffffffffffffffffffffffffff8181168382160190811115611f9b57611f9b612f60565b7affffffffffffffffffffffffffffffffffffffffffffffffffffff8281168282160390811115611f9b57611f9b612f60565b6fffffffffffffffffffffffffffffffff8281168282160390811115611f9b57611f9b612f60565b5f60208284031215613523575f5ffd5b81516108b081612a77565b60018110610262575f5ffd5b5f82601f830112613549575f5ffd5b8151613557612b5082612b0c565b81815284602083860101111561356b575f5ffd5b8160208501602083015e5f918101602001919091529392505050565b5f5f60408385031215613598575f5ffd5b82516135a38161352e565b602084015190925067ffffffffffffffff8111156135bf575f5ffd5b612e898582860161353a565b5f602082840312156135db575f5ffd5b81516108b081612bfe565b8051600a81106135f4575f5ffd5b919050565b5f5f5f5f5f60a0868803121561360d575f5ffd5b613616866135e6565b9450613624602087016135e6565b9350604086015167ffffffffffffffff81111561363f575f5ffd5b61364b8882890161353a565b935050606086015167ffffffffffffffff811115613667575f5ffd5b6136738882890161353a565b925050608086015167ffffffffffffffff81111561368f575f5ffd5b61369b8882890161353a565b9150509295509295909350565b5f82601f8301126136b7575f5ffd5b81516136c5612b5082612c42565b8082825260208201915060208360051b8601019250858311156136e6575f5ffd5b602085015b8381101561371457805163ffffffff81168114613706575f5ffd5b8352602092830192016136eb565b5095945050505050565b5f82601f83011261372d575f5ffd5b815161373b612b5082612c42565b8082825260208201915060208360051b86010192508583111561375c575f5ffd5b602085015b8381101561371457805161377481612a77565b835260209283019201613761565b80516135f481612dd0565b5f5f5f5f5f60a086880312156137a1575f5ffd5b855167ffffffffffffffff8111156137b7575f5ffd5b8601601f810188136137c7575f5ffd5b80516137d5612b5082612c42565b8082825260208201915060208360051b85010192508a8311156137f6575f5ffd5b6020840193505b8284101561382157835161381081612a63565b8252602093840193909101906137fd565b80985050505050602086015167ffffffffffffffff811115613841575f5ffd5b61384d888289016136a8565b945050604086015167ffffffffffffffff811115613869575f5ffd5b6138758882890161371e565b935050606086015167ffffffffffffffff811115613891575f5ffd5b61389d8882890161371e565b9250506138ac60808701613782565b90509295509295909350565b5f5f604083850312156138c9575f5ffd5b82516138d481612a63565b6020939093015192949293505050565b5f5f604083850312156138f5575f5ffd5b825167ffffffffffffffff81111561390b575f5ffd5b8301601f8101851361391b575f5ffd5b8051613929612b5082612c42565b8082825260208201915060208360051b85010192508783111561394a575f5ffd5b6020840193505b8284101561396c578351825260209384019390910190613951565b6020969096015195979596505050505050565b5f5f60408385031215613990575f5ffd5b825161399b81612e93565b6020840151909250612c3781612e93565b805169ffffffffffffffffffff811681146135f4575f5ffd5b5f5f5f5f5f60a086880312156139d9575f5ffd5b6139e2866139ac565b602087015160408801516060890151929750909550935091506138ac608087016139ac565b6001815b6001841115613a4257808504811115613a2657613a26612f60565b6001841615613a3457908102905b60019390931c928002613a0b565b935093915050565b5f82613a5857506001611f9b565b81613a6457505f611f9b565b8160018114613a7a5760028114613a8457613aa0565b6001915050611f9b565b60ff841115613a9557613a95612f60565b50506001821b611f9b565b5060208310610133831016604e8410600b8410161715613ac3575081810a611f9b565b613acf5f198484613a07565b805f1904821115613ae257613ae2612f60565b029392505050565b5f6108b08383613a4a56fea264697066735822122085a77c6a9613522859bed9aaaec2fccd88d71732ec54def216095ed9a74dbf7564736f6c634300081c0033",
  "linkReferences": {},
  "deployedLinkReferences": {},
  "immutableReferences": {},
  "inputSourceName": "project/contracts/monetizer/facets/SettersGovernor.sol",
  "devdoc": {
    "author": "Cooper Labs",
    "custom:contact": "security@monet.cash",
    "details": "This contract is an authorized fork of Angle's `SettersGovernor` contract https://github.com/AngleProtocol/angle-transmuter/blob/main/contracts/monetizer/facets/SettersGovernor.sol",
    "errors": {
      "SafeCastOverflowedUintDowncast(uint8,uint256)": [
        {
          "details": "Value doesn't fit in an uint of `bits` size."
        }
      ],
      "SafeERC20FailedDecreaseAllowance(address,uint256,uint256)": [
        {
          "details": "Indicates a failed `decreaseAllowance` request."
        }
      ],
      "SafeERC20FailedOperation(address)": [
        {
          "details": "An operation with an ERC-20 token failed."
        }
      ]
    },
    "kind": "dev",
    "methods": {
      "addCollateral(address)": {
        "details": "Collateral assets with a fee on transfer are not supported by the system"
      },
      "adjustStablecoins(address,uint128,bool)": {
        "details": "The amount passed here must be an absolute amount"
      },
      "changeAllowance(address,address,uint256)": {
        "details": "This function can typically be used to grant allowance to a newly added manager for it to pull the funds associated to the collateral it corresponds to"
      },
      "recoverERC20(address,address,address,uint256)": {
        "details": "No check is made on the collateral that is redeemed: this function could typically be used by a governance during a manual rebalance of the reserves of the system`collateral` is different from `token` only in the case of a managed collateral"
      },
      "revokeCollateral(address,bool)": {
        "details": "Require `collatInfo.normalizedStables == 0`, that is to say that the collateral is not used to back stablesThe system may still have a non null balance of the collateral that is revoked: this should later be handled through a recoverERC20 callFunds needs to have been withdrew from the manager prior to this call if `checkExternalManagerBalance` is true"
      },
      "setCollateralManager(address,bool,(address[],bytes))": {
        "details": "Funds need to have been withdrawn from the eventual previous manager prior to this call"
      }
    },
    "title": "SettersGovernor",
    "version": 1
  },
  "evm": {
    "gasEstimates": {
      "creation": {
        "codeDepositCost": "3029400",
        "executionCost": "3331",
        "totalCost": "3032731"
      },
      "external": {
        "addCollateral(address)": "infinite",
        "adjustStablecoins(address,uint128,bool)": "infinite",
        "changeAllowance(address,address,uint256)": "infinite",
        "recoverERC20(address,address,address,uint256)": "infinite",
        "revokeCollateral(address,bool)": "infinite",
        "setAccessManager(address)": "infinite",
        "setCollateralManager(address,bool,(address[],bytes))": "infinite",
        "setOracle(address,bytes)": "infinite",
        "setWhitelistStatus(address,uint8,bytes)": "infinite",
        "toggleTrusted(address,uint8)": "infinite",
        "updateOracle(address)": "infinite"
      }
    }
  },
  "storageLayout": {
    "storage": [],
    "types": null
  },
  "userdoc": {
    "kind": "user",
    "methods": {
      "addCollateral(address)": {
        "notice": "Add `collateral` as a supported collateral in the system"
      },
      "adjustStablecoins(address,uint128,bool)": {
        "notice": "Adjusts the amount of stablecoins issued from `collateral` by `amount`"
      },
      "changeAllowance(address,address,uint256)": {
        "notice": "Sets the allowance of the contract on `token` for `spender` to `amount`"
      },
      "recoverERC20(address,address,address,uint256)": {
        "notice": "Recovers `amount` of `token` from the Monetizer contract"
      },
      "revokeCollateral(address,bool)": {
        "notice": "Revokes `collateral` from the system"
      },
      "setAccessManager(address)": {
        "notice": "Sets a new access manager address"
      },
      "setCollateralManager(address,bool,(address[],bytes))": {
        "notice": "Sets (or unsets) a collateral manager  `collateral`"
      },
      "setOracle(address,bytes)": {
        "notice": "Sets the `oracleConfig` used to read the value of `collateral` for the mint, burn and redemption operations"
      },
      "setWhitelistStatus(address,uint8,bytes)": {
        "notice": "Changes whether a `collateral` can only be handled during burns and redemptions by whitelisted addresses and sets the data used to read into the whitelist"
      },
      "toggleTrusted(address,uint8)": {
        "notice": "Changes the trusted status for `sender` when for selling rewards or updating the normalizer"
      },
      "updateOracle(address)": {
        "notice": "Update oracle data for a given `collateral`"
      }
    },
    "version": 1
  },
  "argsData": "0x",
  "transaction": {
    "hash": "0x5ca80d73a808e02e4ff7b616ec35e4c9b8701ae764698d27eca79ad6960529a3",
    "nonce": "0x3a",
    "origin": "0x10a852971d242a04829b541c32f09ad9ec1b227d"
  }
}