{
  "address": "0x8c5f0e4e4a9d6f72322ba9c5fbfc5deb05a15637",
  "abi": [
    {
      "inputs": [
        {
          "internalType": "address",
          "name": "target",
          "type": "address"
        }
      ],
      "name": "AddressEmptyCode",
      "type": "error"
    },
    {
      "inputs": [],
      "name": "FailedCall",
      "type": "error"
    },
    {
      "inputs": [
        {
          "internalType": "uint256",
          "name": "balance",
          "type": "uint256"
        },
        {
          "internalType": "uint256",
          "name": "needed",
          "type": "uint256"
        }
      ],
      "name": "InsufficientBalance",
      "type": "error"
    },
    {
      "inputs": [],
      "name": "InvalidChainlinkRate",
      "type": "error"
    },
    {
      "inputs": [],
      "name": "InvalidSwap",
      "type": "error"
    },
    {
      "inputs": [],
      "name": "InvalidTokens",
      "type": "error"
    },
    {
      "inputs": [],
      "name": "NotWhitelisted",
      "type": "error"
    },
    {
      "inputs": [],
      "name": "Paused",
      "type": "error"
    },
    {
      "inputs": [],
      "name": "ReentrantCall",
      "type": "error"
    },
    {
      "inputs": [
        {
          "internalType": "uint8",
          "name": "bits",
          "type": "uint8"
        },
        {
          "internalType": "uint256",
          "name": "value",
          "type": "uint256"
        }
      ],
      "name": "SafeCastOverflowedUintDowncast",
      "type": "error"
    },
    {
      "inputs": [
        {
          "internalType": "address",
          "name": "token",
          "type": "address"
        }
      ],
      "name": "SafeERC20FailedOperation",
      "type": "error"
    },
    {
      "inputs": [],
      "name": "TooBigAmountIn",
      "type": "error"
    },
    {
      "inputs": [],
      "name": "TooLate",
      "type": "error"
    },
    {
      "inputs": [],
      "name": "TooSmallAmountOut",
      "type": "error"
    },
    {
      "anonymous": false,
      "inputs": [
        {
          "indexed": true,
          "internalType": "address",
          "name": "tokenIn",
          "type": "address"
        },
        {
          "indexed": true,
          "internalType": "address",
          "name": "tokenOut",
          "type": "address"
        },
        {
          "indexed": false,
          "internalType": "uint256",
          "name": "amountIn",
          "type": "uint256"
        },
        {
          "indexed": false,
          "internalType": "uint256",
          "name": "amountOut",
          "type": "uint256"
        },
        {
          "indexed": true,
          "internalType": "address",
          "name": "from",
          "type": "address"
        },
        {
          "indexed": false,
          "internalType": "address",
          "name": "to",
          "type": "address"
        }
      ],
      "name": "Swap",
      "type": "event"
    },
    {
      "inputs": [
        {
          "internalType": "uint256",
          "name": "amountIn",
          "type": "uint256"
        },
        {
          "internalType": "address",
          "name": "tokenIn",
          "type": "address"
        },
        {
          "internalType": "address",
          "name": "tokenOut",
          "type": "address"
        }
      ],
      "name": "quoteIn",
      "outputs": [
        {
          "internalType": "uint256",
          "name": "amountOut",
          "type": "uint256"
        }
      ],
      "stateMutability": "view",
      "type": "function"
    },
    {
      "inputs": [
        {
          "internalType": "uint256",
          "name": "amountOut",
          "type": "uint256"
        },
        {
          "internalType": "address",
          "name": "tokenIn",
          "type": "address"
        },
        {
          "internalType": "address",
          "name": "tokenOut",
          "type": "address"
        }
      ],
      "name": "quoteOut",
      "outputs": [
        {
          "internalType": "uint256",
          "name": "amountIn",
          "type": "uint256"
        }
      ],
      "stateMutability": "view",
      "type": "function"
    },
    {
      "inputs": [
        {
          "internalType": "uint256",
          "name": "amountIn",
          "type": "uint256"
        },
        {
          "internalType": "uint256",
          "name": "amountOutMin",
          "type": "uint256"
        },
        {
          "internalType": "address",
          "name": "tokenIn",
          "type": "address"
        },
        {
          "internalType": "address",
          "name": "tokenOut",
          "type": "address"
        },
        {
          "internalType": "address",
          "name": "to",
          "type": "address"
        },
        {
          "internalType": "uint256",
          "name": "deadline",
          "type": "uint256"
        }
      ],
      "name": "swapExactInput",
      "outputs": [
        {
          "internalType": "uint256",
          "name": "amountOut",
          "type": "uint256"
        }
      ],
      "stateMutability": "nonpayable",
      "type": "function"
    },
    {
      "inputs": [
        {
          "internalType": "uint256",
          "name": "amountIn",
          "type": "uint256"
        },
        {
          "internalType": "uint256",
          "name": "amountOutMin",
          "type": "uint256"
        },
        {
          "internalType": "address",
          "name": "tokenIn",
          "type": "address"
        },
        {
          "internalType": "address",
          "name": "to",
          "type": "address"
        },
        {
          "internalType": "uint256",
          "name": "deadline",
          "type": "uint256"
        },
        {
          "internalType": "bytes",
          "name": "permitData",
          "type": "bytes"
        }
      ],
      "name": "swapExactInputWithPermit",
      "outputs": [
        {
          "internalType": "uint256",
          "name": "amountOut",
          "type": "uint256"
        }
      ],
      "stateMutability": "nonpayable",
      "type": "function"
    },
    {
      "inputs": [
        {
          "internalType": "uint256",
          "name": "amountOut",
          "type": "uint256"
        },
        {
          "internalType": "uint256",
          "name": "amountInMax",
          "type": "uint256"
        },
        {
          "internalType": "address",
          "name": "tokenIn",
          "type": "address"
        },
        {
          "internalType": "address",
          "name": "tokenOut",
          "type": "address"
        },
        {
          "internalType": "address",
          "name": "to",
          "type": "address"
        },
        {
          "internalType": "uint256",
          "name": "deadline",
          "type": "uint256"
        }
      ],
      "name": "swapExactOutput",
      "outputs": [
        {
          "internalType": "uint256",
          "name": "amountIn",
          "type": "uint256"
        }
      ],
      "stateMutability": "nonpayable",
      "type": "function"
    },
    {
      "inputs": [
        {
          "internalType": "uint256",
          "name": "amountOut",
          "type": "uint256"
        },
        {
          "internalType": "uint256",
          "name": "amountInMax",
          "type": "uint256"
        },
        {
          "internalType": "address",
          "name": "tokenIn",
          "type": "address"
        },
        {
          "internalType": "address",
          "name": "to",
          "type": "address"
        },
        {
          "internalType": "uint256",
          "name": "deadline",
          "type": "uint256"
        },
        {
          "internalType": "bytes",
          "name": "permitData",
          "type": "bytes"
        }
      ],
      "name": "swapExactOutputWithPermit",
      "outputs": [
        {
          "internalType": "uint256",
          "name": "amountIn",
          "type": "uint256"
        }
      ],
      "stateMutability": "nonpayable",
      "type": "function"
    }
  ],
  "contractName": "Swapper",
  "sourceName": "contracts/monetizer/facets/Swapper.sol",
  "bytecode": "0x6080604052348015600e575f5ffd5b506148598061001c5f395ff3fe608060405234801561000f575f5ffd5b506004361061006f575f3560e01c8063b92567fa1161004d578063b92567fa146100be578063c10a6287146100d1578063d92c6cb2146100e4575f5ffd5b80633b6a1fe0146100735780634583aea6146100985780639525f3ab146100ab575b5f5ffd5b610086610081366004613b34565b6100f7565b60405190815260200160405180910390f35b6100866100a6366004613b97565b61018e565b6100866100b9366004613b97565b610233565b6100866100cc366004613b34565b6102d5565b6100866100df366004613c97565b610360565b6100866100f2366004613c97565b6103d8565b5f5f5f610105878786610450565b915091508161011e5761011986828b610628565b610128565b610128818a610707565b925087831015610164576040517fa1aabbe100000000000000000000000000000000000000000000000000000000815260040160405180910390fd5b6101828984898989878760405180602001604052805f8152506107de565b50509695505050505050565b5f7f4b2dd303f68b99d244b702089c802b6e9ea1b5d4ef61fd436d6c41abb1178c7581806101bd868642610450565b915091508115610211576101d18188610707565b600184015490945061020c908290869070010000000000000000000000000000000090046fffffffffffffffffffffffffffffffff166110a5565b610229565b61021c858289610628565b935061022985828661113c565b5050509392505050565b5f7f4b2dd303f68b99d244b702089c802b6e9ea1b5d4ef61fd436d6c41abb1178c758180610262868642610450565b9150915081156102b85760018301546102a4908290899070010000000000000000000000000000000090046fffffffffffffffffffffffffffffffff166110a5565b6102ae81886112bd565b93505050506102ce565b6102c385828961113c565b6102ae858289611315565b9392505050565b5f5f5f6102e3878786610450565b91509150816102fc576102f786828b611315565b610306565b610306818a6112bd565b925087831115610342576040517fa2b0657400000000000000000000000000000000000000000000000000000000815260040160405180910390fd5b610182838a898989878760405180602001604052805f8152506107de565b5f5f5f61036d8786611362565b9150915061037b818a6112bd565b9250878311156103b7576040517fa2b0657400000000000000000000000000000000000000000000000000000000815260040160405180910390fd5b6103c5838989888886611468565b9350610182838a89858a6001878b6107de565b5f5f5f6103e58786611362565b915091506103f3818a610707565b92508783101561042f576040517fa1aabbe100000000000000000000000000000000000000000000000000000000815260040160405180910390fd5b61043d898a89888886611468565b9350610182898489858a6001878b6107de565b5f5f8242111561048c576040517fecdd1c2900000000000000000000000000000000000000000000000000000000815260040160405180910390fd5b7f4b2dd303f68b99d244b702089c802b6e9ea1b5d4ef61fd436d6c41abb1178c75805473ffffffffffffffffffffffffffffffffffffffff9081169087168190036105455773ffffffffffffffffffffffffffffffffffffffff86165f9081526005830160205260408120805490945062010000900460ff16900361053d576040517f9e87fac800000000000000000000000000000000000000000000000000000000815260040160405180910390fd5b5f935061061e565b8073ffffffffffffffffffffffffffffffffffffffff168673ffffffffffffffffffffffffffffffffffffffff16036105ec5773ffffffffffffffffffffffffffffffffffffffff87165f90815260058301602052604081208054909450610100900460ff1690036105e3576040517f9e87fac800000000000000000000000000000000000000000000000000000000815260040160405180910390fd5b6001935061061e565b6040517f672215de00000000000000000000000000000000000000000000000000000000815260040160405180910390fd5b5050935093915050565b5f5f5f6106bf8686600501805461063e90613d50565b80601f016020809104026020016040519081016040528092919081815260200182805461066a90613d50565b80156106b55780601f1061068c576101008083540402835291602001916106b5565b820191905f5260205f20905b81548152906001019060200180831161069857829003601f168201915b50505050506115f7565b915091506106cf85600286611833565b92506106fd816106df8486613dce565b6106e99190613e12565b86546012906301000000900460ff16612245565b9695505050505050565b5f5f61079c84600501805461071b90613d50565b80601f016020809104026020016040519081016040528092919081815260200182805461074790613d50565b80156107925780601f1061076957610100808354040283529160200191610792565b820191905f5260205f20905b81548152906001019060200180831161077557829003601f168201915b50505050506122ae565b90506107c96107ab8483613dce565b85546107c2906301000000900460ff166012613e25565b6012612245565b91506107d6845f84611833565b949350505050565b7f4b2dd303f68b99d244b702089c802b6e9ea1b5d4ef61fd436d6c41abb1178c75805460ff7501000000000000000000000000000000000000000000909104167ffffffffffffffffffffffffffffffffffffffffffffffffffffffffffffffffe01610876576040517f37ed32e800000000000000000000000000000000000000000000000000000000815260040160405180910390fd5b80547fffffffffffffffffffff00ffffffffffffffffffffffffffffffffffffffffff16750200000000000000000000000000000000000000000017815588158015906108c257505f88115b1561105d577f4b2dd303f68b99d244b702089c802b6e9ea1b5d4ef61fd436d6c41abb1178c758415610c96576001818101545f916109409161093b918d916b033b2e3c9fd0803ce8000000917001000000000000000000000000000000009091046fffffffffffffffffffffffffffffffff16906123c7565b612412565b8554909150610988906fffffffffffffffffffffffffffffffff8316906501000000000090047affffffffffffffffffffffffffffffffffffffffffffffffffffff16613e3e565b85547affffffffffffffffffffffffffffffffffffffffffffffffffffff91909116650100000000000264ffffffffff90911617855560018201546109f79086905f906fffffffffffffffffffffffffffffffff700100000000000000000000000000000000909104166110a5565b6001820154610a199082906fffffffffffffffffffffffffffffffff16613e71565b6001830180547fffffffffffffffffffffffffffffffff00000000000000000000000000000000166fffffffffffffffffffffffffffffffff92909216919091179055835115610a8257610a7c6e22d473030f116ddee9f6b43ac78ba385612470565b50610b6c565b845460ff1615610b4a57610b4533610b26876007016001018054610aa590613d50565b80601f0160208091040260200160405190810160405280929190818152602001828054610ad190613d50565b8015610b1c5780601f10610af357610100808354040283529160200191610b1c565b820191905f5260205f20905b815481529060010190602001808311610aff57829003601f168201915b5050505050612486565b73ffffffffffffffffffffffffffffffffffffffff8c1691908e6124ca565b610b6c565b610b6c73ffffffffffffffffffffffffffffffffffffffff8a1633308e6124ca565b845460ff1615610c0d57610c0d8b866007016001018054610b8c90613d50565b80601f0160208091040260200160405190810160405280929190818152602001828054610bb890613d50565b8015610c035780601f10610bda57610100808354040283529160200191610c03565b820191905f5260205f20905b815481529060010190602001808311610be657829003601f168201915b5050505050612559565b6040517f40c10f1900000000000000000000000000000000000000000000000000000000815273ffffffffffffffffffffffffffffffffffffffff8881166004830152602482018c90528916906340c10f19906044015f604051808303815f87803b158015610c7a575f5ffd5b505af1158015610c8c573d5f5f3e3d5ffd5b5050505050610ffb565b8354640100000000900460ff1615801590610d425750610d40846006018054610cbe90613d50565b80601f0160208091040260200160405190810160405280929190818152602001828054610cea90613d50565b8015610d355780601f10610d0c57610100808354040283529160200191610d35565b820191905f5260205f20905b815481529060010190602001808311610d1857829003601f168201915b5050505050876125ff565b155b15610d79576040517f584a793800000000000000000000000000000000000000000000000000000000815260040160405180910390fd5b60018101545f90610dca9070010000000000000000000000000000000090046fffffffffffffffffffffffffffffffff16610dc06b033b2e3c9fd0803ce80000008e613dce565b61093b9190613e12565b8554909150610e12906fffffffffffffffffffffffffffffffff8316906501000000000090047affffffffffffffffffffffffffffffffffffffffffffffffffffff16613e99565b85547affffffffffffffffffffffffffffffffffffffffffffffffffffff91909116650100000000000264ffffffffff9091161785556001820154610e6a9082906fffffffffffffffffffffffffffffffff16613ecc565b6001830180547fffffffffffffffffffffffffffffffff00000000000000000000000000000000166fffffffffffffffffffffffffffffffff929092169190911790556040517f2b471d8e000000000000000000000000000000000000000000000000000000008152600481018c905233602482015273ffffffffffffffffffffffffffffffffffffffff8a1690632b471d8e906044015f604051808303815f87803b158015610f18575f5ffd5b505af1158015610f2a573d5f5f3e3d5ffd5b5050865460ff16159150610fd8905057610fd388888c886007016001018054610f5290613d50565b80601f0160208091040260200160405190810160405280929190818152602001828054610f7e90613d50565b8015610fc95780601f10610fa057610100808354040283529160200191610fc9565b820191905f5260205f20905b815481529060010190602001808311610fac57829003601f168201915b50505050506127b7565b610ff9565b610ff973ffffffffffffffffffffffffffffffffffffffff8916888c612886565b505b604080518b8152602081018b905273ffffffffffffffffffffffffffffffffffffffff88811682840152915133928a811692908c16917f73adcdbf2d8fee0c1221daefef436a92c3c640e97ff2941e744bf5eef1ab346f9181900360600190a4505b80547fffffffffffffffffffff00ffffffffffffffffffffffffffffffffffffffffff1675010000000000000000000000000000000000000000001790555050505050505050565b600983015483546b033b2e3c9fd0803ce8000000906110eb9084906501000000000090047affffffffffffffffffffffffffffffffffffffffffffffffffffff16613dce565b6110f59190613e12565b6110ff9084613ef4565b1115611137576040517f1115766700000000000000000000000000000000000000000000000000000000815260040160405180910390fd5b505050565b815460ff16158015906111e35750806111e183600701600101805461116090613d50565b80601f016020809104026020016040519081016040528092919081815260200182805461118c90613d50565b80156111d75780601f106111ae576101008083540402835291602001916111d7565b820191905f5260205f20905b8154815290600101906020018083116111ba57829003601f168201915b50505050506128c4565b105b806112865750815460ff1615801561128657506040517f70a08231000000000000000000000000000000000000000000000000000000008152306004820152819073ffffffffffffffffffffffffffffffffffffffff8516906370a0823190602401602060405180830381865afa158015611260573d5f5f3e3d5ffd5b505050506040513d601f19601f820116820180604052508101906112849190613f07565b105b15611137576040517f1115766700000000000000000000000000000000000000000000000000000000815260040160405180910390fd5b5f5f6112d184600501805461071b90613d50565b90506112df84600185611833565b91506107d6816112f7670de0b6b3a764000085613dce565b6113019190613e12565b85546012906301000000900460ff16612245565b5f5f5f61132b8686600501805461063e90613d50565b865491935091506113549061134d9086906301000000900460ff166012612245565b828461296a565b92506106fd85600385611833565b5f5f8242111561139e576040517fecdd1c2900000000000000000000000000000000000000000000000000000000815260040160405180910390fd5b5073ffffffffffffffffffffffffffffffffffffffff83165f9081527f4b2dd303f68b99d244b702089c802b6e9ea1b5d4ef61fd436d6c41abb1178c7a60205260408120805490917f4b2dd303f68b99d244b702089c802b6e9ea1b5d4ef61fd436d6c41abb1178c7591610100900460ff169003611448576040517f9e87fac800000000000000000000000000000000000000000000000000000000815260040160405180910390fd5b5473ffffffffffffffffffffffffffffffffffffffff1694909350915050565b60408051606081810183525f8083526020830152918101829052825460ff16156114be576114a1836007016001018054610aa590613d50565b73ffffffffffffffffffffffffffffffffffffffff1681526114c2565b3081525b838060200190518101906114d69190613f6b565b60408084019182526020808501938452815160a08101835273ffffffffffffffffffffffffffffffffffffffff808c1660608301908152608083018e905282529451818301528083018a905282518084018452865190951685529084018c9052915190517f30f28b7a000000000000000000000000000000000000000000000000000000009361156e93929091339190602401613fb0565b604080517fffffffffffffffffffffffffffffffffffffffffffffffffffffffffffffffe08184030181529190526020810180517bffffffffffffffffffffffffffffffffffffffffffffffffffffffff167fffffffff000000000000000000000000000000000000000000000000000000009093169290921790915298975050505050505050565b7f4b2dd303f68b99d244b702089c802b6e9ea1b5d4ef61fd436d6c41abb1178c77805460408051602080840282018101909252828152670de0b6b3a7640000935f937f4b2dd303f68b99d244b702089c802b6e9ea1b5d4ef61fd436d6c41abb1178c759385939291908301828280156116a457602002820191905f5260205f20905b815473ffffffffffffffffffffffffffffffffffffffff168152600190910190602001808311611679575b505083519394505f925050505b81811015611828575f670de0b6b3a764000090508873ffffffffffffffffffffffffffffffffffffffff168483815181106116ee576116ee614096565b602002602001015173ffffffffffffffffffffffffffffffffffffffff1614611804576117fb856005015f86858151811061172b5761172b614096565b602002602001015173ffffffffffffffffffffffffffffffffffffffff1673ffffffffffffffffffffffffffffffffffffffff1681526020019081526020015f20600501805461177a90613d50565b80601f01602080910402602001604051908101604052809291908181526020018280546117a690613d50565b80156117f15780601f106117c8576101008083540402835291602001916117f1565b820191905f5260205f20905b8154815290600101906020018083116117d457829003601f168201915b5050505050612a1a565b91506118139050565b61180d88612a1a565b90965090505b8681101561181f578096505b506001016116b1565b505050509250929050565b5f61187e6040518061012001604052805f151581526020015f151581526020015f81526020015f81526020015f81526020015f81526020015f81526020015f81526020015f81525090565b61188784612ba6565b1515815261189484612bdd565b1515602082015280515f906118ad5760038601546118b3565b60018601545b7f4b2dd303f68b99d244b702089c802b6e9ea1b5d4ef61fd436d6c41abb1178c76549091505f907f4b2dd303f68b99d244b702089c802b6e9ea1b5d4ef61fd436d6c41abb1178c75906fffffffffffffffffffffffffffffffff1680158061191b5750836001145b156119895761197d8888875f0151611968578b6004015f8154811061194257611942614096565b905f5260205f2090600491828204019190066008029054906101000a900460070b612c00565b8b6002015f8154811061194257611942614096565b955050505050506102ce565b885481906119c690670de0b6b3a7640000906501000000000090047affffffffffffffffffffffffffffffffffffffffffffffffffffff16613dce565b6119d09190613e12565b60018301548a5467ffffffffffffffff92909216945070010000000000000000000000000000000090046fffffffffffffffffffffffffffffffff16906b033b2e3c9fd0803ce800000090611a4c9083906501000000000090047affffffffffffffffffffffffffffffffffffffffffffffffffffff16613dce565b611a569190613e12565b60e087018190526b033b2e3c9fd0803ce8000000611a748484613dce565b611a7e9190613e12565b611a8891906140c3565b610100870152505083515f91508190611b399080611aa9578a600301611aae565b8a6001015b805480602002602001604051908101604052809291908181526020018280548015611b2957602002820191905f5260205f20905f905b82829054906101000a900467ffffffffffffffff1667ffffffffffffffff1681526020019060080190602082600701049283019260010382029150808411611ae45790505b5050505050633b9aca0086612c78565b90505b611b476001856140c3565b8110156121f357845115611cad57886001018181548110611b6a57611b6a614096565b5f918252602090912060048204015460039091166008026101000a900467ffffffffffffffff166040860152600189810190611ba7908390613ef4565b81548110611bb757611bb7614096565b5f918252602090912060048204015460039091166008026101000a900467ffffffffffffffff16606086015260028901805482908110611bf957611bf9614096565b5f918252602090912060048204015460039091166008026101000a900460070b608086015260028901611c2d826001613ef4565b81548110611c3d57611c3d614096565b5f918252602090912060048204015460039091166008026101000a900460070b60a086015260e08501516060860151611c7a90633b9aca006140c3565b8660600151876101000151611c8f9190613dce565b611c999190613e12565b611ca391906140c3565b60c0860152611e0d565b886003018181548110611cc257611cc2614096565b5f918252602090912060048204015460039182166008026101000a900467ffffffffffffffff1660408701528901611cfb826001613ef4565b81548110611d0b57611d0b614096565b905f5260205f2090600491828204019190066008029054906101000a900467ffffffffffffffff1667ffffffffffffffff16856060018181525050886004018181548110611d5b57611d5b614096565b5f918252602090912060048083049091015460039092166008026101000a90910460070b60808701528901611d91826001613ef4565b81548110611da157611da1614096565b5f918252602090912060048204015460039091166008026101000a900460070b60a08601526060850151611dd990633b9aca006140c3565b8560600151866101000151611dee9190613dce565b611df89190613e12565b8560e00151611e0791906140c3565b60c08601525b5f83633b9aca008760400151611e239190613dce565b03611e3357506080850151611f2a565b8560a00151866080015103611e4d57506080850151611f2a565b85515f90611e9b5760e08701516040880151611e6d90633b9aca006140c3565b8860400151896101000151611e829190613dce565b611e8c9190613e12565b611e9691906140c3565b611edc565b6040870151611eae90633b9aca006140c3565b8760400151886101000151611ec39190613dce565b611ecd9190613e12565b8760e00151611edc91906140c3565b9050808760c00151611eee9190613ef4565b8188608001518960a00151611f0391906140d6565b611f0d9190613dce565b611f179190613e12565b8760800151611f2691906140fc565b9150505b5f8660200151611f91578651611f6857611f638760c001516002848a60a00151611f5491906140fc565b611f5e9190614123565b612e18565b611f97565b611f638760c001516002848a60a00151611f8291906140fc565b611f8c9190614123565b612ec5565b8660c001515b905088811061212b575f876020015115611fe457611fd3838960a00151611fbe91906140d6565b611fc9846002613dce565b8c919060016123c7565b611fdd90846140fc565b9050612107565b5f612020848a60a00151611ff891906140d6565b6120038d6002613dce565b61200d9190613dce565b60c08b0151633b9aca00919060016123c7565b895190915015612081576002633b9aca008561205c848461204184866140fc565b61204b919061425a565b6120559190613ef4565b6001612f5d565b61206691906140fc565b61207091906140d6565b61207a9190614268565b9150612105565b5f600261209286633b9aca006140d6565b61209c919061425a565b9050818110156120c75760026120b6633b9aca00876140fc565b6120c09190614268565b9250612103565b6121006120dd6120d784846140c3565b5f612f5d565b6120eb633b9aca00886140fc565b6120f591906140d6565b6001600260016123c7565b92505b505b505b6121128b8b83612c00565b61211c9086613ef4565b985050505050505050506102ce565b612135818a6140c3565b9850866020015115612180578651612166576121618760c001516002848a60a00151611f5491906140fc565b612186565b6121618760c001516002848a60a00151611f8291906140fc565b8660c001515b6121909085613ef4565b9350633b9aca0087606001516121a69190613dce565b94506121b1836142b0565b87519093506121d3578660c001518760e001516121ce91906140c3565b6121e7565b8660c001518760e001516121e79190613ef4565b60e08801525050611b3c565b61222e8888875f015161221f5760048c0161220f6001896140c3565b8154811061194257611942614096565b60028c0161220f6001896140c3565b6122389083613ef4565b9998505050505050505050565b5f8160ff168360ff16111561227a5761225e82846142c8565b61226990600a61425a565b6122739085613e12565b90506102ce565b8160ff168360ff1610156122a75761229283836142c8565b61229d90600a61425a565b6122739085613dce565b50826102ce565b5f5f5f5f5f5f6122bd87612f8d565b93985091965094509250905060018560098111156122dd576122dd6142e1565b03612372575f838060200190518101906122f7919061430e565b90508073ffffffffffffffffffffffffffffffffffffffff16635ade93556040518163ffffffff1660e01b8152600401602060405180830381865afa158015612342573d5f5f3e3d5ffd5b505050506040513d601f19601f820116820180604052508101906123669190613f07565b98975050505050505050565b5f81806020019051810190612387919061434d565b5090505f6123aa87878787866fffffffffffffffffffffffffffffffff16612fba565b9098509050878110156123bb578097505b50505050505050919050565b5f6123f46123d483613057565b80156123ef57505f84806123ea576123ea613de5565b868809115b151590565b6123ff86868661296a565b6124099190613ef4565b95945050505050565b5f6fffffffffffffffffffffffffffffffff82111561246c576040517f6dfcc65000000000000000000000000000000000000000000000000000000000815260806004820152602481018390526044015b60405180910390fd5b5090565b606061247d83835f613083565b90505b92915050565b5f5f5f6124928461313f565b30945090925090505f8280156124aa576124aa6142e1565b036124c357808060200190518101906107d6919061430e565b5050919050565b60405173ffffffffffffffffffffffffffffffffffffffff84811660248301528381166044830152606482018390526125539186918216906323b872dd906084015b604051602081830303815290604052915060e01b6020820180517bffffffffffffffffffffffffffffffffffffffffffffffffffffffff8381831617835250505050613160565b50505050565b5f5f6125648361313f565b90925090505f828015612579576125796142e1565b036125535780806020019051810190612592919061430e565b73ffffffffffffffffffffffffffffffffffffffff16632afcf480856040518263ffffffff1660e01b81526004016125cc91815260200190565b5f604051808303815f87803b1580156125e3575f5ffd5b505af11580156125f5573d5f5f3e3d5ffd5b5050505050505050565b5f5f5f84806020019051810190612616919061438a565b915091505f6126427f4b2dd303f68b99d244b702089c802b6e9ea1b5d4ef61fd436d6c41abb1178c7590565b6008015f848015612655576126556142e1565b8015612663576126636142e1565b81526020019081526020015f205f8673ffffffffffffffffffffffffffffffffffffffff1673ffffffffffffffffffffffffffffffffffffffff1681526020019081526020015f205411156126bd57600192505050612480565b8051156127ad575f8280156126d4576126d46142e1565b036127ad575f818060200190518101906126ee919061430e565b905073ffffffffffffffffffffffffffffffffffffffff8116156127ab576040517f65e4ad9e00000000000000000000000000000000000000000000000000000000815230600482015273ffffffffffffffffffffffffffffffffffffffff86811660248301528216906365e4ad9e906044016020604051808303815f875af115801561277d573d5f5f3e3d5ffd5b505050506040513d601f19601f820116820180604052508101906127a191906143c2565b9350505050612480565b505b505f949350505050565b5f5f6127c28361313f565b90925090505f8280156127d7576127d76142e1565b0361287e57808060200190518101906127f0919061430e565b6040517f8bfb07c900000000000000000000000000000000000000000000000000000000815273ffffffffffffffffffffffffffffffffffffffff88811660048301528781166024830152604482018790529190911690638bfb07c9906064015f604051808303815f87803b158015612867575f5ffd5b505af1158015612879573d5f5f3e3d5ffd5b505050505b505050505050565b60405173ffffffffffffffffffffffffffffffffffffffff83811660248301526044820183905261113791859182169063a9059cbb9060640161250c565b5f5f5f6128d08461313f565b90925090505f8280156128e5576128e56142e1565b036124c357808060200190518101906128fe919061430e565b73ffffffffffffffffffffffffffffffffffffffff1663e8c9bee56040518163ffffffff1660e01b8152600401602060405180830381865afa158015612946573d5f5f3e3d5ffd5b505050506040513d601f19601f820116820180604052508101906107d69190613f07565b5f5f5f61297786866131ff565b91509150815f0361299b5783818161299157612991613de5565b04925050506102ce565b8184116129b2576129b2600385150260111861321b565b5f848688095f868103871696879004966002600389028118808a02820302808a02820302808a02820302808a02820302808a02820302808a02909103029181900381900460010185841190960395909502919093039390930492909217029150509392505050565b5f5f5f5f5f5f5f612a2a88612f8d565b9398509196509450925090506001856009811115612a4a57612a4a6142e1565b03612ae1575f83806020019051810190612a64919061430e565b90508073ffffffffffffffffffffffffffffffffffffffff16634cb44a766040518163ffffffff1660e01b81526004016040805180830381865afa158015612aae573d5f5f3e3d5ffd5b505050506040513d601f19601f82011682018060405250810190612ad291906143e1565b97509750505050505050915091565b5f5f82806020019051810190612af7919061434d565b915091505f612b1b88888888876fffffffffffffffffffffffffffffffff16612fba565b909a50670de0b6b3a764000099509050612b476fffffffffffffffffffffffffffffffff83168a6140c3565b612b519082613dce565b612b63670de0b6b3a76400008c613dce565b1015612b8d5780612b7c670de0b6b3a76400008c613dce565b612b869190613e12565b9850612b99565b808a1015612b99578099505b5050505050505050915091565b5f80826003811115612bba57612bba6142e1565b1480612480575060015b826003811115612bd657612bd66142e1565b1492915050565b5f6001826003811115612bf257612bf26142e1565b148061248057506002612bc4565b5f80846003811115612c1457612c146142e1565b14612c6e576001846003811115612c2d57612c2d6142e1565b14612c64576002846003811115612c4657612c466142e1565b14612c5a57612c55838361322c565b6107d6565b612c558383612e18565b612c558383612ec5565b6107d683836132c1565b5f83515f03612c8857505f6107d6565b8351600190868015612cdc575067ffffffffffffffff84168587612cad6001856140c3565b81518110612cbd57612cbd614096565b6020026020010151612ccf9190614403565b67ffffffffffffffff1611155b80612d32575086158015612d32575067ffffffffffffffff84168587612d036001856140c3565b81518110612d1357612d13614096565b6020026020010151612d259190614403565b67ffffffffffffffff1610155b15612d4b57612d426001826140c3565b925050506107d6565b80821015612e02575f612d5e8383613353565b905087612da5578467ffffffffffffffff1686888381518110612d8357612d83614096565b6020026020010151612d959190614403565b67ffffffffffffffff1610612de1565b8467ffffffffffffffff1686888381518110612dc357612dc3614096565b6020026020010151612dd59190614403565b67ffffffffffffffff16115b15612dee57809150612dfc565b612df9816001613ef4565b92505b50612d4b565b612e0d6001836140c3565b979650505050505050565b5f5f8260070b12612e9157600782900b633b8b87c08110612e65576040517f1115766700000000000000000000000000000000000000000000000000000000815260040160405180910390fd5b633b9aca0084612e7583836140c3565b612e7f9190613dce565b612e899190613e12565b915050612480565b633b9aca0083612ea084614426565b612eb19060070b633b9aca00613ef4565b612ebb9190613dce565b61247d9190613e12565b5f5f8260070b12612f3257600782900b64e8d4a510008110612f13576040517f1115766700000000000000000000000000000000000000000000000000000000815260040160405180910390fd5b612e89612f2482633b9aca00613ef4565b8590633b9aca0060016123c7565b61247d612f3e83614426565b612f4f9060070b633b9aca006140c3565b8490633b9aca0060016123c7565b5f5f612f688461336d565b9050612f85612f7684613057565b80156123ef5750818002851190565b019392505050565b5f5f606080606085806020019051810190612fa89190614470565b939a9299509097509550909350915050565b5f5f612fcf86670de0b6b3a7640000866134d2565b9050612fdc8782876134d2565b9150612ff0670de0b6b3a764000083613dce565b61300284670de0b6b3a76400006140c3565b61300c9083613dce565b108015613044575061302683670de0b6b3a7640000613ef4565b6130309082613dce565b613042670de0b6b3a764000084613dce565b105b1561304d578091505b9550959350505050565b5f600282600381111561306c5761306c6142e1565b613076919061451f565b60ff166001149050919050565b6060814710156130c8576040517fcf47918100000000000000000000000000000000000000000000000000000000815247600482015260248101839052604401612463565b5f5f8573ffffffffffffffffffffffffffffffffffffffff1684866040516130f09190614540565b5f6040518083038185875af1925050503d805f811461312a576040519150601f19603f3d011682016040523d82523d5f602084013e61312f565b606091505b50915091506106fd8683836138fd565b5f606082806020019051810190613156919061438a565b9094909350915050565b5f5f60205f8451602086015f885af18061317f576040513d5f823e3d81fd5b50505f513d915081156131965780600114156131b0565b73ffffffffffffffffffffffffffffffffffffffff84163b155b15612553576040517f5274afe700000000000000000000000000000000000000000000000000000000815273ffffffffffffffffffffffffffffffffffffffff85166004820152602401612463565b5f805f1983850993909202808410938190039390930393915050565b634e487b715f52806020526024601cfd5b5f5f8260070b1261329557600782900b633b8b87c08110613279576040517f1115766700000000000000000000000000000000000000000000000000000000815260040160405180910390fd5b612e89633b9aca0061328b83826140c3565b86919060016123c7565b61247d633b9aca006132a684614426565b6132b79060070b633b9aca00613ef4565b85919060016123c7565b5f5f8260070b1261332b57600782900b64e8d4a51000811061330f576040517f1115766700000000000000000000000000000000000000000000000000000000815260040160405180910390fd5b61331d81633b9aca00613ef4565b612e7f633b9aca0086613dce565b61333482614426565b6133459060070b633b9aca006140c3565b612ebb633b9aca0085613dce565b5f6133616002848418613e12565b61247d90848416613ef4565b5f6001821161337a575090565b81600170010000000000000000000000000000000082106133a05760809190911c9060401b5b6801000000000000000082106133bb5760409190911c9060201b5b64010000000082106133d25760209190911c9060101b5b6201000082106133e75760109190911c9060081b5b61010082106133fb5760089190911c9060041b5b6010821061340e5760049190911c9060021b5b6004821061341a5760011b5b600302600190811c9081858161343257613432613de5565b048201901c9050600181858161344a5761344a613de5565b048201901c9050600181858161346257613462613de5565b048201901c9050600181858161347a5761347a613de5565b048201901c9050600181858161349257613492613de5565b048201901c905060018185816134aa576134aa613de5565b048201901c90506134c98185816134c3576134c3613de5565b04821190565b90039392505050565b5f808460098111156134e6576134e66142e1565b036135b6575f5f5f5f5f868060200190518101906135049190614666565b945094509450945094505f613519828a61398c565b86519091505f5b818110156135a65761359c8389838151811061353e5761353e614096565b602002602001015188848151811061355857613558614096565b602002602001015188858151811061357257613572614096565b602002602001015160ff168b868151811061358f5761358f614096565b60200260200101516139bb565b9250600101613520565b50819750505050505050506102ce565b60038460098111156135ca576135ca6142e1565b036135de5750670de0b6b3a76400006102ce565b60028460098111156135f2576135f26142e1565b036135fe5750816102ce565b6004846009811115613612576136126142e1565b036136a9576040517f7a28fb88000000000000000000000000000000000000000000000000000000008152670de0b6b3a7640000600482015273ae7ab96520de3a18e5e111b5eaab095312d7fe8490637a28fb8890602401602060405180830381865afa158015613685573d5f5f3e3d5ffd5b505050506040513d601f19601f820116820180604052508101906122739190613f07565b60058460098111156136bd576136bd6142e1565b0361371f5773be9895146f7af43049ca1c1ae358b0541ea4970473ffffffffffffffffffffffffffffffffffffffff16633ba0b9a96040518163ffffffff1660e01b8152600401602060405180830381865afa158015613685573d5f5f3e3d5ffd5b6006846009811115613733576137336142e1565b036137955773ae78736cd615f374d3085123a210448e74fc639373ffffffffffffffffffffffffffffffffffffffff1663e6aa216c6040518163ffffffff1660e01b8152600401602060405180830381865afa158015613685573d5f5f3e3d5ffd5b60078460098111156137a9576137a96142e1565b0361380b5773ac3e018457b222d93114458476f3e3416abbe38f73ffffffffffffffffffffffffffffffffffffffff166399530b066040518163ffffffff1660e01b8152600401602060405180830381865afa158015613685573d5f5f3e3d5ffd5b600884600981111561381f5761381f6142e1565b03613842575f828060200190518101906138399190613f07565b91506102ce9050565b6009846009811115613856576138566142e1565b036138f6575f5f838060200190518101906138719190614791565b91509150808273ffffffffffffffffffffffffffffffffffffffff1663a035b1fe6040518163ffffffff1660e01b8152600401602060405180830381865afa1580156138bf573d5f5f3e3d5ffd5b505050506040513d601f19601f820116820180604052508101906138e39190613f07565b6138ed9190613e12565b925050506102ce565b50816102ce565b6060826139125761390d82613acf565b6102ce565b8151158015613936575073ffffffffffffffffffffffffffffffffffffffff84163b155b15613985576040517f9996b31500000000000000000000000000000000000000000000000000000000815273ffffffffffffffffffffffffffffffffffffffff85166004820152602401612463565b50806102ce565b5f808360018111156139a0576139a06142e1565b036139b45750670de0b6b3a7640000612480565b5080612480565b5f5f5f8673ffffffffffffffffffffffffffffffffffffffff1663feaf968c6040518163ffffffff1660e01b815260040160a060405180830381865afa158015613a07573d5f5f3e3d5ffd5b505050506040513d601f19601f82011682018060405250810190613a2b91906147d6565b509350509250505f82131580613a4f575063ffffffff8416613a4d82426140c3565b115b15613a86576040517fae19356300000000000000000000000000000000000000000000000000000000815260040160405180910390fd5b8560ff16600103613ab957613a9c85600a614818565b613aa6838a613dce565b613ab09190613e12565b92505050612409565b81613ac586600a614818565b613aa6908a613dce565b805115613ade57805160208201fd5b6040517fd6bda27500000000000000000000000000000000000000000000000000000000815260040160405180910390fd5b50565b73ffffffffffffffffffffffffffffffffffffffff81168114613b10575f5ffd5b5f5f5f5f5f5f60c08789031215613b49575f5ffd5b86359550602087013594506040870135613b6281613b13565b93506060870135613b7281613b13565b92506080870135613b8281613b13565b9598949750929591949360a090920135925050565b5f5f5f60608486031215613ba9575f5ffd5b833592506020840135613bbb81613b13565b91506040840135613bcb81613b13565b809150509250925092565b7f4e487b71000000000000000000000000000000000000000000000000000000005f52604160045260245ffd5b604051601f82017fffffffffffffffffffffffffffffffffffffffffffffffffffffffffffffffe016810167ffffffffffffffff81118282101715613c4a57613c4a613bd6565b604052919050565b5f67ffffffffffffffff821115613c6b57613c6b613bd6565b50601f017fffffffffffffffffffffffffffffffffffffffffffffffffffffffffffffffe01660200190565b5f5f5f5f5f5f60c08789031215613cac575f5ffd5b86359550602087013594506040870135613cc581613b13565b93506060870135613cd581613b13565b92506080870135915060a087013567ffffffffffffffff811115613cf7575f5ffd5b8701601f81018913613d07575f5ffd5b8035613d1a613d1582613c52565b613c03565b8181528a6020838501011115613d2e575f5ffd5b816020840160208301375f602083830101528093505050509295509295509295565b600181811c90821680613d6457607f821691505b602082108103613d9b577f4e487b71000000000000000000000000000000000000000000000000000000005f52602260045260245ffd5b50919050565b7f4e487b71000000000000000000000000000000000000000000000000000000005f52601160045260245ffd5b808202811582820484141761248057612480613da1565b7f4e487b71000000000000000000000000000000000000000000000000000000005f52601260045260245ffd5b5f82613e2057613e20613de5565b500490565b60ff818116838216019081111561248057612480613da1565b7affffffffffffffffffffffffffffffffffffffffffffffffffffff818116838216019081111561248057612480613da1565b6fffffffffffffffffffffffffffffffff818116838216019081111561248057612480613da1565b7affffffffffffffffffffffffffffffffffffffffffffffffffffff828116828216039081111561248057612480613da1565b6fffffffffffffffffffffffffffffffff828116828216039081111561248057612480613da1565b8082018082111561248057612480613da1565b5f60208284031215613f17575f5ffd5b5051919050565b5f82601f830112613f2d575f5ffd5b8151613f3b613d1582613c52565b818152846020838601011115613f4f575f5ffd5b8160208501602083015e5f918101602001919091529392505050565b5f5f60408385031215613f7c575f5ffd5b8251602084015190925067ffffffffffffffff811115613f9a575f5ffd5b613fa685828601613f1e565b9150509250929050565b613fdb818651805173ffffffffffffffffffffffffffffffffffffffff168252602090810151910152565b602085015160408201526040850151606082015261401c6080820185805173ffffffffffffffffffffffffffffffffffffffff168252602090810151910152565b73ffffffffffffffffffffffffffffffffffffffff831660c082015261010060e08201525f825180610100840152806020850161012085015e5f61012082850101526101207fffffffffffffffffffffffffffffffffffffffffffffffffffffffffffffffe0601f83011684010191505095945050505050565b7f4e487b71000000000000000000000000000000000000000000000000000000005f52603260045260245ffd5b8181038181111561248057612480613da1565b8181035f8312801583831316838312821617156140f5576140f5613da1565b5092915050565b8082018281125f83128015821682158216171561411b5761411b613da1565b505092915050565b5f8160070b8360070b8061413957614139613de5565b5f1981147fffffffffffffffffffffffffffffffffffffffffffffffff80000000000000008314161561416e5761416e613da1565b90059392505050565b6001815b60018411156141b25780850481111561419657614196613da1565b60018416156141a457908102905b60019390931c92800261417b565b935093915050565b5f826141c857506001612480565b816141d457505f612480565b81600181146141ea57600281146141f457614210565b6001915050612480565b60ff84111561420557614205613da1565b50506001821b612480565b5060208310610133831016604e8410600b8410161715614233575081810a612480565b61423f5f198484614177565b805f190482111561425257614252613da1565b029392505050565b5f61247d60ff8416836141ba565b5f8261427657614276613de5565b5f1983147f8000000000000000000000000000000000000000000000000000000000000000831416156142ab576142ab613da1565b500590565b5f5f1982036142c1576142c1613da1565b5060010190565b60ff828116828216039081111561248057612480613da1565b7f4e487b71000000000000000000000000000000000000000000000000000000005f52602160045260245ffd5b5f6020828403121561431e575f5ffd5b81516102ce81613b13565b80516fffffffffffffffffffffffffffffffff81168114614348575f5ffd5b919050565b5f5f6040838503121561435e575f5ffd5b61436783614329565b915061437560208401614329565b90509250929050565b60018110613b10575f5ffd5b5f5f6040838503121561439b575f5ffd5b82516143a68161437e565b602084015190925067ffffffffffffffff811115613f9a575f5ffd5b5f602082840312156143d2575f5ffd5b815180151581146102ce575f5ffd5b5f5f604083850312156143f2575f5ffd5b505080516020909101519092909150565b67ffffffffffffffff81811683821602908116908181146140f5576140f5613da1565b5f8160070b7fffffffffffffffffffffffffffffffffffffffffffffffff8000000000000000810361445a5761445a613da1565b5f0392915050565b8051600a8110614348575f5ffd5b5f5f5f5f5f60a08688031215614484575f5ffd5b61448d86614462565b945061449b60208701614462565b9350604086015167ffffffffffffffff8111156144b6575f5ffd5b6144c288828901613f1e565b935050606086015167ffffffffffffffff8111156144de575f5ffd5b6144ea88828901613f1e565b925050608086015167ffffffffffffffff811115614506575f5ffd5b61451288828901613f1e565b9150509295509295909350565b5f60ff83168061453157614531613de5565b8060ff84160691505092915050565b5f82518060208501845e5f920191825250919050565b5f67ffffffffffffffff82111561456f5761456f613bd6565b5060051b60200190565b5f82601f830112614588575f5ffd5b8151614596613d1582614556565b8082825260208201915060208360051b8601019250858311156145b7575f5ffd5b602085015b838110156145e557805163ffffffff811681146145d7575f5ffd5b8352602092830192016145bc565b5095945050505050565b5f82601f8301126145fe575f5ffd5b815161460c613d1582614556565b8082825260208201915060208360051b86010192508583111561462d575f5ffd5b602085015b838110156145e557805160ff8116811461464a575f5ffd5b835260209283019201614632565b805160028110614348575f5ffd5b5f5f5f5f5f60a0868803121561467a575f5ffd5b855167ffffffffffffffff811115614690575f5ffd5b8601601f810188136146a0575f5ffd5b80516146ae613d1582614556565b8082825260208201915060208360051b85010192508a8311156146cf575f5ffd5b6020840193505b828410156146fa5783516146e981613b13565b8252602093840193909101906146d6565b80985050505050602086015167ffffffffffffffff81111561471a575f5ffd5b61472688828901614579565b945050604086015167ffffffffffffffff811115614742575f5ffd5b61474e888289016145ef565b935050606086015167ffffffffffffffff81111561476a575f5ffd5b614776888289016145ef565b92505061478560808701614658565b90509295509295909350565b5f5f604083850312156147a2575f5ffd5b82516147ad81613b13565b6020939093015192949293505050565b805169ffffffffffffffffffff81168114614348575f5ffd5b5f5f5f5f5f60a086880312156147ea575f5ffd5b6147f3866147bd565b60208701516040880151606089015192975090955093509150614785608087016147bd565b5f61247d83836141ba56fea2646970667358221220037f21a80973fdf8348c26885e8cf653c708fd3345322f1694eb1bacf2ea1e5164736f6c634300081c0033",
  "linkReferences": {},
  "deployedLinkReferences": {},
  "immutableReferences": {},
  "inputSourceName": "project/contracts/monetizer/facets/Swapper.sol",
  "devdoc": {
    "author": "Cooper Labs",
    "custom:contact": "security@monet.cash",
    "details": "In all the functions of this contract, one of `tokenIn` or `tokenOut` must be the stablecoin, and one of `tokenOut` or `tokenIn` must be an accepted collateral. Depending on the `tokenIn` or `tokenOut` given, the functions will either handle a mint or a burn operationIn case of a burn, they will also revert if the system does not have enough of `amountOut` for `tokenOut`. This balance must be available either directly on the contract or, when applicable, through the underlying strategies that manage the collateralFunctions here may be paused for some collateral assets (for either mint or burn), in which case they'll revertIn case of a burn again, the swap functions will revert if the call concerns a collateral that requires a whitelist but the `to` address does not have it. The quote functions will not revert in this case.Calling one of the swap functions in a burn case does not require any prior token approvalThis contract is an authorized fork of Angle's `Swapper` contract https://github.com/AngleProtocol/angle-transmuter/blob/main/contracts/transmuter/facets/Swapper.sol",
    "errors": {
      "AddressEmptyCode(address)": [
        {
          "details": "There's no code at `target` (it is not a contract)."
        }
      ],
      "FailedCall()": [
        {
          "details": "A call to an address target failed. The target may have reverted."
        }
      ],
      "InsufficientBalance(uint256,uint256)": [
        {
          "details": "The ETH balance of the account is not enough to perform the operation."
        }
      ],
      "SafeCastOverflowedUintDowncast(uint8,uint256)": [
        {
          "details": "Value doesn't fit in an uint of `bits` size."
        }
      ],
      "SafeERC20FailedOperation(address)": [
        {
          "details": "An operation with an ERC-20 token failed."
        }
      ]
    },
    "kind": "dev",
    "methods": {
      "swapExactInput(uint256,uint256,address,address,address,uint256)": {
        "details": "`msg.sender` must have approved this contract for at least `amountIn` for `tokenIn` for mint transactions",
        "params": {
          "amountIn": "Amount of `tokenIn` to bring",
          "amountOutMin": "Minimum amount of `tokenOut` to get: if `amountOut` is inferior to this amount, the function will revert",
          "deadline": "Timestamp before which the transaction must be executed",
          "to": "Address to which `tokenOut` must be sent",
          "tokenIn": "Token to bring for the swap",
          "tokenOut": "Token to get out of the swap"
        },
        "returns": {
          "amountOut": "Amount of `tokenOut` obtained through the swap"
        }
      },
      "swapExactInputWithPermit(uint256,uint256,address,address,uint256,bytes)": {
        "details": "Can only be used to mint, hence `tokenOut` is not needed"
      },
      "swapExactOutput(uint256,uint256,address,address,address,uint256)": {
        "details": "`msg.sender` must have approved this contract for an amount bigger than what `amountIn` will be before calling this function for a mint. Approving the contract for `tokenIn` with `amountInMax` will always be enough in this case",
        "params": {
          "amountInMax": "Maximum amount of `tokenIn` to bring in order to get `amountOut` of `tokenOut`",
          "amountOut": "Amount of `tokenOut` to obtain from the swap",
          "deadline": "Timestamp before which the transaction must be executed",
          "to": "Address to which `tokenOut` must be sent",
          "tokenIn": "Token to bring for the swap",
          "tokenOut": "Token to get out of the swap"
        },
        "returns": {
          "amountIn": "Amount of `tokenIn` used to perform the swap"
        }
      },
      "swapExactOutputWithPermit(uint256,uint256,address,address,uint256,bytes)": {
        "details": "Can only be used to mint, hence `tokenOut` is not needed"
      }
    },
    "title": "Swapper",
    "version": 1
  },
  "evm": {
    "gasEstimates": {
      "creation": {
        "codeDepositCost": "3704200",
        "executionCost": "4177",
        "totalCost": "3708377"
      },
      "external": {
        "quoteIn(uint256,address,address)": "infinite",
        "quoteOut(uint256,address,address)": "infinite",
        "swapExactInput(uint256,uint256,address,address,address,uint256)": "infinite",
        "swapExactInputWithPermit(uint256,uint256,address,address,uint256,bytes)": "infinite",
        "swapExactOutput(uint256,uint256,address,address,address,uint256)": "infinite",
        "swapExactOutputWithPermit(uint256,uint256,address,address,uint256,bytes)": "infinite"
      },
      "internal": {
        "_applyFeeBurn(uint256,int64)": "infinite",
        "_applyFeeMint(uint256,int64)": "infinite",
        "_buildPermitTransferPayload(uint256,uint256,address,uint256,bytes memory,struct Collateral storage pointer)": "infinite",
        "_checkAmounts(address,struct Collateral storage pointer,uint256)": "infinite",
        "_checkHardCaps(struct Collateral storage pointer,uint256,uint256)": "infinite",
        "_computeFee(enum QuoteType,uint256,int64)": "infinite",
        "_getMint(address,uint256)": "infinite",
        "_getMintBurn(address,address,uint256)": "infinite",
        "_invertFeeBurn(uint256,int64)": "infinite",
        "_invertFeeMint(uint256,int64)": "infinite",
        "_isExact(enum QuoteType)": "142",
        "_isMint(enum QuoteType)": "131",
        "_quoteBurnExactInput(address,struct Collateral storage pointer,uint256)": "infinite",
        "_quoteBurnExactOutput(address,struct Collateral storage pointer,uint256)": "infinite",
        "_quoteFees(struct Collateral storage pointer,enum QuoteType,uint256)": "infinite",
        "_quoteMintExactInput(struct Collateral storage pointer,uint256)": "infinite",
        "_quoteMintExactOutput(struct Collateral storage pointer,uint256)": "infinite",
        "_swap(uint256,uint256,address,address,address,bool,struct Collateral storage pointer,bytes memory)": "infinite"
      }
    }
  },
  "storageLayout": {
    "storage": [],
    "types": null
  },
  "userdoc": {
    "kind": "user",
    "methods": {
      "quoteIn(uint256,address,address)": {
        "notice": "Simulates what a call to `swapExactInput` with `amountIn` of `tokenIn` for `tokenOut` would give. If called right before and at the same block, the `amountOut` outputted by this function is exactly the amount that will be obtained with `swapExactInput`"
      },
      "quoteOut(uint256,address,address)": {
        "notice": "Simulates what a call to `swapExactOutput` for `amountOut` of `tokenOut` with `tokenIn` would give. If called right before and at the same block, the `amountIn` outputted by this function is exactly the amount that will be obtained with `swapExactOutput`"
      },
      "swapExactInput(uint256,uint256,address,address,address,uint256)": {
        "notice": "Swaps (that is to say mints or burns) an exact amount of `tokenIn` for an amount of `tokenOut`"
      },
      "swapExactInputWithPermit(uint256,uint256,address,address,uint256,bytes)": {
        "notice": "Same as `swapExactInput`, but using Permit2 signatures for `tokenIn`"
      },
      "swapExactOutput(uint256,uint256,address,address,address,uint256)": {
        "notice": "Swaps (that is to say mints or burns) an amount of `tokenIn` for an exact amount of `tokenOut`"
      },
      "swapExactOutputWithPermit(uint256,uint256,address,address,uint256,bytes)": {
        "notice": "Same as `swapExactOutput`, but using Permit2 signatures for `tokenIn`"
      }
    },
    "version": 1
  },
  "argsData": "0x",
  "transaction": {
    "hash": "0xf8a3a07212d24898632003150741df2eedf3dec3fc87d41dd26556b6388de9d9",
    "nonce": "0x3c",
    "origin": "0x10a852971d242a04829b541c32f09ad9ec1b227d"
  }
}